:100000004FC226C527C967C266C27ECA64C263C220
:1000100062C261C260C25FC25EC25DC25CC277770B
:1000200000007077700070007077700770077007BD
:1000300000EE7077000E7007EE0000000000000078
:1000400000000000003F0000000000000000000C65
:100050000C006030180C060301003E63737B6F6771
:100060003E000C0E0C0C0C0C3F001E33301C0633F3
:100070003F001E33301C30331E00383C36337F3097
:1000800078003F031F3030331E001C06031F33333C
:100090001E003F3330180C0C0C001E33331E33335C
:1000A0001E001E33333E30180E000C1E33333F3318
:1000B00033003F66663E66663F003C6603030366A8
:1000C0003C001F36666666361F007F46161E1646C3
:1000D0007F007F46161E16060F003C6603037366FC
:1000E0007C003333333F333333001E0C0C0C0C0CC9
:1000F0001E007830303033331E006766361E366699
:1001000067000F06060646667F0063777F7F6B6396
:10011000630063676F7B736363001C3663636336DE
:100120001C003F66663E06060F001E3333333B1E3F
:1001300038003F66663E366667001E33070E38336A
:100140001E003F2D0C0C0C0C1E00333333333333A5
:100150003F0033333333331E0C006363636B7F77AD
:1001600063006363361C1C3663003333331E0C0C90
:100170001E007F6331184C667F0000001E303E3346
:100180006E000706063E66663B0000001E33033322
:100190001E003830303E33336E0000001E333F0304
:1001A0001E001C36060F06060F0000006E33333E9D
:1001B000301F0706366E666667000C000E0C0C0CCE
:1001C0001E00300030303033331E070666361E36D0
:1001D00067000E0C0C0C0C0C1E000000337F7F6BB4
:1001E000630000001F333333330000001E3333330A
:1001F0001E0000003B66663E060F00006E33333E75
:10020000307800003B6E66060F0000003E031E3093
:100210001F00080C3E0C0C2C180000003333333345
:100220006E0000003333331E0C000000636B7F7FD1
:100230003600000063361C36630000003333333E63
:10024000301F00003F190C263F0088002280082044
:1002500002882280082002882200F8003E800FE0F9
:1002600003F83E800FE003F83E000102030304059B
:100270000606070808000101020304040506070832
:10028000F0023C03EC038001B40380014D038001C4
:10029000F002BE004D03BE00B4038001EC038001F8
:1002A000670428030000280067046C01B403800180
:1002B000F0023C034D038001B4038001EC032803EA
:1002C00000002800EC037C01B40380014D033C03D3
:1002D000F0023C03B4033C03670400030000280061
:1002E00067048C064D031E03000028004D036201C5
:1002F000C602800132023C0378028001C6028001FE
:10030000F002280300002800F0026C01B403800111
:10031000F0023C034D038001B4038001EC03280389
:1003200000002800EC037C01B40380014D033C0372
:10033000F0023C03B4033C036704EC0200000E002F
:1003400000001A006704A006010101018181C1E1DA
:10035000F1F10111F1F1E1C1C1818101010101015D
:10036000010101010101010101010101FCFCFEFF8C
:10037000FFFFFFFFFFFFFF00FFFFFFFFFFFFFFFF8C
:10038000FFFEF80000000000000000000000000078
:10039000FFFF7F3FBF9FCFEFE7F7FBE001FBF3F7E6
:1003A000E7EFCFDFDFBFBF3000000000000000003C
:1003B0000000000000FEFFFFFFFFFFFFFFFFFFFF49
:1003C000003FFFFFFFFFFFFFFFFFFFFFE006FEFC18
:1003D000FCFCF8F8F0F0E00000FFFF7F7F3FBF9FDC
:1003E000DFCFEFEFE400F7E7EFEFCFDFDF9FBFBF37
:1003F0003F00077FFFFFFFFFFFFFFFF000FCFEFE57
:10040000FFFFFFFFFFFFFFFFFF8007FFFFFFFFFF73
:10041000FFFFFFFFFFFFC00E3E1E1C1D0D09030363
:100420000007FFFFFFFFFFFFFFFFFF7F7F3F003F52
:100430003F7F7F7F7F7FFFFFFFFFFF800000000087
:10044000000000008080838383898D8D8C8E8E8E4A
:100450008F8F9F8F8F8F8F8786868282828080800A
:1004600080808080808080800000000036004444CE
:10047000C04460446006C006400E600C00000000EE
:100480003800020202020202020202020102040811
:1004900010202004100801020000040000000000E9
:1004A00011241FBECFE5D2E0DEBFCDBF10E0A0E635
:1004B000B0E0E4EBFFE102C005900D92A03AB10775
:1004C000D9F721E0A0EAB0E001C01D92A234B20742
:1004D000E1F764D86DCD94CD0895A62F683040F033
:1004E000603118F0AF5022E004C0A85021E001C0F4
:1004F00020E090E030E063E070E022DD82549F4F26
:10050000FC01E20FF31F442349F081E090E001C0B9
:10051000880FAA95EAF79081892B15C027E030E073
:100520002A1B31098FE790E0AC0102C05595479531
:100530002A95E2F78EEF90E001C0880FAA95EAF7BE
:10054000842B9081892380830895DF92EF92FF921C
:100550000F931F93CF93DF93D82E09E211E0C0E0F1
:100560007801D0E0F70181917F018130F1F4D11061
:1005700009C0609139016D0F80913B0141E08C0F02
:10058000ACDF13C0F1E0DF1210C0609139016D0FD4
:1005900080913B0140E08C0FA0DF80913901909168
:1005A0003A019093280180932701DF5FD430D1F680
:1005B000CF5F0C5F1F4FC43099F6DF91CF911F9131
:1005C0000F91FF90EF90DF900895462F90E06830F4
:1005D000C8F463E070E0B4DC82549F4FFC0180817A
:1005E000282F30E081E090E0042E02C0880F991F90
:1005F0000A94E2F78223932302C0959587954A9542
:10060000E2F70895262F30E0603150F02F50310985
:1006100063E070E095DC82549F4FFC01828109C049
:100620002850310963E070E08BDC82549F4FFC015D
:100630008181482F50E081E090E0022E02C0880FB7
:10064000991F0A94E2F78423952302C09595879514
:100650002A95E2F70895A62F683040F0603118F02F
:10066000AF5022E004C0A85021E001C020E090E09B
:1006700030E063E070E064DC80569F4FFC01E20FE5
:10068000F31F442349F081E090E001C0880FAA9550
:10069000EAF79081892B15C027E030E02A1B310949
:1006A0008FE790E0AC0102C0559547952A95E2F797
:1006B0008EEF90E001C0880FAA95EAF7842B908115
:1006C000892380830895DF92EF92FF920F931F9307
:1006D000CF93DF93D82E03E111E0C0E07801D0E0A2
:1006E000F70181917F018130A1F4D11007C06091A1
:1006F00023016D0F8091250141E009C0F1E0DF1277
:1007000008C0609123016D0F8091250140E08C0F9E
:10071000A2DFDF5FD43021F7CF5F0C5F1F4FC43003
:10072000E9F6DF91CF911F910F91FF90EF90DF904D
:100730000895462F90E06830C8F463E070E000DC74
:1007400080569F4FFC018081282F30E081E090E0AF
:10075000042E02C0880F991F0A94E2F78223932384
:1007600002C0959587954A95E2F70895262F30E0C7
:10077000603150F02F50310963E070E0E1DB8056CA
:100780009F4FFC01828109C02850310963E070E06D
:10079000D7DB80569F4FFC018181482F50E081E0DC
:1007A00090E0022E02C0880F991F0A94E2F784237A
:1007B000952302C0959587952A95E2F708955F9253
:1007C0006F927F928F929F92AF92BF92CF92DF9261
:1007D000EF92FF920F931F93CF93DF93C090250169
:1007E000D09026018090230190902401E6013601EB
:1007F00023E0620E711C540133E0A30EB11C5C2E89
:10080000EC2EEC186C167D0654F18401F12CC70116
:10081000880F991F880F991F9C012D5E3E4F79010B
:10082000802F8819A016B106C4F0F701E80FF11D5A
:100830008081882379F0D7FD14C0CA30D1059CF49B
:1008400017FD11C0083111052CF4602F852D71DFC3
:10085000811109C00F5F1F4FE3CF2196D0CF80E0F9
:1008600003C082E001C081E0DF91CF911F910F9121
:10087000FF90EF90DF90CF90BF90AF909F908F90C0
:100880007F906F905F900895CF93DF93C091230185
:10089000D0912401C330D105A4F1CE0102979093E9
:1008A0002401809323018BDF811106C080912301F5
:1008B000909124010197F3CF80E1E3E1F1E0A9E217
:1008C000B1E001900D928A95E1F7209123013091DA
:1008D00024012F5F3F4F30933A01209339018091DB
:1008E00025019091260190933C0180933B01DD27E7
:1008F000D0932401C0932301229781E02C173D0758
:100900000CF080E0DF91CF91089581E01EDEBCDF26
:10091000882311F080E019CE089584E1E3E1F1E04D
:10092000ACEEB0E001900D928A95E1F7809125013F
:1009300090912601019790932601809325013FDF36
:10094000882351F084E1ECEEF0E0A3E1B1E0019006
:100950000D928A95E1F70895D8CFC49AC39AC398A7
:10096000C498089580910901811120C081E087B960
:10097000369A3699FECF84B125B190E0922B9C0136
:10098000215233402633310510F481E00DC09C0123
:10099000285533402237310510F482E005C08B5CC6
:1009A0009340C69718F483E0809309010895EF926D
:1009B000FF920F931F93CF93DF937C018B01C0E0D5
:1009C000D0E0EC16FD06B4F081E093D480E090E036
:1009D000801791071CF400000196FACF80E089D4BB
:1009E00080E090E0801791071CF400000196FACF98
:1009F0002196E7CFDF91CF911F910F91FF90EF905C
:100A000008951F920F920FB60F9211242F933F93C8
:100A10004F935F936F937F938F939F93AF93BF9306
:100A2000EF93FF93E0916200F09163000995FF91CD
:100A3000EF91BF91AF919F918F917F916F915F9156
:100A40004F913F912F910F900FBE0F901F901895CF
:100A50001F920F920FB60F9211242F933F934F9333
:100A60005F936F937F938F939F93AF93BF93EF9316
:100A7000FF93E0916000F09161000995FF91EF9183
:100A8000BF91AF919F918F917F916F915F914F91A6
:100A90003F912F910F900FBE0F901F90189520E05F
:100AA00030E090E0AC01022E01C0440F0A94EAF756
:100AB00047FF02C0C39A01C0C398C49AC4982F5F6D
:100AC0003F4F2830310571F7C39AC49AC4980895EE
:100AD00044DF88E7E4DF80E4E2CFC498C398C49A97
:100AE000C39A0895CF93DF93C82FD62F36DF88E7B8
:100AF000D6DF80E0D4DF80EB8D0FD1DF8C2F8295A5
:100B00008F708061CCDF8C2F8E708160C8DFDF91A9
:100B1000CF91E3CF683008F4E5CF08952F923F924C
:100B20004F925F926F927F928F929F92AF92BF92FD
:100B3000CF92DF92EF92FF920F931F93CF93DF93A9
:100B4000CDB7DEB728970FB6F894DEBF0FBECDBF86
:100B5000302E7A0157FF02C0E12CF12C690124E10B
:100B6000C216D1041CF023E1C22ED12CFC0197FF48
:100B700002C0E0E0F0E0EB58FD4F34913F83FB0111
:100B80006B30710514F0EAE0F0E0E659FD4F449156
:100B90004983EA828E2D66E0CAD9482E5F80550CC3
:100BA0005F818981581708F0AEC0543048F0573043
:100BB00018F4752E739405C07F807394739401C0EC
:100BC0007F806F81842DA6DF83DFE114F10411F4AF
:100BD0008FEF09C09F81911102C081E004C0EF81B5
:100BE000E730F1F480E85BDF1A81852D90E09C010D
:100BF000265A3D4F490122242394270C9C012F5F44
:100C00003F4FA901465A5D4F5A01F901E65BFD4F7E
:100C1000FC83EB839C01265B3D4F3E832D8328C0E4
:100C200080E0E1CF3F81332351F1373051F100E0D3
:100C3000612F872D7EDD882331F1F401F491F02BB3
:100C4000F887612F822D75DD882329F0F5018491C5
:100C5000F885F82BF88780910D01811116C08885E1
:100C60001EDF639425E06212DDCF802F18DF1F5F47
:100C7000812F90E08C159D052CF5612CD3CF01E0E0
:100C8000D7CF00E8D5CF0887DCCF612F872D9DDC3B
:100C9000882349F0862D8B7F91F1ED81FE8184912F
:100CA000F885F82BF887612F822D8FDC8823B9F225
:100CB000862D8B7F31F1EB81FC818491F885F82BB7
:100CC000F887CDCF332039F008DF3F813F5F3F8386
:100CD0005394539465CF4F814630B0F3042F10E006
:100CE0000A521F4F58E05B83F8018081D8DEFB81F8
:100CF000F150FB830E5F1F4FF111F6CFE5CFF401EA
:100D0000CECFF501DACF28960FB6F894DEBF0FBE2E
:100D1000CDBFDF91CF911F910F91FF90EF90DF90AA
:100D2000CF90BF90AF909F908F907F906F905F908B
:100D30004F903F902F9008950F93CF93DF93C82F3C
:100D40006CEB73E084E190E032DE80E1ECEDF0E00A
:100D5000DF011D928A95E9F78FEF8C0FF9F4DF011F
:100D600084EE90E0EEE1F0E0249114962C93149739
:100D7000249115962C93159712968A179B07A1F725
:100D800000E023E130E040E050E06AE070E080E025
:100D900090E0C4DEDF91CF910F910895ACEDB0E00B
:100DA000ED0190E0880F991F880F991FBC01625ECA
:100DB0007F4FAC01415E5F4FFB0124912883FA0114
:100DC000249129832296F0E0C23EDF07A9F7AC0107
:100DD000405E5F4F8F5D9F4FFA01249118962C93D0
:100DE0001897FC01249119962C9319971296F0E00C
:100DF000A23EBF0789F7C4CF7F928F929F92AF9296
:100E0000BF92CF92DF92EF92FF920F931F93CF93F7
:100E1000DF9300D000D000D0CDB7DEB7FC014B018E
:100E2000742EE22E2AE030E0B9019BD88E83CB01EC
:100E3000B90197D88D83CF0164E670E092D8CB01D9
:100E4000B9018FD88C83CF0168EE73E08AD8CB01CB
:100E5000B90187D88B83CF0160E177E282D86A83BA
:100E60001982F82C540185E0A80EB11C0F2D10E05A
:100E7000A016B1064CF16F2D872D4CDE29DE97E0D0
:100E8000C92ED12C08191909A1E0B0E0AC0FBD1F83
:100E90000A0F1B1FEE2011F080E00EC0D801EC916C
:100EA000F0E0349683E0EE0FFF1F8A95E1F7EC0D3A
:100EB000FD1DE65CFF4F8491F2DDB1E0CB1AD10855
:100EC00048F70BDEF394D2CF26960FB6F894DEBF28
:100ED0000FBECDBFDF91CF911F910F91FF90EF908B
:100EE000DF90CF90BF90AF909F908F907F900895AC
:100EF000FF920F931F93CF93DF9380E1E3E1F1E043
:100F0000ACEEB0E001900D928A95E1F7C09123011B
:100F1000D0912401D093FD00C093FC008091250165
:100F2000909126019093FF008093FE00CE010197DF
:100F3000909324018093230142DC882309F4BEC0EE
:100F4000D0932401C093230180E0BDDBC0E0D0E05A
:100F500010E001E06C2F812FECDB811101C000E07B
:100F60001F5F1A30B9F70023F1F1DF5F60E273E031
:100F70008EE190E01CDD68E572E08EE190E017DD27
:100F800060E971E08EE190E012DD10E040E06C2F4E
:100F9000812F61DB1F5F1A30C9F74C2F50E09A0197
:100FA0002F5F3F4F69E070E080E090E0E4D16EE1B8
:100FB00070E080E090E070D210E00C2F073179F003
:100FC000FF24F394F00E6F2D812FB3DB41E08111EC
:100FD00001C040E0602F812F3EDB0F2DEFCF1F5F60
:100FE0001A3059F7C150CF5FC83109F0B1CF8091A5
:100FF0000601909107018D0F911D90930701809339
:101000000601D230A1F040F4D13011F580910A01EF
:1010100090910B01889618C0D33081F0D430C1F480
:1010200080910A0190910B01805E9C4F0DC08091D0
:101030000A0190910B018C599F4F06C080910A01C3
:1010400090910B01845D9E4F90930B0180930A0158
:1010500000E023E130E040E050E06AE070E080E052
:1010600090E05CDD20E045E750E060E070E08091DA
:101070000A0190910B01C0DEC09108018C2FA1D113
:101080009EDB882321F081E080930C0109C08C2F26
:1010900098D181E05ADAF8DB882311F080E055DA44
:1010A0006BD627E030E040E050E003D7DC01CB0115
:1010B0000196A11DB11D809308013EDE81E045DA55
:1010C000E3DB882311F080E040DADF91CF911F91BC
:1010D0000F91FF900895CF9360E080E003DDF8DC8E
:1010E0008FEFDDDCCDE781E0DADCC150E1F78FEF97
:1010F000D6DCF3DCC1E06C2F80E00CDDE9DC8FEFA7
:10110000CEDCEBDC6C2F8FE705DDE2DC8FEFC7DC9C
:10111000E4DCCF5FC73079F767E080E0E3DCD8DC60
:101120008FEFBDDCCDE780E8BADCC150E1F78FEF8F
:10113000B6DCCF91D2CCCF93C82F0FDC88E7AFDCE1
:1011400080E0ADDC8C2FABDCCF91C7CCBB9ABC9AD6
:101150008EEAF1DF80E0EFDF80E1EDDF80E4EBDFBE
:1011600081E8E9DF8FECE7DF81EAE5DF88ECE3DFA8
:1011700086EAE1DF88EADFDF8FE3DDDF83EDDBDFB7
:1011800080E0D9DF85EDD7DF80E8D5DF89EDD3DFDB
:1011900081EFD1DF8AEDCFDF82E1CDDF8BEDCBDFD9
:1011A00080E4C9DF80E2C7DF82E0C5DF8DE8C3DF0E
:1011B00084E1C1DF84EABFDF86EABDDF8FEABBCF0F
:1011C000BF92CF92DF92EF92FF920F931F93CF9334
:1011D000DF93C82EB62E8A01D12C6D2D6C0DF8012F
:1011E000ED0DF11D8081882359F1803239F1C4ED74
:1011F000C80FC03130F0CDECC80FC93210F0C7ECC9
:10120000C80F8B2D87DC64DCD0E083E0CC0FDD1FC2
:101210008A95E1F7E12CF12C2796FE01EE19FF09E2
:10122000E65CFF4F84913BDC8FEFE81AF80A88E018
:10123000E816F10491F751DCD394CFCFC0E0E1CFB1
:10124000DF91CF911F910F91FF90EF90DF90CF90A2
:10125000BF9008951F920F920FB60F9211248F9393
:1012600080910901811103C084E0809309018F916D
:101270000F900FBE0F901F901895823081F018F4D8
:10128000813051F00895833019F0843009F00895C9
:101290008CB58F7D8CBD08958AB58F7702C08AB5D5
:1012A0008F7D8ABD08953FB7F89480913E0190915B
:1012B0003F01A0914001B091410122B708B601FE63
:1012C00005C02F3F19F00196A11DB11D3FBFBA2FD8
:1012D000A92F982F8827820F911DA11DB11DBC0138
:1012E000CD0143E0660F771F881F991F4A95D1F7FC
:1012F00008951F93CF93DF93E7E9F4E09491EDE82D
:10130000F4E0D491E3E8F4E0C491CC23C9F0182FC1
:10131000992311F0892FB1DFEC2FF0E0EE0FFF1FC2
:10132000E458FB4FA591B4919FB7F894111104C0F4
:101330008C91D095D82302C0EC91DE2BDC939FBF1B
:10134000DF91CF911F910895CF93DF93C0EB8C2F46
:10135000F2DE80E0F0DE80E1EEDEBADBD0E080E0BD
:101360009EDBDF5FD038D9F7B8DBCF5FC83B79F7BA
:10137000DF91CF910895EF92FF920F93CF93DF9378
:10138000EC017B0101E0CADB4091390150913A0147
:1013900080912701909128014817590724F49C0156
:1013A0002C5F3F4F05C09A012C5F3F4F01E0AC011D
:1013B000B701CE01B3DBDF91CF910F91FF90EF909A
:1013C00008951F93CF93DF93815063E171E090E024
:1013D000282F30E0220F331F22593B4FC1E0D0E0CD
:1013E00081E014E0190FDB01F90145915491FE01F0
:1013F000092E02C0EE0FFF1F0A94E2F74E235F236F
:10140000092E02C0569547950A94E2F741305105DE
:1014100011F48C9301C01C929F5F11969113E4CF3D
:101420006C5F7F4F9031E9F683E190E09093240167
:101430008093230183E090E090932601809325011F
:10144000DF91CF911F910895CF93DF93282F30E044
:10145000F901EA56FB4F8491F901E457FB4FD4910F
:10146000F901EE57FB4FC491CC2389F0811105DFC0
:10147000EC2FF0E0EE0FFF1FE859FB4FA591B49160
:10148000EC91ED2381E090E021F480E002C080E067
:1014900090E0DF91CF9108958F929F92AF92BF928B
:1014A000CF92DF92EF92FF926B017C01FCDE4B0149
:1014B0005C01C114D104E104F104E9F0F4DEDC01C3
:1014C000CB0188199909AA09BB09883E9340A10557
:1014D000B10578F321E0C21AD108E108F10888EEDD
:1014E000880E83E0981EA11CB11CC114D104E10434
:1014F000F10421F7DECFFF90EF90DF90CF90BF9007
:10150000AF909F908F9008951F920F920FB60F92F9
:1015100011242F933F938F939F93AF93BF93809109
:101520000F0190911001A0911101B0911201309121
:101530003D0126E0230F2D3720F40296A11DB11D99
:1015400005C029E8230F0396A11DB11D20933D017D
:1015500080930F0190931001A0931101B093120199
:1015600080913E0190913F01A0914001B0914101D5
:101570000196A11DB11D80933E0190933F01A09360
:101580004001B0934101BF91AF919F918F913F91E5
:101590002F910F900FBE0F901F901895CF93DF9350
:1015A000CDB7DEB764970FB6F894DEBF0FBECDBFE0
:1015B00078948AB582608ABD8AB581608ABD83B716
:1015C000826083BF83B7816083BF89B7826089BF30
:1015D00080B7826080BF80B7816080BF329A319AC5
:1015E0003098379A8CB580648CBD82E087BB81E0EF
:1015F00085BB8BB780628BBF83E090E01BD48C01EE
:101600000F5F1F4FBC0180E090E0611571058105FF
:10161000910509F0FED3B801772783E090E01DD44F
:10162000789494DDB7E08B2E912CA12CB12C16E987
:10163000212E312C8BDD88DE4EDD48E650E060E463
:1016400081E0BEDD4FE650E060E381E0B9DD46E7D2
:1016500050E068E281E0B4DD3EDD00E010E0602FA4
:101660008EE458DA35DAC80164E270E069D47C01AE
:10167000C12CD12CF701EC0DFD1DE85BFC4F8491D2
:101680000EDA2FEFC21AD20A34E2C316D10491F750
:1016900024DA0F5F1F4F0830110509F78FB7F89450
:1016A000C0900F01D0901001E0901101F090120154
:1016B0008FBF80E0C9DE019709F04CC02FB7F894C6
:1016C00080910F0190911001A0911101B091120130
:1016D0002FBF8C199D09AE09BF09813D9740A10517
:1016E000B1053CF36CEB73E084E190E060D982E0FB
:1016F000ABDE0197B9F44DE750E068E082E060DDD1
:1017000080910E01811107C081E080930E0142E8B3
:1017100050E060E11BC010920E0147E850E060E12C
:1017200081E015C04EE850E060E181E049DD809144
:101730000D01811106C081E080930D0144E950E064
:1017400004C010920D0147E950E068E082E038DD06
:1017500011E001C010E080E077DE0197E1F3112392
:1017600021F168EE73E080E090E096DEEDDD8EEA38
:10177000E2DC379885B7877E806185BF85B7806258
:1017800085BF85B7806285BF889585B78F7D85BF0A
:1017900085B78F7D85BF379A8FEACDDC80E090E0FA
:1017A000892B09F447CF2CD445CF4BE950E065E1B4
:1017B00082E006DD80910D01811103C0A9E1CA2EEE
:1017C00002C0F2E3CF2E00E812E0D12CF8013296ED
:1017D00065917491F801E590F490072E000C880B48
:1017E000990B1E141F04C4F528EE33E040E050E0CE
:1017F00047D3A701440F551FDA0114972A01550F4B
:1018000066087708198A1A8A1B8A1C8A29893A89E4
:101810004B895C892617370748075907F4F4C19AA2
:1018200033E0E316F10418F0FD013197F1F7C198A8
:1018300043E0E416F10418F0FD013197F1F729892E
:101840003A894B895C89240D351D461D571D298B0E
:101850003A8B4B8B5C8BDACF1FDED3940C5F1F4F20
:10186000CD10B4CF71DD10920C0110920B011092CB
:101870000A011092090110E000E040E0612F802F82
:10188000EAD60F5F0A30C9F71F5F1831A9F710E0D9
:1018900000E040E0612F802F20D60F5F0A30C9F7AB
:1018A0001F5F1831A9F742EB54E050936100409359
:1018B000600085B7836085BF8BB780648BBF5CD2C7
:1018C000A5019401F6D281E0860F7BDD80E0FBD696
:1018D000DBD7882311F080E038D680E036D64CD2B2
:1018E000A5019401E6D2DC01CB010196A11DB11D39
:1018F0008093080121DA80910E0181111BC081E0E3
:1019000090E0909307018093060100E023E130E02E
:1019100040E050E06AE070E080E090E0FFD820E036
:1019200045E750E060E070E080910A0190910B0182
:1019300063DA7BC014E681E0C6D6DADA1DD2A501EF
:101940009401B7D264307105810591050CF0E5D79B
:1019500080E0B9D6115079F7D2CF81E0B4D6C8DA99
:1019600080E0B1D668E372E084E190E020D8409155
:1019700023015091240180912501909126019A0123
:101980002B5F3F4FBC016C5F7F4FF5DC2FB7F894A6
:1019900080910F0190911001A0911101B09112015D
:1019A0002FBF8093020190930301A0930401B09391
:1019B00005018091060190910701880F991F880FFA
:1019C000991F8935924024F0309207012092060138
:1019D0008FB7F89440910F0150911001609111015F
:1019E000709112018FBF8091020190910301A0912B
:1019F0000401B0910501481B590B6A0B7B0B8091C8
:101A000006019091070126E930E0281B390BC90136
:101A1000880F991F880F991F092E000CAA0BBB0B6A
:101A2000481759076A077B0730F080910C0188231B
:101A300009F493CF51C080E007DD892BF9F482E0EF
:101A400003DD892BD9F480910901813009F0C0C0F0
:101A500081E039D662D780E036D64091230150919B
:101A6000240180912501909126019A012C5F3F4F1E
:101A7000BC016B5F7F4F7FDC1092090180910901EF
:101A8000843021F580E0E0DC0197F1F481E01BD6A1
:101A90002FDA80E018D640912301509124018091E3
:101AA0002501909126019A012B5F3F4FBC016C5F8D
:101AB0007F4F61DC6AE070E080E090E0EDDC8091D7
:101AC0000C018823F9F284CF109209016EE170E0D5
:101AD00080E090E0E1DC7CCF37DC80E090E0A2D1D8
:101AE000082F10E0102F0027109301010093000130
:101AF00081E090E097D1082B109301010093000141
:101B000060910A0170910B01061717077CF470931E
:101B100001016093000181E090E091D160910B019F
:101B200080E090E08CD17724739401C0712CD3DADB
:101B3000E0900A01F0900B0120E040E550E061E008
:101B400070E0C70159D9C0900001D090010120E098
:101B500048E250E061E070E0C6014ED900E010E0DC
:101B6000B80182E390E023D70E5C1F4F083E83E06C
:101B70001807B1F714E021E040E550E061E070E0C3
:101B8000C7013AD9772039F021E048E250E061E01E
:101B900070E0C60131D968EC70E080E090E07CDC58
:101BA00020E040E550E061E070E0C70125D97720F2
:101BB00039F020E048E250E061E070E0C6011CD955
:101BC00068EC70E080E090E067DC1150A1F6C9CDD0
:101BD0008230A1F581E077D584E1E3E1F1E0ACEE7C
:101BE000B0E001900D928A95E1F7809125019091E6
:101BF000260101969093260180932501E0D5882344
:101C000051F084E1ECEEF0E0A3E1B1E001900D923F
:101C10008A95E1F701C079D680E055D5409123013E
:101C20005091240180912501909126019A012C5F09
:101C30003F4FBC016C5F7F4F01971DCF833009F090
:101C40001BCF81E040D5CE01019620E030E0582F37
:101C5000492FD901A15EBE4FFC0164E07D917083E4
:101C6000615034966111FACF245031090196203F1A
:101C70006FEF360771F784E1E3E1F1E0ACEEB0E03D
:101C800001900D928A95E1F780E1E52FF42FA3E111
:101C9000B1E001900D928A95E1F791D5882351F03A
:101CA00084E1ECEEF0E0A3E1B1E001900D928A95C1
:101CB000E1F707C081E049D4E7D5882311F080E03F
:101CC00044D480E000D540912301509124018091BB
:101CD0002501909126019A012C5F3F4FBC016C5F5A
:101CE0007F4FC9CE8F929F92AF92BF92CF92DF92D9
:101CF000EF92FF92CF93DF93EC01688179818A8123
:101D00009B81611571058105910521F464E279EDEE
:101D10008BE597E02DE133EF41E050E0CAD0490177
:101D20005A0127EA31E440E050E0AAD06B017C017F
:101D30002CEE34EF4FEF5FEFC501B401A1D0DC0111
:101D4000CB018C0D9D1DAE1DBF1DB7FF03C00197BC
:101D5000A109B04888839983AA83BB83BC01CD01C4
:101D60009F77DF91CF91FF90EF90DF90CF90BF9062
:101D7000AF909F908F9008958F929F92AF92BF9255
:101D8000CF92DF92EF92FF926091640070916500B4
:101D9000809166009091670061157105810591053C
:101DA00021F464E279ED8BE597E02DE133EF41E03A
:101DB00050E07FD049015A0127EA31E440E050E089
:101DC0005FD06B017C012CEE34EF4FEF5FEFC5016C
:101DD000B40156D0DC01CB018C0D9D1DAE1DBF1D85
:101DE000B7FF03C00197A109B048809364009093A6
:101DF0006500A0936600B0936700BC01CD019F779A
:101E0000FF90EF90DF90CF90BF90AF909F908F901A
:101E100008956093640070936500809366009093CA
:101E200067000895E199FECF9FBB8EBBE09A99278A
:101E30008DB30895A8E1B0E042E050E013C0262F32
:101E4000E199FECF1CBA9FBB8EBB2DBB0FB6F89499
:101E5000E29AE19A0FBE01960895F1DF272FF0CFA5
:101E6000DC01CB01FC01E199FECF06C0FFBBEEBB5C
:101E7000E09A31960DB20D9241505040B8F7089556
:101E8000EE27FF27AA27BB2708C0A20FB31FE41F16
:101E9000F51F220F331F441F551F96958795779581
:101EA000679598F37040A9F7009799F7BD01CF01A6
:101EB0000895052E97FB16F400940FD057FD05D01A
:101EC00014D007FC02D046F408C0509540953095D8
:101ED00021953F4F4F4F5F4F089590958095709596
:101EE00061957F4F8F4F9F4F0895A1E21A2EAA1B35
:101EF000BB1BFD010DC0AA1FBB1FEE1FFF1FA217BA
:101F0000B307E407F50720F0A21BB30BE40BF50BB6
:101F1000661F771F881F991F1A9469F7609570953F
:101F2000809590959B01AC01BD01CF0108950024DF
:101F300080FD060E660F11F08695D1F7802D08956D
:101F40000024552704C0080E591F880F991F0097B9
:101F500029F076956795B8F37105B9F7802D952F1F
:101F6000089597FB072E16F4009406D077FD08D04D
:101F70000BD007FC05D03EF4909581959F4F0895B6
:101F8000709561957F4F0895AA1BBB1B51E107C057
:101F9000AA1FBB1FA617B70710F0A61BB70B881FF9
:101FA000991F5A95A9F780959095BC01CD01089588
:041FB000F894FFCFD3
:101FB4006C026C0201000000544554524953004124
:101FC4007474696E7900417263616465004D4F44B5
:101FD400450048415244004E4F524D414C00474841
:101FE4004F5354004F4E004F464600474F4C440059
:00000001FF
