:1000000043C231CA5DCA5BC25AC2E3C958C257C2B1
:1000100056C255C254C253C252C251C250C28800C5
:100020002280082002882280082002882200F8000E
:100030003E800FE003F83E800FE003F83E0001022F
:10004000030304050606070808000101020304046F
:100050000506070800000000000000000000003F47
:100060000000000000000000000C0C006030180CC4
:10007000060301003E63737B6F673E000C0E0C0CA1
:100080000C0C3F001E33301C06333F001E33301C67
:1000900030331E00383C36337F3078003F031F304A
:1000A00030331E001C06031F33331E003F3330184D
:1000B0000C0C0C001E33331E33331E001E33333E34
:1000C00030180E000C1E33333F3333003F66663E5C
:1000D00066663F003C66030303663C001F366666A7
:1000E00066361F007F46161E16467F007F46161E88
:1000F00016060F003C66030373667C003333333F00
:10010000333333001E0C0C0C0C0C1E0078303030D6
:1001100033331E006766361E366667000F06060616
:1001200046667F0063777F7F6B63630063676F7BE7
:10013000736363001C36636363361C003F66663E70
:1001400006060F001E3333333B1E38003F66663E03
:10015000366667001E33070E38331E003F2D0C0C29
:100160000C0C1E003333333333333F00333333331C
:10017000331E0C006363636B7F7763006363361C1D
:100180001C3663003333331E0C0C1E007F633118A2
:100190004C667F0000001E303E336E000706063EB0
:1001A00066663B0000001E3303331E003830303ECD
:1001B00033336E0000001E333F031E001C36060F53
:1001C00006060F0000006E33333E301F0706366E02
:1001D000666667000C000E0C0C0C1E003000303000
:1001E0003033331E070666361E3667000E0C0C0CC5
:1001F0000C0C1E000000337F7F6B630000001F3378
:100200003333330000001E3333331E0000003B66DF
:10021000663E060F00006E33333E307800003B6EC2
:1002200066060F0000003E031E301F00080C3E0C47
:100230000C2C18000000333333336E0000003333CE
:10024000331E0C000000636B7F7F360000006336B6
:100250001C36630000003333333E301F00003F196B
:100260000C263F0077770000707770007000707781
:1002700070077007700700EE7077000E7007EE00D1
:10028000F0023C03EC038001B40380014D038001C4
:10029000F002BE004D03BE00B4038001EC038001F8
:1002A000670428030000280067046C01B403800180
:1002B000F0023C034D038001B4038001EC032803EA
:1002C00000002800EC037C01B40380014D033C03D3
:1002D000F0023C03B4033C03670400030000280061
:1002E00067048C064D031E03000028004D036201C5
:1002F000C602800132023C0378028001C6028001FE
:10030000F002280300002800F0026C01B403800111
:10031000F0023C034D038001B4038001EC03280389
:1003200000002800EC037C01B40380014D033C0372
:10033000F0023C03B4033C036704EC0200000E002F
:1003400000001A006704A006010101018181C1E1DA
:10035000F1F10111F1F1E1C1C1818101010101015D
:10036000010101010101010101010101FCFCFEFF8C
:10037000FFFFFFFFFFFFFF00FFFFFFFFFFFFFFFF8C
:10038000FFFEF80000000000000000000000000078
:10039000FFFF7F3FBF9FCFEFE7F7FBE001FBF3F7E6
:1003A000E7EFCFDFDFBFBF3000000000000000003C
:1003B0000000000000FEFFFFFFFFFFFFFFFFFFFF49
:1003C000003FFFFFFFFFFFFFFFFFFFFFE006FEFC18
:1003D000FCFCF8F8F0F0E00000FFFF7F7F3FBF9FDC
:1003E000DFCFEFEFE400F7E7EFEFCFDFDF9FBFBF37
:1003F0003F00077FFFFFFFFFFFFFFFF000FCFEFE57
:10040000FFFFFFFFFFFFFFFFFF8007FFFFFFFFFF73
:10041000FFFFFFFFFFFFC00E3E1E1C1D0D09030363
:100420000007FFFFFFFFFFFFFFFFFF7F7F3F003F52
:100430003F7F7F7F7F7FFFFFFFFFFF800000000087
:10044000000000008080838383898D8D8C8E8E8E4A
:100450008F8F9F8F8F8F8F8786868282828080800A
:1004600080808080808080800000000036004444CE
:10047000C04460446006C006400E600C02020202E6
:10048000020201020408102011241FBECFE5D2E0B1
:10049000DEBFCDBF10E0A0E6B0E0ECECFEE102C0B4
:1004A00005900D92AC39B107D9F721E0ACE9B0E085
:1004B00001C01D92A034B207E1F715D805CDA0CD3B
:1004C000EF92FF921F93CF93DF938150282F30E05C
:1004D000220F331F22593B4F66E171E090E0C1E0EB
:1004E000D0E081E014E0190FDB01F901E590F49010
:1004F000AE01092E02C0440F551F0A94E2F74E21A7
:100500005F21092E02C0569547950A94E2F74130C3
:100510005105D9F48C939F5F11969113E6CF6C5FD0
:100520007F4F9031F9F683E190E09093270180931B
:10053000260183E090E09093290180932801DF91C8
:10054000CF911F91FF90EF9008951C92E4CF3FB799
:10055000F8948091120190911301A0911401B0912F
:10056000150122B708B601FE05C02F3F19F001960C
:10057000A11DB11D3FBFBA2FA92F982F8827BC01FD
:10058000CD01620F711D811D911D43E0660F771F24
:10059000881F991F4A95D1F70895CF92DF92EF9265
:1005A000FF92CF93DF936B017C01D1DFEB01C1148C
:1005B000D104E104F10441F412C081E0C81AD10869
:1005C000E108F108C851DC4FC2DF6C1B7D0B683EAF
:1005D000734068F3C114D104E104F10471F7DF91B1
:1005E000CF91FF90EF90DF90CF9008950F931F93DE
:1005F000CF93DF93262FE0E0683020F0603158F190
:100600002F50E2E0A82FB0E0F0E0CD0163E070E011
:1006100023DC86549F4FEC01CE0FDF1FC881022FD1
:1006200010E0CD0163E070E017DC86549F4FE80FC7
:10063000F91F442399F061E070E0CB0102C0880FFC
:10064000991F2A95E2F79C012C2B2083DF91CF91F3
:100650001F910F9108952850E1E0D4CF67E070E03A
:10066000601B710B4FE750E002C0559547956A95A6
:10067000E2F76EEF70E001C0660F2A95EAF7462BAD
:100680004C234083E3CFBF92CF92DF92EF92FF9251
:100690000F931F93CF93DF93C82E0CE211E0C0E0BD
:1006A0007801D0E0F70181917F01813069F4D09029
:1006B0003C01B0903D016D2F6D0D80913E018C0F7E
:1006C000C11014C041E092DFDF5FD43059F7CF5F33
:1006D0000C5F1F4FC43021F7DF91CF911F910F9115
:1006E000FF90EF90DF90CF90BF90089540E07EDFC5
:1006F000D0922A01B0922B01E7CF462F90E0262F0F
:1007000030E06830C0F463E070E0A6DB86549F4FB1
:10071000FC01808190E021E030E0042E02C0220F35
:10072000331F0A94E2F78223932302C0959587959D
:100730004A95E2F708956031D0F02F50310963E017
:1007400070E08ADB86549F4FFC01828190E041E09B
:1007500050E0022E02C0440F551F0A94E2F7842392
:10076000952302C0959587952A95E2F7089528501C
:10077000310963E070E070DB86549F4FFC0181819A
:10078000E5CF0F931F93CF93DF93262FE0E06830E0
:1007900020F0603158F12F50E2E0A82FB0E0F0E0F7
:1007A000CD0163E070E058DB84569F4FEC01CE0F23
:1007B000DF1FC881022F10E0CD0163E070E04CDB49
:1007C00084569F4FE80FF91F442399F061E070E0D1
:1007D000CB0102C0880F991F2A95E2F79C012C2BB0
:1007E0002083DF91CF911F910F9108952850E1E070
:1007F000D4CF67E070E0601B710B4FE750E002C0A0
:10080000559547956A95E2F76EEF70E001C0660F67
:100810002A95EAF7462B4C234083E3CFDF92EF92F1
:10082000FF920F931F93CF93DF93D82E06E111E031
:10083000C0E07801D0E0F70181917F01813051F46F
:10084000609126016D0F809128018C0F41E0D1103D
:1008500040E097DFDF5FD43071F7CF5F0C5F1F4F51
:10086000C43039F7DF91CF911F910F91FF90EF9036
:10087000DF900895462F90E0262F30E06830C0F4D6
:1008800063E070E0E9DA84569F4FFC01808190E0DC
:1008900021E030E0042E02C0220F331F0A94E2F759
:1008A0008223932302C0959587954A95E2F7089590
:1008B0006031D0F02F50310963E070E0CDDA84561A
:1008C0009F4FFC01828190E041E050E0022E02C087
:1008D000440F551F0A94E2F78423952302C095958F
:1008E00087952A95E2F708952850310963E070E072
:1008F000B3DA84569F4FFC018181E5CF5F926F92FE
:100900007F928F929F92AF92BF92CF92DF92EF929F
:10091000FF920F931F93CF93DF93C0902801D09045
:1009200029018090260190902701E601360183E09D
:10093000680E711C540193E0A90EB11C5C2EEC2EC4
:10094000EC186C167D064CF18401F12CEE0CFF1CAA
:10095000EE0CFF1CC7018A5E9E4F7C01E02FE81958
:10096000A016B106C4F0EE0DFF2DF11D8081882385
:1009700079F0D7FD23C0CA30D10514F517FD20C08A
:10098000083111052CF4602F852D74DF811118C0FA
:100990000F5F1F4FE3CF2196D1CF80E0DF91CF9142
:1009A0001F910F91FF90EF90DF90CF90BF90AF908D
:1009B0009F908F907F906F905F90089582E0EECF30
:1009C00081E0ECCFCF93DF93C0912601D091270136
:1009D000C330D105ACF1CE010297909327018093EB
:1009E00026018CDF2091260130912701811107C05B
:1009F000215031093093270120932601F2CF80E165
:100A0000E6E1F1E0ACE2B1E001900D928A95E1F708
:100A10002F5F3F4F30933D0120933C01809128018F
:100A20009091290190933F0180933E01DD27D0935F
:100A30002701C0932601229781E02C173D070CF077
:100A400080E0DF91CF91089581E01DDEBBDF882338
:100A500011F080E018CE089584E1E6E1F1E0AAEE1D
:100A6000B0E001900D928A95E1F780912801909174
:100A70002901019790932901809328013FDF882362
:100A800051F084E1EAEEF0E0A6E1B1E001900D92D0
:100A90008A95E1F70895D8CF30E020E090E0AC01EE
:100AA000022E01C0440F0A94EAF747FF0CC0C39A14
:100AB000C49AC4982F5F3F4F2830310581F7C39AFD
:100AC000C49AC4980895C398F3CFC498C398C49A9D
:100AD000C39A0895C49AC39AC398C4980895CF93AB
:100AE000DF93C82FD62FF6DF88E7D6DF80E0D4DF8C
:100AF00080EB8D0FD1DF8C2F82958F708061CCDFE2
:100B00008C2F8E708160C8DFDF91CF91DECF68308F
:100B100008F4E5CF0895DEDF88E7BEDF80E4BCCFD0
:100B2000CF9360E080E0DBDFF6DF8FEFB5DFCDE76E
:100B300081E0B2DFC150E1F78FEFAEDFC6DFC1E089
:100B40006C2F80E0E4DFE7DF8FEFA6DFBEDF6C2FE6
:100B50008FE7DDDFE0DF8FEF9FDFB7DFCF5FC730ED
:100B600079F767E080E0BBDFD6DF8FEF95DFCDE779
:100B700080E892DFC150E1F78FEF8EDFCF91A5CFF4
:100B80007F928F929F92AF92BF92CF92DF92EF921D
:100B9000FF920F931F93CF93DF9300D000D000D02C
:100BA000CDB7DEB7FC014B01742EE22E2AE030E017
:100BB000B90163D98E83CB01B9015FD98D83CF0190
:100BC00064E670E05AD9CB01B90157D98C83CF01C3
:100BD00068EE73E052D9CB01B9014FD98B83CF01B5
:100BE00060E177E24AD96A831982F82C540185E0E2
:100BF000A80EB11C0F2D10E0A016B10644F16F2D08
:100C0000872D85DF88DF97E0C92ED12C08191909B7
:100C1000A1E0B0E0AC0FBD1F0A0F1B1F80E0E11088
:100C20000EC0D801EC91F0E0349683E0EE0FFF1F88
:100C30008A95E1F7EC0DFD1DEC5AFF4F84912CDFF6
:100C4000B1E0CB1AD10850F740DFF394D3CF26960A
:100C50000FB6F894DEBF0FBECDBFDF91CF911F91CD
:100C60000F91FF90EF90DF90CF90BF90AF909F904B
:100C70008F907F9008952F923F924F925F926F9244
:100C80007F928F929F92AF92BF92CF92DF92EF921C
:100C9000FF920F931F93CF93DF93CDB7DEB72D97BE
:100CA0000FB6F894DEBF0FBECDBF1A01402E69010A
:100CB00024E1C216D1041CF023E1C22ED12CFC0188
:100CC00097FF02C0F0E0E0E0E75BFF4F349139832B
:100CD000FB016B30710514F0EAE0F0E0E25CFF4FDD
:100CE00044914D83822D37FC80E0782E66E0ABD8AE
:100CF000582E8980880C59815C87B12CA12C852FB6
:100D000090E0FC01EE52FF4FFB87EA87FD812C85C6
:100D10002F1708F0B4C0622E6394EC84243030F0B6
:100D2000E22EE394E394273008F4E62C6C85852DBD
:100D3000EEDEF1DE121413040CF472C08FEFACDEA1
:100D400010E0882D90E0FC01E25DFF4FFA83E9831B
:100D5000FF24F394FE0C9C012F5F3F4FA901425DDD
:100D60005F4F5C834B83F901E25EFF4FFF83EE83AD
:100D70009C01225E3F4F398728871C151D040CF00B
:100D80005DC0912C3C8501E0332321F000E8373031
:100D900009F000E0612F8E2D6DDD882309F44CC031
:100DA000E981FA81F491F02BFD87612F8F2D62DDAF
:100DB000882331F0EB81FC818491FD85F82BFD8740
:100DC00080910B01882311F1612F8E2D96DC8823F1
:100DD00061F0892D8B7FE981FA81882311F0E88504
:100DE000F9858491FD85F82BFD87612F8F2D85DC9A
:100DF000882361F0892D8B7FEB81FC81882311F0A2
:100E0000EE81FF818491FD85F82BFD878D8544DE81
:100E1000939425E09212B6CF802F3EDE1F5FADCFB8
:100E20003C8581E0332329F04C8580E8473009F088
:100E300080E032DE172D85CF0D87B7CF411017C068
:100E40003C853630A0F04A855B854A0D5B1D5A8390
:100E5000498318E0E981FA8180811EDE11502981E1
:100E60003A812E5F3F4F3A8329831111F3CF2DDE54
:100E70003FEFA31AB30A839483946C8647CF2D96D1
:100E80000FB6F894DEBF0FBECDBFDF91CF911F919B
:100E90000F91FF90EF90DF90CF90BF90AF909F9019
:100EA0008F907F906F905F904F903F902F9008951C
:100EB000EF92FF920F93CF93DF93EC017B0101E060
:100EC000DADE40913C0150913D0180912A019091E0
:100ED0002B019C012C5F3F4F481759072CF09A01BA
:100EE0002C5F3F4F01E0AC01B701CE01C4DEDF91C2
:100EF000CF910F91FF90EF900895CF93C82FEADD27
:100F000088E7CADD80E0C8DD8C2FC6DDCF91DDCD5E
:100F1000CF93DF93C0EB8C2FF0DF80E0EEDF80E13A
:100F2000ECDFF9DDD0E080E0B7DDDF5FD038D9F766
:100F3000CCDDCF5FC83B79F7DF91CF910895BB9AA5
:100F4000BC9A8EEADADF80E0D8DF80E1D6DF80E489
:100F5000D4DF81E8D2DF8FECD0DF81EACEDF88EC0E
:100F6000CCDF86EACADF88EAC8DF8FE3C6DF83ED1D
:100F7000C4DF80E0C2DF85EDC0DF80E8BEDF89ED41
:100F8000BCDF81EFBADF8AEDB8DF82E1B6DF8BED3F
:100F9000B4DF80E4B2DF80E2B0DF82E0AEDF8DE874
:100FA000ACDF84E1AADF84EAA8DF86EAA6DF8FEA65
:100FB000A4CFBF92CF92DF92EF92FF920F931F9335
:100FC000CF93DF93082FB62E7A0110E0612F600FC8
:100FD000F701E10FF11D8081882349F1C0E08032E3
:100FE00051F0C4EDC80FC03130F0CDECC80FC9329C
:100FF00010F0C7ECC80F8B2D8ADD8DDDD0E083E0CB
:10100000CC0FDD1F8A95E1F7D12CC12CC55ADF4FDB
:10101000FE01EC19FD0984913FDD8FEFC81AD80A53
:1010200088E0C816D104A1F750DD1F5FCFCFDF9154
:10103000CF911F910F91FF90EF90DF90CF90BF90D5
:10104000089580910701811115C081E087B987B1AA
:1010500087B9369A3699FECF94B185B189279827FA
:1010600089279C01215233402633310520F481E049
:101070008093070108959C0128553340223731059C
:1010800010F482E0F5CF8B5C9340C69798F783E02D
:10109000EFCF90B79F7D90BF811105C08FB7F894B7
:1010A000C1988FBF08958FB7F894C19AFACFCF92A5
:1010B000DF92EF92FF920F931F93CF93DF937C0108
:1010C0006B0110E000E081E0E4DFD0E0C0E0CC158F
:1010D000DD0519F000002196FACF80E0DADF90E01C
:1010E00080E0C817D90719F000000196FACF0F5F0A
:1010F0001F4FE016F1063CF7DF91CF911F910F9142
:10110000FF90EF90DF90CF90089590E0FC01EE57B4
:10111000FB4F2491FC01E458FB4FE491EE2371F066
:10112000F0E0EE0FFF1FE859FB4FA591B491EC9151
:10113000E22381E090E021F480E0089580E090E0F7
:1011400008950F93CF93DF93C82F6CEB73E084E186
:1011500090E0ADDFE8EDF0E080E1DF011D928A95DF
:10116000E9F78FEF8C0FF1F4DF01E4E6F2E0849110
:1011700014968C931497849115968C9315971296C8
:1011800020E0A03EB20799F700E023E130E050E014
:1011900040E06AE070E090E080E06DDDDF91CF91AB
:1011A0000F91089590E0880F991F880F991FBC0137
:1011B0006C597D4FAC014B595D4FA8EDB0E0ED018E
:1011C000FB0124912883FA01249129832296F0E0DF
:1011D000CE3DDF07A9F7AC014A595D4F89599D4FB4
:1011E000FA01249118962C931897FC0124911996D2
:1011F0002C9319971296F0E0AE3DBF0789F7C4CF44
:10120000FF920F931F93CF93DF9380E1E6E1F1E02C
:10121000AAEEB0E001900D928A95E1F7C091260107
:10122000D0912701D093FB00C093FA008091280150
:10123000909129019093FD008093FC00CE010197CD
:10124000909327018093260159DB882309F499C0E4
:10125000D0932701C093260180E0E0DAC0E0D0E01F
:1012600010E001E06C2F812F05DB811101C000E04F
:101270001F5F1A30B9F70023F1F1DF5F60E273E01E
:101280008EE190E014DF68E572E08EE190E00FDF20
:1012900060E971E08EE190E00ADF10E040E06C2F41
:1012A000812F6FDA1F5F1A30C9F74C2F50E09A0177
:1012B0002F5F3F4F69E070E090E080E0F9DD6EE184
:1012C00070E080E090E069D910E00C2F073178F4ED
:1012D000FF24F394F00E6F2D812FCCDA41E08111C1
:1012E00001C040E0602F812F4CDA0F2DEFCF1F5F40
:1012F0001A3059F7C150CF5FC83109F0B1CF809192
:101300000401909105018D0F911D9093050180932B
:1013100004018091080190910901D23009F449C07B
:10132000E8F58896D13009F43FC000E023E130E0D1
:1013300050E040E06AE070E090E080E09CDC20E07B
:1013400045E750E070E060E080910801909109016C
:1013500017DCC09106018C2FB3D8D0DA882379F13D
:1013600081E080930A0193D427E030E040E050E030
:101370002CD5DC01CB010196A11DB11D8093060186
:10138000E0DE81E080D91EDB882311F080E07BD98C
:10139000DF91CF911F910F91FF900895D33061F0AD
:1013A000805E9C4FD43009F6909309018093080128
:1013B000BCCF8C599F4FF8CF845D9E4FF5CF8C2FBB
:1013C0007FD881E060D9FEDA882369F280E05BD9BA
:1013D000CACF1F920F920FB60F9211242F933F93F3
:1013E0008F939F93AF93BF9380910E0190910F01C4
:1013F000A0911001B091110130910D0126E0230F51
:101400002D3768F129E8230F0396A11DB11D209304
:101410000D0180930E0190930F01A0931001B093E2
:1014200011018091120190911301A0911401B091CA
:1014300015010196A11DB11D809312019093130116
:10144000A0931401B0931501BF91AF919F918F911B
:101450003F912F910F900FBE0F901F9018950296FD
:10146000A11DB11DD4CF1F920F920FB60F92112460
:101470002F933F934F935F936F937F938F939F939C
:10148000AF93BF93EF93FF938091E8009091E900B1
:10149000892B29F0E091E800F091E9000995FF918E
:1014A000EF91BF91AF919F918F917F916F915F91DC
:1014B0004F913F912F910F900FBE0F901F90189555
:1014C0001F920F920FB60F9211248F9380910701F4
:1014D000811103C084E0809307018F910F900FBEAC
:1014E0000F901F901895CF93DF93CDB7DEB760971D
:1014F0000FB6F894DEBF0FBECDBF80E886BD91E089
:1015000096BD83E08ABD83BF789489B7826089BF26
:1015100080E48CBD8FEF8DBD87EC80BF86E886B9F7
:1015200082E087BB95BB8BB780628BBF83E090E086
:101530000DD48C010F5F1F4F009721F0BC0190E08C
:1015400080E0F3D3B801772783E090E012D4789459
:10155000F6DC07E0802E912CA12CB12C86E9282EF8
:10156000312CEDDCD5DCDCDA44E650E060E481E0EF
:1015700020DD4BE650E060E381E01BDD42E750E018
:1015800068E281E016DDCCDA10E000E0712C672D16
:101590008EE4BDDAC0DAD12CC12C9801285B3C4F17
:1015A0007901F701EC0DFD1D849176DA3FEFC31A46
:1015B000D30A84E2C816D104A1F787DA73940C5DCC
:1015C0001F4F98E07912E3CF8FB7F894C0900E01C7
:1015D000D0900F01E0901001F09011018FBF80E0DA
:1015E00094DD019709F09FC02FB7F89480910E0108
:1015F00090910F01A0911001B09111012FBF8C1992
:101600009D09AE09BF09813D9740A105B1053CF395
:101610006CEB73E084E190E04ADD82E076DD0197D7
:1016200009F06CC049E750E068E082E0C2DC8091DC
:101630000C01811108C081E080930C014EE750E05D
:1016400060E182E006C010920C0143E850E060E1E6
:1016500081E0AFDC11E080E058DD0197E1F311118A
:10166000ABC247E950E065E182E0A3DC80910B0169
:1016700012E3C12E811102C0B9E1CB2E00E812E0C5
:10168000D12CF801329665917491F801E590F490AF
:10169000072E000C880B990B1E141F040CF045C07C
:1016A00028EE33E040E050E077D32B013C01C70146
:1016B000880F991F9C0124503109092E000CAA0B98
:1016C000BB0B40E050E0BA014415550566057705AF
:1016D0006CF5C19AE3E0EE16F10418F0F9013197C8
:1016E000F1F7C198E3E0EE16F10418F0F901319733
:1016F000F1F7480F591F6A1F7B1FE6CF4AE850E0F9
:1017000060E181E056DC80910B01811107C081E02E
:1017100080930B0140E950E068E093CF10920B01F9
:1017200043E950E0F9CF10E096CF37D7D3940C5F60
:101730001F4FCD10A6CFECDB10920A0110920901C9
:10174000109208011092070110E000E040E0612FC4
:10175000802F17D80F5F0A30C9F71F5F1831A9F71C
:1017600010E000E040E0612F802F40D70F5F0A308B
:10177000C9F71F5F1831A9F78FB7F89421E238E055
:101780003093E9002093E8008FBF85B7836085BF61
:101790008BB780648BBF7BD2A501940116D381E007
:1017A000860F8ED680E03AD80DD9882311F080E0DC
:1017B0006AD780E068D76BD2A501940106D3DC011B
:1017C000CB010196A11DB11D80930601BADC809169
:1017D0000C01882391F014E681E020D811DD57D266
:1017E000A5019401F2D264307105810591050CF0D8
:1017F00033D980E013D8115079F781E090E09093CD
:1018000005018093040100E023E130E050E040E076
:101810006AE070E090E080E02EDA20E045E750E0FA
:1018200070E060E08091080190910901A9D9709061
:101830000A01711049C181E0F1D7E2DC80E0EED706
:1018400068E372E084E190E032DC4091260150913F
:10185000270180912801909129019A012B5F3F4F28
:10186000BC016C5F7F4F24DB2FB7F89480910E0191
:1018700090910F01A0911001B09111012FBF8093A1
:10188000000190930101A0930201B09303018091A4
:10189000040190910501880F991F880F991F8935C0
:1018A000924024F030920501209204018FB7F89401
:1018B00040910E0150910F01609110017091110142
:1018C0008FBF8091000190910101A0910201B09120
:1018D0000301481B590B6A0B7B0B8091040190910B
:1018E000050126E930E0281B390BC901880F991F33
:1018F000880F991F092E000CAA0BBB0B481759071C
:101900006A077B0708F093CF80E0FFDB892BF1F4B7
:101910001091070182E0F9DB892BC1F41130F1F558
:1019200081E07CD799D880E079D740912601509109
:10193000270180912801909129019A012C5F3F4F46
:10194000BC016B5F7F4FB4DA1092070180910701F1
:10195000843009F0B3C080E0D8DB019709F0ACC057
:1019600081E05CD74DDC80E059D740912601509151
:10197000270180912801909129019A012B5F3F4F07
:10198000BC016C5F7F4F94DA6AE070E080E090E029
:1019900004D680910A018823F1F288CF1230A1F594
:1019A00081E03CD784E1E6E1F1E0AAEEB0E001900D
:1019B0000D928A95E1F78091280190912901019675
:1019C000909329018093280199D78823D9F084E145
:1019D000EAEEF0E0A6E1B1E001900D928A95E1F720
:1019E00080E01CD740912601509127018091280169
:1019F000909129019A012C5F3F4FBC016C5F7F4F92
:101A00000197A1CF21D8ECCF133009F09DCF81E011
:101A100005D790E080E09C01220F331F220F331F77
:101A2000A2E2B1E0A21BB30BE1E0F0E0EC0FFD1F7E
:101A3000E80FF91F24E03D913083215034962111A5
:101A4000FACF01968430910531F784E1E6E1F1E0C7
:101A5000AAEEB0E001900D928A95E1F780E1FE01D7
:101A60003196A6E1B1E001900D928A95E1F746D753
:101A70008823D1F084E1EAEEF0E0A6E1B1E0019044
:101A80000D928A95E1F780E0C9D6409126015091E8
:101A9000270180912801909129019A012C5F3F4FE5
:101AA000BC016C5F7F4F4FCF81E0EDD58BD7882392
:101AB00051F380E0E8D5E7CF109207016EE170E0C6
:101AC00080E090E06AD5F2CE23DA90E080E036D173
:101AD000082F10E0102F00271093FF000093FE0046
:101AE00081E090E02BD1082B1093FF000093FE00C3
:101AF0006091080170910901061717070CF07AC070
:101B00007093FF006093FE0081E090E024D160912B
:101B1000090190E080E01FD103D8E0900801F09027
:101B2000090120E040E550E061E070E0C70128D8FD
:101B3000C090FE00D090FF0020E048E250E061E05D
:101B400070E0C6011DD810E000E0B80182E390E02B
:101B5000AEDA0E5C1F4F083E33E01307B1F714E016
:101B600021E040E550E061E070E0C70109D877204E
:101B700039F021E048E250E061E070E0C60100D8B1
:101B800068EC70E080E090E008D520E040E550E0AF
:101B900061E070E0C701F4D7772039F020E048E237
:101BA00050E061E070E0C601EBD768EC70E080E0E7
:101BB00090E0F3D41150A1F668EE73E080E090E07D
:101BC000ECD4A6D98EEA99D9379885B7877E8061FB
:101BD00085BF85B7806285BF85B7806285BF8895E0
:101BE00085B78F7D85BF85B78F7D85BF379A8FEA93
:101BF00084D9B7CC712C90CF8F929F92AF92BF9225
:101C0000CF92DF92EF92FF92CF93DF93EC01688146
:101C100079818A819B81611571058105910521F486
:101C200064E279ED8BE597E02DE133EF41E050E0A0
:101C3000CCD049015A0127EA31E440E050E0ACD071
:101C40006B017C012CEE34EF4FEF5FEFC501B40167
:101C5000A3D0C60ED71EE81EF91EF7FE06C081E00F
:101C6000C81AD108E10880E8F80AC882D982EA8255
:101C7000FB82C701B6019F77DF91CF91FF90EF9074
:101C8000DF90CF90BF90AF909F908F9008958F92EC
:101C90009F92AF92BF92CF92DF92EF92FF926091AC
:101CA0006000709161008091620090916300611505
:101CB00071058105910521F464E279ED8BE597E0EA
:101CC0002DE133EF41E050E080D049015A0127EA8D
:101CD00031E440E050E060D06B017C012CEE34EF49
:101CE0004FEF5FEFC501B40157D0C60ED71EE81EF7
:101CF000F91EF7FE06C081E0C81AD108E10880E8A5
:101D0000F80AC0926000D0926100E0926200F09206
:101D10006300C701B6019F77FF90EF90DF90CF90EF
:101D2000BF90AF909F908F900895609360007093E4
:101D3000610080936200909363000895E199FECF63
:101D40009FBB8EBBE09A99278DB30895A8E1B0E0C0
:101D500042E050E013C0262FE199FECF1CBA9FBB92
:101D60008EBB2DBB0FB6F894E29AE19A0FBE019696
:101D70000895F1DF272FF0CFDC01CB01FC01E199C1
:101D8000FECF06C0FFBBEEBBE09A31960DB20D92BE
:101D900041505040B8F70895EE27FF27AA27BB27E8
:101DA00008C0A20FB31FE41FF51F220F331F441FEB
:101DB000551F969587957795679598F37040A9F785
:101DC000009799F7BD01CF010895052E97FB16F4F2
:101DD00000940FD057FD05D014D007FC02D046F474
:101DE00008C050954095309521953F4F4F4F5F4F1C
:101DF000089590958095709561957F4F8F4F9F4F77
:101E00000895A1E21A2EAA1BBB1BFD010DC0AA1F3B
:101E1000BB1FEE1FFF1FA217B307E407F50720F053
:101E2000A21BB30BE40BF50B661F771F881F991FCE
:101E30001A9469F760957095809590959B01AC0117
:101E4000BD01CF010895002480FD060E660F11F03C
:101E50008695D1F7802D08950024552704C0080EDB
:101E6000591F880F991F009729F076956795B8F349
:101E70007105B9F7802D952F089597FB072E16F45D
:101E8000009406D077FD08D00BD007FC05D03EF4B7
:101E9000909581959F4F0895709561957F4F089516
:101EA000AA1BBB1B51E107C0AA1FBB1FA617B70780
:101EB00010F0A61BB70B881F991F5A95A9F780959C
:0C1EC0009095BC01CD010895F894FFCF6F
:101ECC000100000054455452495300417474696E2A
:101EDC007900417263616465004D4F44450048418F
:101EEC005244004E4F524D414C0047484F53540002
:0C1EFC004F4E004F464600474F4C44003C
:00000001FF
