:10000000D4C0EEC06FC3ECC0EBC022C3E9C0E8C0EF
:10001000E7C0E6C0E5C0E4C0E3C0E2C0E1C0000064
:1000200000000000000808080808000060600000E8
:10003000003C4030403C003E5149453E0000427F7C
:100040004000004261514946002141454B310018B2
:1000500014127F10002745454539003C4A49493074
:10006000000171090503003649494936000649492E
:10007000291E000036360000007C1211127C007F21
:1000800049494936003E41414122007F4141221CFD
:10009000007F49494941007F09090901003E414962
:1000A000497A007F0808087F0000417F4100002056
:1000B00040413F01007F08142241007F4040404002
:1000C000007F020C027F007F0408107F003E414148
:1000D000413E007F09090906003E4151215E007F33
:1000E000091929460046494949310001017F0101AA
:1000F000003F4040403F001F2040201F003F40384D
:10010000403F00631408146300070870080700618B
:1001100051494543002054545478007F48444438A2
:1001200000384444442000384444487F0038545444
:10013000541800087E0901020018A4A4A47C001C25
:10014000A0A0A07C0000447D4000004080847D0091
:10015000007F102844000000417F4000007C04180C
:100160000478007C0804047800384444443800FCD7
:10017000242424180018242418FC007C08040408F3
:1001800000485454542000043F444020003C404068
:10019000207C001C2040201C0000000036000202D1
:1001A0000202020201020408102011241FBECFE542
:1001B000D2E0DEBFCDBF11E0A0E6B0E0E4E3FAE1BB
:1001C00002C005900D92A236B107D9F721E0A2E650
:1001D000B1E001C01D92AD37B207E1F78DD228CC56
:1001E0000FCF3FB7F8948091790190917A01A09157
:1001F0007B01B0917C0122B708B601FE05C02F3FFC
:1002000019F00196A11DB11D3FBFBA2FA92F982F3C
:100210008827BC01CD01620F711D811D911D43E036
:10022000660F771F881F991F4A95D1F70895CF92BF
:10023000DF92EF92FF92CF93DF936B017C01D1DFCE
:10024000EB01C114D104E104F10441F412C081E0D6
:10025000C81AD108E108F108C851DC4FC2DF6C1B95
:100260007D0B683E734068F3C114D104E104F104CE
:1002700071F7DF91CF91FF90EF90DF90CF900895CD
:1002800030E020E090E0AC01022E01C0440F0A945F
:10029000EAF747FF0CC0C39AC49AC4982F5F3F4F38
:1002A0002830310581F7C39AC49AC4980895C39839
:1002B000F3CF80E0E5DF80E0E3DF80E0E1DF80E0B6
:1002C000DFDF80E0DDDF80E0DBDF80E0D9DF80E0C2
:1002D000D7CFC498C398C49AC39A0895C49AC39AAE
:1002E000C398C4980895CF93DF93C82FD62FF6DF15
:1002F00088E7C6DF80E0C4DF80EB8D0FC1DF8C2F85
:1003000082958F708061BCDF8C2F8E708160B8DF2A
:10031000DF91CF91DECF683008F4E5CF0895DEDFBE
:1003200088E7AEDF80E4ACCF1F93CF93DF93182F25
:10033000EB0177FD279683E0D595C7958A95E1F780
:1003400067707727672BB1F06C2F812FE4DFE7DF31
:1003500080E096DF80E094DFBCDF6C2F6F5F812F41
:10036000DADFDDDF80E08CDF80E08ADFDF91CF91B4
:100370001F91AFCF6C2FF3CFAF92BF92CF92DF928E
:10038000EF92FF920F931F93CF93DF93D82FE62E18
:100390006A01F12CF601EF0DF11D8081882369F1CE
:1003A000C0E0803251F0C4EDC80FC03130F0CEEC67
:1003B000C80FC93210F0C8ECC80FDF3710F0E39453
:1003C000D0E06E2D8D2FA7DFAADF8C2F90E066E0A6
:1003D00070E0D2D910E000E0825E9F4F5C01F50131
:1003E000E00FF11F84914CDF0F5F1F4F06301105A6
:1003F000B1F76FDFDA5FF394CDCFDF91CF911F912B
:100400000F91FF90EF90DF90CF90BF90AF90089545
:10041000CF93C82F63DF88E733DF80E031DF8C2F95
:100420002FDFCF9156CFCF93DF93C0EB8C2FF0DF30
:1004300080E0EEDF80E1ECDF72DFD0E080E020DF03
:10044000DF5FD038D9F745DFCF5FC83B79F7DF9161
:10045000CF910895BB9ABC9A8EEADADF80E0D8DFAC
:1004600080E1D6DF80E4D4DF81E8D2DF8FECD0DF1B
:1004700081EACEDF88ECCCDF86EACADF88EAC8DF13
:100480008FE3C6DF83EDC4DF80E0C2DF85EDC0DF30
:1004900080E8BEDF89EDBCDF81EFBADF8AEDB8DF2F
:1004A00082E1B6DF8BEDB4DF80E4B2DF80E2B0DF63
:1004B00082E0AEDF8DE8ACDF84E1AADF84EAA8DF6A
:1004C00086EAA6DF8FEAA4CF90B79F7D90BF811107
:1004D00005C08FB7F894C1988FBF08958FB7F8946F
:1004E000C19AFACFCF92DF92EF92FF920F931F93B0
:1004F000CF93DF932091730121111DC06B017C010B
:1005000010E000E081E0E0DFD0E0C0E0CC16DD06E6
:1005100019F000002196FACF80E0D6DF90E080E06D
:10052000C817D90719F000000196FACF0F5F1F4FC7
:10053000E016F1063CF7DF91CF911F910F91FF90EC
:10054000EF90DF90CF90089590E0FC01EC55FE4FC6
:100550002491FC01E256FE4FE491EE2371F0F0E0AD
:10056000EE0FFF1FE856FE4FA591B491EC91E223E8
:1005700081E090E021F480E0089580E090E008952B
:1005800096C8EF92FF920F931F93CF93DF93CDB74F
:10059000DEB72A970FB6F894DEBF0FBECDBFF82E98
:1005A000E62ECA018E010F5F1F4F2AE0F80111925B
:1005B0002A95E9F74AE0B8013FD8A8016E2D8F2DA2
:1005C000DBDE2A960FB6F894DEBF0FBECDBFDF91FB
:1005D000CF911F910F91FF90EF90089524DF4EE689
:1005E00050E063E080E1C8DE43E050E065E070E0A9
:1005F0008CE390E0C6DF68EE73E080E090E017DE09
:1006000042E050E065E070E08CE390E0BADF68EE35
:1006100073E080E090E00BDE41E050E065E070E0E8
:100620008CE390E0AEDF68EE73E080E090E0FFDD09
:10063000FADE60E273E08EE190E054DF68E572E09C
:100640008EE190E04FDF60E971E08EE190E04ACF0B
:100650001F920F920FB60F9211242F933F938F93F7
:100660009F93AF93BF938091750190917601A09174
:100670007701B09178013091740126E0230F2D3776
:1006800068F129E8230F0396A11DB11D2093740181
:100690008093750190937601A0937701B0937801D0
:1006A0008091790190917A01A0917B01B0917C01B8
:1006B0000196A11DB11D8093790190937A01A093B9
:1006C0007B01B0937C01BF91AF919F918F913F913E
:1006D0002F910F900FBE0F901F9018950296A11D9D
:1006E000B11DD4CF1F920F920FB60F9211240F900D
:1006F0000FBE0F901F901895CF93DF9300D000D0BE
:1007000000D0CDB7DEB780E886BD91E096BD83E02E
:100710008ABD83BF789489B7826089BF80E48CBD2D
:100720008FEF8DBD87EC80BF86E886B982E087BBFE
:1007300095BB8BB780628BBF789413E0412E512C10
:10074000612C712C87DE6FDE4EE750E061E080E0C7
:1007500013DE43E950E062E080E00EDE48EA50E05C
:1007600064E080E009DE4EE750E065E080E004DE12
:100770004DEB50E067E080E0FFDD8FB7F894C0906C
:100780007501D0907601E0907701F09078018FBFED
:1007900080E0DADE019709F076C22FB7F8948091F5
:1007A000750190917601A0917701B09178012FBFEA
:1007B0008C199D09AE09BF09813D9740A105B1057E
:1007C0003CF360E090E080E0DBDE61E081E090E01F
:1007D000D7DE42ED50E060E080E1CEDD31E03983EC
:1007E00080E0B2DE0197E1F390E080E058D78D839E
:1007F0008093730181E090E052D790E09093720172
:10080000809371018D81823030F01092730160E02D
:1008100090E080E0B5DE80917101909172018130AD
:10082000910559F00397029740F081E090E0909392
:1008300072018093710161E0A3DE9981913009F426
:1008400040C66CED75E080E090E0F1DC03DEEBDDAE
:100850001092700110926F0110926E0110926D0152
:1008600010926C01A0E0B2E0B0936900A093680020
:1008700080E890E0909367008093660088EF9FEF98
:1008800090936500809364008CEF9FEF90936300DA
:100890008093620080E490E090936B0180936A0102
:1008A000909369018093680190936701809366013A
:1008B000909365018093640110926301109262012C
:1008C0008DDE20E830E03E832D8300E012E0312C05
:1008D000212C80917001811164C5B2E08B2E912C86
:1008E0003FEF231A330A82E02FDE019709F062C03E
:1008F0008FB7F894C0907501D0907601E0907701A1
:10090000F09078018FBF82E01FDE019709F0C4C12B
:100910002FB7F8948091750190917601A09177019D
:10092000B09178012FBF8C199D09AE09BF098D3D8B
:100930009540A105B1053CF3809173018111A5C1DA
:1009400081E08093730143EE50E060E080E214DDCB
:10095000FF24F39482E0F8DD0197E1F331E0F31630
:10096000F1F080917101909172018130910509F04F
:1009700095C183E090E09093720180937101ABE0A8
:10098000B0E0B0936100A09360004DEF50E060E0F4
:1009900084E1F2DC68EE73E080E090E048DC43DD67
:1009A0006091730190E080E0EBDD6091710181E086
:1009B00090E0E6DD80E0C8DD019749F480916A01AE
:1009C00090916B01039790936B0180936A018091E2
:1009D0006A0190916B010196813391050CF086C1FB
:1009E00090936B0180936A0180916A0190916B01F1
:1009F00097FF04C010926B0110926A0180917101FF
:100A0000909172018130910521F00397029708F0CF
:100A10004EC033E023163104ACF1B7D5E09062014B
:100A2000F0906301A2E0EA1AF10825E030E040E02E
:100A300050E064D66E0D7F1D709363016093620178
:100A40008091600090916100861797073CF49C01AB
:100A5000225031093093630120936201222733270A
:100A6000281B390B409162015091630142175307D3
:100A70003CF49401281B390B3093630120936201ED
:100A8000312C212C809166009091670097FD039690
:100A90009595879595958795089720916201309156
:100AA0006301820F931F9093690180936801809185
:100AB000680190916901C19734F080E390E09093D0
:100AC000690180936801809168019091690197FFA5
:100AD00004C0109269011092680140916600509123
:100AE00067009A0157FF02C02D5F3F4F359527954C
:100AF000359527956091680070916900809162003A
:100B000090916300F901E80FF91FFF971CF4823000
:100B1000910544F4281B390B273031050CF4EDC046
:100B200097FFEBC0840F951F90936700809366003A
:100B30008091640090916500680F791F709369003F
:100B400060936800809166009091670097FD03961E
:100B5000959587959595879577FF02C0695F7F4F3B
:100B600053E0759567955A95E1F7653071050CF07E
:100B7000F3C220916A0130916B01A90141505109E2
:100B80008417950734F04E5E5F4F481759070CF0F5
:100B9000BFC080916C0190916D01019690936D01A1
:100BA00080936C0188E290E09093690080936800E4
:100BB000220F331F220F331F3093670020936600EC
:100BC0008DE090E0909365008093640080916200D6
:100BD00090916300181619060CF097C082E090E01F
:100BE00090936300809362001EDC40916E015091EF
:100BF0006F0164E070E08EE290E0C3DC40916C0134
:100C000050916D0164E070E08EE490E0BADC809178
:100C10006C0190916D0107978CF5F12CE12CB701D7
:100C200082E390E05FDC94E6E90EF11CA8EEEA16A0
:100C3000A3E0FA06A1F793E0E92EF12C4ADB64E089
:100C40008EE451DB6CDB35DB34DB43DB6EE571E0DE
:100C500080E090E0ECDA40916C0150916D0164E02D
:100C600070E08EE490E08DDC6EE571E080E090E075
:100C7000DEDAB1E0EB1AF10809F7B0DC109263019B
:100C80001092620126CE1982ABCD109273014EEE06
:100C900050E060E087E15BCEF12C5CCE83309105C3
:100CA00089F424E030E030937201209371018AE0EE
:100CB00090E090936100809360004CE051E060E030
:100CC00080E167CE049709F065CE81E090E09093D3
:100CD000720180937101ACE0B0E0B0936100A09329
:100CE00060004CE151E060E080E253CE20E330E070
:100CF00030936B0120936A0177CE9195819591098C
:100D0000909363008093620013CF8EEF9FEF68CFC4
:100D1000281739074CF08AEF9FEF90936300809378
:100D2000620087E090E0EFC1A9014D5F5F4F481777
:100D300059070CF4CDC18CEF9FEF90936300809323
:100D400062002AE030E0309365002093640068E59B
:100D500072E084E190E0C6DB60916E0170916F01FA
:100D600080916C0190916D01681B790B77FF02C037
:100D70006F5F7F4F75956795072E000C880B990B59
:100D8000CBD59B01AC0180917101909172010297CA
:100D9000039708F0DAC260E070E080E091E424D5C7
:100DA00088D56230710514F462E070E0072E000C03
:100DB000880B990B3CDA6D817E8177FF02C06D5FF5
:100DC0007F4F7595679575956795C80117FD0796CF
:100DD000E3E095958795EA95E1F7A6DA00916A0137
:100DE00010916B01A0916601B0916701BA83A9834C
:100DF0000A171B0739F19D01B7FF04C0295F3F4F58
:100E00003A83298389819A8153E0959587955A95EC
:100E1000E1F79A838983698180E07DDA80DA80E076
:100E20002FDA57DA69816F5F80E075DA78DA80E06F
:100E300027DA4FDA69816E5F80E06DDA70DA80E080
:100E40001FDA47DA1A83098317FF04C0D8011796FF
:100E5000BA83A98329813A8143E0359527954A953C
:100E6000E1F73A832983B22EB394C801877099279A
:100E70006981892B09F476C280E04DDA50DA28E0E6
:100E8000C22ED12CC801B60188D47C018FEF0E2C64
:100E900001C0880F0A94EAF7F3D91BDA6B2D80E0C2
:100EA0003ADA3DDA8FEFECD914DA69816E5F80E0CF
:100EB00032DA35DACE18DF088EE790E002C0959579
:100EC0008795CA94E2F7DCD904DA1093670100939E
:100ED000660100916801109169018091640190910F
:100EE00065019A8389830817190731F1DC0197FF9F
:100EF00003C01796BA83A98329813A8193E0359577
:100F000027959A95E1F73A83298369818FE703DA78
:100F100006DA80E0B5D9DDD969816F5F8FE7FBD94B
:100F2000FED980E0ADD9D5D969816E5F8FE7F3D95D
:100F3000F6D980E0A5D9CDD91A83098317FF04C05B
:100F4000C80107969A838983A981BA8183E0B59500
:100F5000A7958A95E1F7BA83A983BA2EB394C801FD
:100F6000877099276981892B09F408C28FE7D3D943
:100F7000D6D9F8E0CF2ED12CC801B6010ED47C0111
:100F80008FEF0E2C01C0880F0A94EAF779D9A1D906
:100F90006B2D8FE7C0D9C3D98FEF72D99AD96981E8
:100FA0006E5F8FE7B8D9BBD9CE18DF088EE790E027
:100FB00002C095958795CA94E2F762D98AD91093B1
:100FC00065010093640120916600309167003E83C3
:100FD0002D83590137FF03C033E0A30EB11CB59434
:100FE000A794B594A7940091680010916900ED80D2
:100FF000FE80F7FE03C08FE1E80EF11C75E0F5946A
:10100000E7947A95E1F7680117FF03C097E0C90EEE
:10101000D11C63E0D594C7946A95E1F7C501877048
:1010200099276E2D892B09F4B5C18C2D74D977D9E8
:10103000C50168E070E0B1D3F82ED301C2010F2CD6
:1010400004C0880F991FAA1FBB1F0A94D2F7898377
:101050009A83AB83BC83898113D9898111D939D90A
:1010600061E06E0D8C2D57D95AD988E08F19730124
:10107000620104C0F594E794D794C7948A95D2F797
:101080008C2DFED88C2DFCD824D940916E01509126
:101090006F0170E060E08CE190E073DA40916C01E8
:1010A00050916D0170E060E08CE590E06ADA80912B
:1010B0006E0190916F01079739F080916C019091CA
:1010C0006D01079709F00CCC81E08093700101CC91
:1010D000A9014A5F5F4F481759074CF08EEF9FEF09
:1010E00090936300809362008DE090E00CC0A901B2
:1010F000485F5F4F481759075CF0109263001092E9
:1011000062008EE090E090936500809364001FCEB3
:10111000A901455F5F4F481759072CF09092630073
:1011200080926200E1CF225F3F4F281739076CF0B1
:1011300084E090E09093630080936200AAE0B0E0C6
:10114000B0936500A093640002CE26E030E03093B7
:10115000630020936200E5CD6A3771050CF4FCCD85
:101160002091680130916901A9014150510984170A
:10117000950734F04E5E5F4F481759070CF07CC05E
:10118000E0906E01F0906F018FEFE81AF80AF0928C
:101190006F01E0926E0180EC93E090936900809380
:1011A0006800220F331F220F331F309367002093F4
:1011B000660083EF9FEF90936500809364008091B9
:1011C000620090916300181619060CF052C082E07C
:1011D00090E0909363008093620025D9A70164E0BA
:1011E00070E08EE290E0CDD940916C0150916D019C
:1011F00064E070E08EE490E0C4D980916E0190913B
:101200006F0107970CF065CBF12CE12CB70182E35D
:1012100090E068D994E6E90EF11CA8EEEA16A3E086
:10122000FA06A1F7B3E0EB2EF12C64E08EE25BD876
:1012300076D83FD83ED84DD86EE571E080E090E09A
:10124000F6D740916E0150916F0164E070E08EE23C
:1012500090E097D96EE571E080E090E0E8D7B1E0EA
:10126000EB1AF10811F71092630110926201B6D9DE
:1012700030CB8EEF9FEFADCF281739077CF08AEF88
:101280009FEF909363008093620029EF3FEF3093CC
:101290006500209364006CE271E05BCDA9014D5FB5
:1012A0005F4F481759076CF08CEF9FEF90936300E6
:1012B0008093620086EF9FEF9093650080936400B7
:1012C000EACFA9014A5F5F4F481759076CF08EEFCC
:1012D0009FEF9093630080936200A3EFBFEFB09302
:1012E0006500A0936400D7CFA901485F5F4F4817FE
:1012F00059073CF0109263001092620082EF9FEF5A
:10130000DBCFA901455F5F4F481759073CF090922A
:1013100063008092620023EF3FEFB9CF225F3F4F1F
:10132000281739074CF084E090E090936300809395
:101330006200A6EFBFEFD3CF26E030E0309363002A
:101340002093620089EF9FEFB7CF60E070E080EA02
:1013500091E44AD2AED26A3071050CF027CD6AE032
:1013600070E024CD80E0D7D7DAD78FEF89D7B1D717
:101370006B2D80E0D0D7D3D78FEFA5CD8FE7CBD71C
:10138000CED78FEF7DD7A5D76B2D8FE7C4D7C7D723
:101390008FEF13CE8C2DBFD7C2D783E071D783E0F8
:1013A00072CE6D817E8177FF02C06D5F7F4F759534
:1013B000679575956795C80117FD079643E0959564
:1013C00087954A95E1F7B0D7609166007091670004
:1013D00077FF02C06D5F7F4F75956795759567952F
:1013E000809168009091690097FD079623E095959C
:1013F00087952A95E1F798D720916E0130916F017A
:1014000080916C0190916D0149E251E08217930740
:1014100014F047E351E063E08BE1AED745E451E0DF
:1014200064E08BE1A9D743E551E065E08BE1A4D707
:101430001A82198269817A8182E390E053D8A98166
:10144000BA81D296BA83A983A83EB34099F786E0C1
:1014500090E09A83898360E08CE145D760D729D7F3
:1014600028D737D760E08CE53ED759D722D721D788
:1014700030D76EE571E080E090E0D9D640916E0102
:1014800050916F0170E060E08CE190E07AD840917B
:101490006C0150916D0170E060E08CE590E071D8D6
:1014A0006EE571E080E090E0C2D6A981BA81119723
:1014B000BA83A983AB2B79F66CEA7DE080E090E0FB
:1014C000B6D6B1D78EEAA4D7379885B7877E806124
:1014D00085BF85B7806285BF85B7806285BF8895E7
:1014E00085B78F7D85BF85B78F7D85BF379A8FEA9A
:1014F0008FD728C98F929F92AF92BF92CF92DF92DF
:10150000EF92FF92CF93DF93EC01688179818A811A
:101510009B81611571058105910521F464E279EDE6
:101520008BE597E02DE133EF41E050E0E7D0490152
:101530005A0127EA31E440E050E0C7D06B017C015A
:101540002CEE34EF4FEF5FEFC501B401BED0C60EF5
:10155000D71EE81EF91EF7FE06C081E0C81AD108A2
:10156000E10880E8F80AC882D982EA82FB82C701D2
:10157000B6019F77DF91CF91FF90EF90DF90CF90F2
:10158000BF90AF909F908F9008958F929F92AF924F
:10159000BF92CF92DF92EF92FF9260916A007091BA
:1015A0006B0080916C0090916D0061157105810553
:1015B000910521F464E279ED8BE597E02DE133EFBD
:1015C00041E050E09BD049015A0127EA31E440E074
:1015D00050E07BD06B017C012CEE34EF4FEF5FEFDE
:1015E000C501B40172D0C60ED71EE81EF91EF7FE63
:1015F00006C081E0C81AD108E10880E8F80AC09264
:101600006A00D0926B00E0926C00F0926D00C7010E
:10161000B6019F77FF90EF90DF90CF90BF90AF9093
:101620009F908F90089560936A0070936B008093F1
:101630006C0090936D000895BB274A3031F49923D4
:1016400022F4BDE2909581959F4F01C0BB27FB011D
:101650005527AA27880F991FAA1FA41710F0A41BAB
:1016600083955051B9F7A05DAA3308F0A95DA19305
:10167000009779F7B111B1931192CB0100C0DC0151
:10168000FC01672F71917723E1F7329704C07C91B9
:101690006D9370836291AE17BF07C8F30895E19907
:1016A000FECF9FBB8EBBE09A99278DB30895262F5E
:1016B000E199FECF1CBA9FBB8EBB2DBB0FB6F89431
:1016C000E29AE19A0FBE01960895EE27FF27AA2716
:1016D000BB2708C0A20FB31FE41FF51F220F331F43
:1016E000441F551F969587957795679598F3704099
:1016F000A9F7009799F7BD01CF010895052E97FB33
:1017000016F400940FD057FD05D014D007FC02D07A
:1017100046F408C050954095309521953F4F4F4F66
:101720005F4F089590958095709561957F4F8F4F8D
:101730009F4F0895A1E21A2EAA1BBB1BFD010DC0ED
:10174000AA1FBB1FEE1FFF1FA217B307E407F50771
:1017500020F0A21BB30BE40BF50B661F771F881F4D
:10176000991F1A9469F760957095809590959B01E3
:10177000AC01BD01CF0108950024552704C0080E17
:10178000591F880F991F009729F076956795B8F330
:101790007105B9F7802D952F089597FB072E16F444
:1017A000009406D077FD08D00BD007FC05D03EF49E
:1017B000909581959F4F0895709561957F4F0895FD
:1017C000AA1BBB1B51E107C0AA1FBB1FA617B70767
:1017D00010F0A61BB70B881F991F5A95A9F7809583
:1017E0009095BC01CD0108955058BB27AA270ED073
:1017F000E5C0D6D030F0DBD020F031F49F3F11F4BB
:101800001EF4CBC00EF4E095E7FBC1C0E92FE7D092
:1018100080F3BA17620773078407950718F071F40D
:101820009EF5FFC00EF4E0950B2EBA2FA02D0B01F4
:10183000B90190010C01CA01A0011124FF27591B15
:1018400099F0593F50F4503E68F11A16F040A22F1B
:10185000232F342F4427585FF3CF4695379527958C
:10186000A795F0405395C9F77EF41F16BA0B620B8B
:10187000730B840BBAF09150A1F0FF0FBB1F661FD2
:10188000771F881FC2F70EC0BA0F621F731F841F15
:1018900048F4879577956795B795F7959E3F08F03B
:1018A000B3CF9395880F08F09927EE0F97958795FA
:1018B000089504D06894B111B5C0089598D088F007
:1018C0009F5790F0B92F9927B751A0F0D1F0660F2C
:1018D000771F881F991F1AF0BA95C9F712C0B13047
:1018E00081F09FD0B1E008959CC0672F782F8827A2
:1018F000B85F39F0B93FCCF3869577956795B39586
:10190000D9F73EF490958095709561957F4F8F4FF4
:101910009F4F0895E89409C097FB3EF490958095F9
:10192000709561957F4F8F4F9F4F9923A9F0F92FA5
:1019300096E9BB279395F695879577956795B79523
:10194000F111F8CFFAF4BB0F11F460FF1BC06F5F09
:101950007F4F8F4F9F4F16C0882311F096E911C01B
:10196000772321F09EE8872F762F05C0662371F03C
:1019700096E8862F70E060E02AF09A95660F771F50
:10198000881FDAF7880F9695879597F9089597F944
:101990009F6780E870E060E008959FEF80EC089515
:1019A00000240A941616170618060906089500243E
:1019B0000A9412161306140605060895092E0394B8
:1019C000000C11F4882352F0BB0F40F4BF2B11F42C
:1019D00060FF04C06F5F7F4F8F4F9F4F089557FD8B
:1019E0009058440F551F59F05F3F71F04795880F8D
:1019F00097FB991F61F09F3F79F087950895121624
:101A000013061406551FF2CF4695F1DF08C01616CF
:101A100017061806991FF1CF869571056105089480
:101A20000895E894BB2766277727CB0197F9089597
:041A3000F894FFCF58
:101A34000C00FCFFF8FFC800F001010000002D2D90
:101A440020474554205245414459202D2D00202043
:101A5400202D2D2D2D2D2D2D2D2D2D2D2D2D2D2DBF
:101A6400202000202020202020202042204120541B
:101A740020202020202020002020202042204F2031
:101A84004E2041204E205A2041202020002020209A
:101A9400626820616E6468206A61636B736F6E2094
:101AA40020002D2053595354454D2052455345543D
:101AB400202D002D2D204D555445202D2D002D2D4C
:101AC40020534F554E44204F4E202D2D002D205491
:101AD4004F554748204D4F4445202D002D20455853
:101AE40050455254204D4F4445202D002D2D204E5D
:101AF4004F524D414C202D2D0050204C2041205957
:101B04002045205220310050204C204120592045AE
:101B1400205220320020202020202020202020209D
:101B2400202000202020572049204E205320202010
:021B34000000AF
:00000001FF
