:1000000077C1B5C7E1C78FC18EC167C78CC18BC12E
:100010008AC189C188C187C186C185C184C10000E8
:1000200000000000000808080808000060600000E8
:10003000003C4030403C003E5149453E0000427F7C
:100040004000004261514946002141454B310018B2
:1000500014127F10002745454539003C4A49493074
:10006000000171090503003649494936000649492E
:10007000291E000036360000007C1211127C007F21
:1000800049494936003E41414122007F4141221CFD
:10009000007F49494941007F09090901003E414962
:1000A000497A007F0808087F0000417F4100002056
:1000B00040413F01007F08142241007F4040404002
:1000C000007F020C027F007F0408107F003E414148
:1000D000413E007F09090906003E4151215E007F33
:1000E000091929460046494949310001017F0101AA
:1000F000003F4040403F001F2040201F003F40384D
:10010000403F002054545478007F4844443800381D
:100110004444442000384444487F00385454541820
:1001200000087E0901020018A4A4A47C007F080432
:1001300004780000447D4000004080847D00007F02
:10014000102844000000417F4000007C041804781F
:10015000007C0804047800384444443800FC24241B
:1001600024180018242418FC007C08040408004803
:100170005454542000043F444020003C4040207C24
:10018000001C2040201C003C4030403C0044281013
:100190002844001CA0A0A07C00324959513E83DCB9
:1001A0007A3F3F7ADC8399BDDB7E7E3CE78181E745
:1001B0003C7E7EDBBD993C7ED7B5ADBFFFEDADADDE
:1001C000FFB7F5BFB7ADEDBDC3BDA5BD423C007FD8
:1001D0004155555555555555555555555555417FCD
:1001E000227F7F63221C4163466E7C7E7A3EBCFE8A
:1001F0007E3EBEBEFC7C7838383870606040001CA3
:1002000022637F7F2222223E3E7F6363221C223EA6
:100210003E7F6363221C000000000000000080C0DD
:10022000F07C06735943063C383030383E267B5903
:1002300043067CF0C08000000000000000000000C9
:100240000000000078FFCF0100003060E0C0808037
:100250008080808080C0C0603000000001CFFE78C8
:100260000000000000007CFE860E0E1C18317FFE90
:10027000FC1C18383838393939393939393838386F
:1002800038181CFCFE7F39181C0E0EC6FE3C0001FF
:10029000070E1C3870C0C0800307FCF80000F0C0D7
:1002A000C0C0C0C0E0F00000F8FC0F0380C0E070E8
:1002B000381C0E03010004060F0F06060303036338
:1002C00073333BFFFF7F3F38F0C000F0F83F7FFF04
:1002D000FF3B33636303030306060F0F06000000B2
:1002E000000036000202020202020102040810208D
:1002F00011241FBECFE5D2E0DEBFCDBF11E0A0E6E6
:10030000B0E0E2E8FBE102C005900D92AC33B1072A
:10031000D9F721E0ACE3B1E001C01D92AF3CB207D8
:10032000E1F786D62CCC6CCE17B887B187B9369A50
:100330003699FECF84B195B108953FB7F894809176
:10034000CB019091CC01A091CD01B091CE0122B70B
:1003500008B601FE05C02F3F19F00196A11DB11D81
:100360003FBFBA2FA92F982F8827BC01CD01620F5C
:10037000711D811D911D43E0660F771F881F991F16
:100380004A95D1F70895CF92DF92EF92FF92CF93E3
:10039000DF936B017C01D1DFEB01CFDF6C1B7D0BA9
:1003A000683E7340A0F0C114D104E104F10439F4B3
:1003B000DF91CF91FF90EF90DF90CF90089581E093
:1003C000C81AD108E108F108C851DC4FE6CFC114C2
:1003D000D104E104F10409F7EBCF2FB7F894609151
:1003E000C7017091C8018091C9019091CA012FBFC6
:1003F00008954F925F926F927F928F929F92AF92E9
:10040000BF92CF92DF92EF92FF920F931F93CF9301
:10041000DF93CDB7DEB7A4970FB6F894DEBF0FBE5B
:10042000CDBF8CE0E0E6F0E0DE01119601900D9288
:100430008A95E1F78CE0ECE6F0E0DE011D96019094
:100440000D928A95E1F78091BC01813009F06FC06F
:1004500022EF3FEF388F2F8B2AEF3FEF3E8B2D8B14
:1004600029EF3FEF3C8B2B8B912C833030F069E0F0
:10047000962E873010F475E0972ECE0101962C0150
:10048000BE01675E7F4F0C969B01D2014D915D913D
:10049000F901419351939F01A817B907B9F70EE3EA
:1004A00011E02EE431E0F80111921786178E17A69D
:1004B00017AEAF01415B5F4FDA011C922E173F0769
:1004C00099F7FC015EE0E52EF12C30E020E0DB0145
:1004D0008D919D91BD0143E0742E333008F4712C51
:1004E000A190B19050E040E0181619060CF04BC0F6
:1004F0008E159F050CF047C08130910519F421300D
:1005000009F422E0B9E06B2E343071F1672C31111F
:100510002BC0DA01A25CBE4F6D016894882482F87A
:10052000820E491548F5AAE08A2E820E24C0833037
:1005300008F492CF833009F493CF843009F49BCF31
:100540002CEF3FEF388B2F872BEF3FEF3A8B298B28
:10055000883008F48CCF2EEF3FEF3E8B2D8B2DEFA4
:100560003FEF388F2F8B83CF6801C40ED51EA4E0D8
:100570008A2E820E860CD6018C92DD24D3942230F2
:1005800009F4D12C2D2D0197A816B9061CF0D20123
:100590008D919C914F5F5F4F4F30510509F0A4CF73
:1005A000AB0142505109DA018D939C933F5FB2E059
:1005B0004B0E511C81E0E81AF108005F1F4F3630E6
:1005C00009F085CFA4960FB6F894DEBF0FBECDBF5D
:1005D000DF91CF911F910F91FF90EF90DF90CF901F
:1005E000BF90AF909F908F907F906F905F904F9053
:1005F00008958091BA019FEF980F9330B0F49091D5
:10060000BB01482F4150550B9A0144E0220F331F84
:100610004A95E1F7225C3E4F290F311DF901908187
:10062000911121C091E09093BF019CEF980F9330FE
:10063000E8F48150990B2091BB0134E0880F991F99
:100640003A95E1F7825C9E4F820F911DFC0120815B
:10065000211105C00197FC018081882339F081E0D8
:100660008093BF0108959A30E8F6DFCF089530E017
:1006700020E090E0AC01022E01C0440F0A94EAF79A
:1006800047FF0CC0C39AC49AC4982F5F3F4F2830CD
:10069000310581F7C39AC49AC4980895C398F3CFDB
:1006A000EF92FF920F931F93CF93DF93F82EE62ED6
:1006B0008150990BEC0183E0CC0FDD1F8A95E1F7A7
:1006C00010E000E0C256DE4FFF20B1F0FE01E00F67
:1006D000F11FE1100EC08491CADF0F5F1F4F083079
:1006E000110591F7DF91CF911F910F91FF90EF903E
:1006F000089584918095F0CF80E0EE2069F38FEF2C
:10070000EBCF611101C0B3CF8095FDCFC498C398E2
:10071000C49AC39A0895C49AC39AC398C498089572
:10072000CF93DF93C82FD62FF6DF88E7A0DF80E0D6
:100730009EDF80EB8D0F9BDF8C2F82958F70806109
:1007400096DF8C2F8E70816092DFDF91CF91DECFAC
:10075000683008F4E5CF0895DEDF88E788DF80E4BD
:1007600086CF0F931F93CF93DF930EE911E0C3E081
:1007700060E08C2FD5DFF0DF8FEF79DF81E077DF6E
:1007800081E075DFF80181918F01D8E0882391F035
:1007900060E081E085DF81E06ADF81E068DF8FEF84
:1007A00066DFB4DFC85ECB3719F7DF91CF911F91B9
:1007B0000F91089581E05BDFD150E1F7ECCFCF934B
:1007C000C82F862F6091BA019FEF960F963088F45C
:1007D000882301F1613011F0633059F48091BB013D
:1007E000880F880F880F9091B501891B895FB0DF52
:1007F0000BC08091BB01880F880F880F6230B9F75A
:100800009091B401890F8CDFA7DF60E08C2F48DF67
:10081000CF917CCFCF910895FF920F931F93CF93E9
:10082000DF931091BB010091BA0187E08093BA0178
:100830008DE08093BB0161E080E0C1DF8EE08093BA
:10084000BB0161E080E0BBDFC091AE01D091AF01A0
:100850008FE0F82E1C161D064CF48F2D8C1B8093F8
:10086000BB0161E081E0ABDF2197F4CF0093BA01D7
:100870001093BB01DF91CF911F910F91FF900895CD
:100880002F923F924F925F926F927F928F929F92A0
:10089000AF92BF92CF92DF92EF92FF920F931F938E
:1008A000CF93DF9300D000D0CDB7DEB7582E4EE304
:1008B000E42E41E0F42E670101E010E01C821B826F
:1008C00057E0852E912C442443942B81233008F04B
:1008D000412C602F80E03CDF3FDFB12C4B2D50E0FE
:1008E0008091B501E82FF0E094012E1B3F0B4217D9
:1008F0005307DCF4D6011F962C91642D80E022234F
:1009000089F03196E40FF51F422F4150550BCA0173
:1009100033E0880F991F3A95E1F7E80FF91FE25687
:10092000FE4F8491EEDEB394D9CF312C8B819C8124
:1009300024E0880F991F2A95E1F7BC01625C7E4F85
:100940007A8369838091BA01482F50E06090BB019F
:100950004017510751F4631008C09FEF980F933070
:1009600020F460E0852D9CDE2EC0232D30E0909198
:10097000BF01911152C04017510709F04EC0A901A3
:100980004F5F5F4F6416150609F047C084508330EF
:1009900008F043C0A12CB090B501AB1420F480E066
:1009A00066DEA394F8CF60E0852D7ADE212CC401A9
:1009B0008B1991095C012A141B0424F480E057DE92
:1009C0002394F9CF33943394FEE0F31508F0BACFB3
:1009D000712C8B819C81B4E0880F991FBA95E1F747
:1009E0009C01235B3E4F59018091B5017816E8F4D4
:1009F000D501EC91642D80E0EE2361F0E150FF0B16
:100A0000A3E0EE0FFF1FAA95E1F7E70DF11DE256F7
:100A1000FE4F849176DE7394E7CFA981BA812A0FC5
:100A20003B1F642DF90180819ECF70DEEB81FC813C
:100A30003296FC83EB830E5F1F4FF0E2CF0ED11C8A
:100A40002B813C812630310509F03DCF611003C078
:100A500061E0852DB4DE42E050E05A83498301E035
:100A600010E068E0862E912C77E0A72EB12C6981EA
:100A700077247394862F8250823008F0712C80E0A6
:100A800067DE6ADED12C9091B401D916D8F4D70173
:100A90005F968C91811104C0672D33DED394F3CF20
:100AA000F401E91BF109ED0DF11D8150990B53E0A3
:100AB000880F991F5A95E1F7E80FF91FE256FE4F8C
:100AC0008491EACF412CC80144E0880F991F4A95D0
:100AD000E1F7FC01E25CFE4F6F018091BA01482F03
:100AE00050E06090BB0129813A814217530751F4CD
:100AF000641008C09FEF980F933020F460E0852DBC
:100B0000CFDD2DC0242D30E09091BF0191114AC05E
:100B100069817A814617570709F044C0A9014F5FE0
:100B20005F4F64161506F1F584508330D8F5312CEB
:100B30002090B401C501821991093816190624F4D0
:100B400080E095DD3394F4CF60E0852DA9DD312C74
:100B5000231421F080E08BDD3394FACF4394439447
:100B6000BEE0B41508F0B9CF412CC80134E0880FBD
:100B7000991F3A95E1F7FC01E35BFE4F6F01842D6D
:100B800090E02091B401A501421B510984179507FB
:100B9000ECF4D601EC91E1110BC0672D80E0B1DDE2
:100BA0004394EDCF2C0D3D1D672DD9018C91A8CF1D
:100BB000E150FF0B23E0EE0FFF1F2A95E1F7E80F4E
:100BC000F91FE256FE4F8491672DE9CF9FDD0E5F3E
:100BD0001F4FE981FA813296FA83E983F0E2EF0E42
:100BE000F11C29813A812830310509F040CF61108C
:100BF00019C061E0852D0F900F900F900F90DF913D
:100C0000CF911F910F91FF90EF90DF90CF90BF9009
:100C1000AF909F908F907F906F905F904F903F909C
:100C20002F90CDCD0F900F900F900F90DF91CF911F
:100C30001F910F91FF90EF90DF90CF90BF90AF90FA
:100C40009F908F907F906F905F904F903F902F90EC
:100C50000895AF92BF92CF92DF92EF92FF920F93DF
:100C60001F93CF93DF93D82FE62E6A01F12CF60164
:100C7000EF0DF11D8081882369F1C0E0803251F0D1
:100C8000C4EDC80FC03130F0CEECC80FC93210F03F
:100C9000C5ECC80FDF3710F0E394D0E06E2D8D2F38
:100CA00057DD5ADD8C2F90E066E070E024D710E02D
:100CB00000E0825E9F4F5C01F501E00FF11F84911F
:100CC000D6DC0F5F1F4F06301105B1F71FDDDA5F6D
:100CD000F394CDCFDF91CF911F910F91FF90EF90C3
:100CE000DF90CF90BF90AF900895CF93C82F13DDC2
:100CF00088E7BDDC80E0BBDC8C2FB9DCCF9106CD72
:100D0000CF93DF93C0EB8C2FF0DF80E0EEDF80E14C
:100D1000ECDF22DDD0E080E0AADCDF5FD038D9F75D
:100D2000F5DCCF5FC83B79F7DF91CF910895BB9A8F
:100D3000BC9A8EEADADF80E0D8DF80E1D6DF80E49B
:100D4000D4DF81E8D2DF8FECD0DF81EACEDF88EC20
:100D5000CCDF86EACADF88EAC8DF8FE3C6DF83ED2F
:100D6000C4DF80E0C2DF85EDC0DF80E8BEDF89ED53
:100D7000BCDF81EFBADF8AEDB8DF82E1B6DF8BED51
:100D8000B4DF80E4B2DF80E2B0DF82E0AEDF8DE886
:100D9000ACDF84E1AADF84EAA8DF86EAA6DF8FEA77
:100DA000A4CF8091B90181110EC081E08093A3018D
:100DB0008093B90112DB6093A5017093A601809323
:100DC000A7019093A801089590B79F7D90BF8111CE
:100DD00005C08FB7F894C1988FBF08958FB7F89466
:100DE000C19AFACFCF92DF92EF92FF920F931F93A7
:100DF000CF93DF932091C50121111DC06B017C01B0
:100E000010E000E081E0E0DFD0E0C0E0CC16DD06DD
:100E100019F000002196FACF80E0D6DF90E080E064
:100E2000C817D90719F000000196FACF0F5F1F4FBE
:100E3000E016F1063CF7DF91CF911F910F91FF90E3
:100E4000EF90DF90CF90089590E0FC01E651FD4FC8
:100E50002491FC01EC51FD4FE491EE2371F0F0E0A0
:100E6000EE0FFF1FE252FD4FA591B491EC91E223EA
:100E700081E090E021F480E0089580E090E0089522
:100E8000EF92FF920F931F93CF93DF93CDB7DEB70F
:100E90002A970FB6F894DEBF0FBECDBFF82EE62E10
:100EA000CA018E010F5F1F4F2AE0F80111922A95A7
:100EB000E9F74AE0B801D6D5A8016E2D8F2DC9DE1D
:100EC0002A960FB6F894DEBF0FBECDBFDF91CF914B
:100ED0001F910F91FF90EF9008951F920F920FB600
:100EE0000F9211242F933F938F939F93AF93BF93B0
:100EF0008091C7019091C801A091C901B091CA0128
:100F00003091C60126E0230F2D3768F129E8230F21
:100F10000396A11DB11D2093C6018093C701909334
:100F2000C801A093C901B093CA018091CB019091EF
:100F3000CC01A091CD01B091CE010196A11DB11DB2
:100F40008093CB019093CC01A093CD01B093CE01BF
:100F5000BF91AF919F918F913F912F910F900FBEB5
:100F60000F901F9018950296A11DB11DD4CF1F920E
:100F70000F920FB60F9211242F933F934F935F93CD
:100F80006F937F938F939F93AF93BF93EF93FF9351
:100F900080913C0190913D01892B29F0E0913C0129
:100FA000F0913D010995FF91EF91BF91AF919F9114
:100FB0008F917F916F915F914F913F912F910F9002
:100FC0000FBE0F901F9018951F920F920FB60F92A1
:100FD00011242F933F934F935F936F937F938F933E
:100FE0009F93AF93BF93EF93FF938091B9018111CA
:100FF0000EC081E08093A4018093B901EED9609383
:10100000A5017093A6018093A7019093A801FF9179
:10101000EF91BF91AF919F918F917F916F915F9170
:101020004F913F912F910F900FBE0F901F901895E9
:1010300080E886BD91E096BD83E08ABD83BF789449
:1010400089B7826089BF80E48CBD8FEF8DBD87EC4E
:1010500080BF86E886B982E087BB95BB8BB780628C
:101060008BBF7894BAE0EB2EF12CC4E66C2E712C79
:101070005EDE46DE48E750E062E080E0EADD46E81A
:1010800050E064E080E0E5DD61E080E049DBC0E560
:10109000D0E062DB88E3EBDA39DB2197D1F763E05C
:1010A00080E03EDBC0E5D0E057DB8CE1E0DA2EDB10
:1010B0002197D1F7A2E09A2E10E000E0692D85E596
:1010C00047DB4ADBD0E0C0E0C8018A5E9D4F5C018F
:1010D000F501EC0FFD1F8491CADA2196C832D105C3
:1010E000B9F7085D1F4F12DB939497E09912E6CF92
:1010F00043E950E066E080E0ACDD4FE950E067E0B6
:1011000080E0A7DD6CED75E080E090E03CD94EEA30
:1011100050E066E080E09DDD4AEB50E067E080E073
:1011200098DD5BD94B015C0180E08EDE019709F010
:101130005DC153D9681979098A099B09613D7740D6
:10114000810591058CF382E07FDE019709F03BC1B8
:1011500060E090E080E0C1D460E081E090E0BDD448
:1011600049EC50E060E088E074DDC1E080E06CDED6
:101170000197E1F3C1115BC460ED77E080E090E09E
:1011800002D9D5DDBDDD1092BF011092C1011092D0
:10119000C00188EE93E09093BE018093BD0181E091
:1011A0008093BC0198E09093BB0197E09093BA01C3
:1011B0001092B9018093B8011092B7011092B60154
:1011C0001092B5011092B4018093B3018093B201E3
:1011D0001092B1011092B00182E090E09093AF01C3
:1011E0008093AE018CE08093AD0181E090E090931C
:1011F000AC018093AB018FB7F89421ED36E03093CA
:101200003D0120933C018FBF85B78C7F816085BFF6
:101210008BB780648BBFEDD810929E0110929F0116
:101220001092A0011092A1011092A201C091B801E8
:1012300060E08C2FC4DA8C2F23DBEEDA92DA409157
:10124000C0015091C10167E070E090E080E018DEDD
:10125000E8EE2E2EE3E03E2E44244394512CC1E0D0
:10126000D2E053E0B52E67E0A62E78E0972E80916D
:10127000AE019091AF010091C0011091C10197FDA5
:101280004DC3E091B601F091B7013196F093B701EB
:10129000E093B6012091AB013091AC01243F81E095
:1012A000380734F08FEF9FEF9093AF018093AE013A
:1012B000C093AA01C801B7013BD4CB01B70138D410
:1012C000892B11F0D093AA01C801B30131D4CB010D
:1012D000B7012ED4892B29F08091AA018F5F8093CA
:1012E000AA01C801B10124D4CB01B70121D4892BB3
:1012F00029F08091AA018F5F8093AA018091BD019E
:101300009091BE0197FD079643E0959587954A9584
:10131000E1F78E179F070CF0A4C02F5F3F4F30936B
:10132000AC012093AB018091B5018F5F8093B50133
:101330009091B201992309F45BC01092B20190918F
:10134000B201992329F09091B4019F5F9093B40169
:10135000873009F070C08091B301882309F44BC035
:101360001092B3018091BA017FEF780FC82ED12C73
:101370004091BB016091B3015091BF01EEE3F1E0F8
:1013800021E030E090E080E0733008F0F7C0C21652
:10139000D30609F0F3C0019789F5662309F4F3C079
:1013A0004E3008F05DC34F5F9785DF018FE01E96DA
:1013B0008C901E971F968C921F97815011978111C8
:1013C000F6CF9083E0C08091C501811108C081E013
:1013D0008093C5014CED50E060E080E2C5CE1092F4
:1013E000C50147EE50E060E08FE1BECEC0E0BECE6A
:1013F000C093B201A4CFC093B301B4CF442309F486
:10140000C5C041509081DF018FE011968C901197FB
:101410008D928150D1F7978781E090E02F5F3F4F09
:1014200070962730310509F0AFCF4093BB01509340
:10143000BF011092B5018091B401873011F4109270
:10144000B4011092B7011092B601D3D88091BF01B8
:10145000811107C08090B801882D12DA60E0882DD4
:10146000AED962D78C3A9340ACF48091B901811126
:1014700011C0C093A9011092AC011092AB01C093AE
:10148000B901ABD76093A5017093A6018093A70122
:101490009093A8018091A401882301F19ED7AB010C
:1014A000BC018091A5019091A601A091A701B091E6
:1014B000A801CC96A11DB11D84179507A607B707F3
:1014C00068F41092AC011092AB011092A40182E07A
:1014D000BBDC019709F05CC0C093A9018091A30116
:1014E000882301F17AD7AB01BC018091A5019091CD
:1014F000A601A091A701B091A801CC96A11DB11D94
:1015000084179507A607B70768F41092AC011092EC
:10151000AB011092A30180E097DC019709F057C05E
:10152000C093A9018091A901882309F421C11092D7
:10153000A9014091BC01400F512F511D5093C10191
:101540004093C00167E070E090E080E099DC60E0EB
:1015500080E035D98091BA01823008F4ABC1815066
:101560008093BA01833009F051C08091B501843075
:1015700008F069C08091BB01815056C0892B09F4E5
:1015800041CF611111CF90E080E048CF51E03ACFD8
:1015900060E080E014D98091BA01873049F49091DD
:1015A000BB018091AA01891748F0D093B80196CF6A
:1015B0008730D8F78091BB01882331F08091BB013F
:1015C00081508093BB01F1CFC093BF01EECF60E0AB
:1015D00080E0F5D88091BA01873049F49091BB0141
:1015E0008091AD01981748F0B092B8019BCF873039
:1015F000D8F78091BB018E3030F48091BB018F5FB2
:101600008093BB01F1CFC093BF01EECF823079F45C
:101610008091B4019091B501890F9927991F059781
:1016200094F48091BB018F5F8093BB010CC081302B
:1016300051F48091B4019091B501890F9927991FB8
:1016400005970CF497CFC093B8018091B0019091A9
:10165000B10105970CF48CC00091BC010F5F0093A1
:10166000BC0110E068EC70E080E090E08CD695E082
:10167000892E10929E0110929F011092A00110924B
:10168000A1011092A2016DD860E273E084E190E0C4
:10169000A9DB68E572E084E190E0A4DB60E971E039
:1016A00084E190E09FDBC0939E01C0939F01C093B3
:1016B000A001C093A101C093A20153D860E273E0DE
:1016C00084E190E08FDB68E572E084E190E08ADB02
:1016D00060E971E084E190E085DB8A948110C9CFF4
:1016E00064EF71E080E090E04ED60ADB43E051E029
:1016F00061E083E2AEDA44EF50E063E083E2A9DA2E
:1017000043E051E065E083E2A4DAA80163E070E021
:101710008DE490E0B5DB6CED75E080E090E033D6D1
:10172000EFDA8091BD019091BE018436910534F0CD
:10173000845691099093BE018093BD015AD61092B0
:101740009E0110929F011092A0011092A10110928F
:10175000A2011092B1011092B00103D85DD840915E
:10176000C0015091C10167E070E090E080E088DB4B
:101770008091AB019091AC01892BF1F48091BF0174
:1017800081111AC05092AC014092AB011091B80186
:1017900060E0812F14D8812F73D860E971E08EE169
:1017A00090E020DB6CE271E08EE190E01BDB68EC06
:1017B00070E08EE190E016DB1CD78091B90181309A
:1017C00011F50BD6AB01BC018091A5019091A6014A
:1017D000A091A701B091A80188589F4FAF4FBF4F6C
:1017E00084179507A607B70770F482E02DDB892BD5
:1017F00051F480E029DB892B31F496D58D3A934062
:1018000014F01092B9018091BF01882309F42FCD03
:101810001091B801812F34D861E080E0D0D7D0E0BA
:10182000C0E0BE0182E390E0DDDAE296CA3FD10576
:10183000C1F761E0812FC3D7BE0182E390E0D2DA25
:10184000E296C43F81E0D807B9F761E080E0B7D7FE
:10185000BE0182E390E0C6DAE296CE3E92E0D9077E
:10186000B9F761E0812FABD7BE0182E390E0BADA2D
:10187000E296C83E23E0D207B9F768E572E080E05F
:1018800090E081D58091AE019091AF010197909346
:10189000AF018093AE018091AD018F5F8093AD0168
:1018A0001092BF01B9D788E08093BB0187E0809395
:1018B000BA01D5CC8091B501843038F48091BB0158
:1018C0008F3018F48F5F8093BB018091BB016B2D2B
:1018D00023D1E82FF0E0E256FE4F808181111BC03A
:1018E0008091B0019091B10101969093B1018093E4
:1018F000B001C083A092BA019092BB0108EE13E040
:10190000B8018AE090E06EDA2CD704561109083C41
:101910001105B1F798CEC093BF0195CE90E080E05D
:10192000D4D0C82FD0E0DC2FCC27D093C401C093F3
:10193000C30181E090E0C9D0C82BD093C401C0930B
:10194000C3011092C201C017D10784F41093C401DF
:101950000093C301602F81E090E0BFD06091C1018E
:1019600090E080E0BAD081E08093C201C9D94CEF09
:1019700050E061E08BE06DD94DE051E062E08BE03A
:1019800068D94CEF50E063E08BE063D943E251E06B
:1019900065E085E25ED94091C0015091C10165E0EA
:1019A00070E08BE490E06CDA8091C20181110EC08E
:1019B0004EE151E067E085E14CD94091C30150917F
:1019C000C40167E070E088E590E05ADA68EE73E001
:1019D00080E090E0D8D48091C201882341F190D971
:1019E0004CEF50E061E08AE034D94AE251E063E034
:1019F0008AE02FD94CEF50E067E08AE02AD9409185
:101A0000C3015091C40165E070E082E390E038DAF0
:101A1000CCEBD2E0BE018EE190E0E4D9E297C83C85
:101A2000D105C1F760EB74E080E090E0ACD468D9F8
:101A30008EEA5BD9379885B7877E806185BF85B789
:101A4000806285BF85B7806285BF889585B78F7DA9
:101A500085BF85B78F7D85BF379A8FEA46D908CB7A
:101A600051E0A2CCBB274A3031F4992322F4BDE2E5
:101A7000909581959F4F01C0BB27FB015527AA2751
:101A8000880F991FAA1FA41710F0A41B839550510B
:101A9000B9F7A05DAA3308F0A95DA193009779F783
:101AA000B111B1931192CB0100C0DC01FC01672F91
:101AB00071917723E1F7329704C07C916D93708325
:101AC0006291AE17BF07C8F30895E199FECF9FBB9F
:101AD0008EBBE09A99278DB30895262FE199FECF0A
:101AE0001CBA9FBB8EBB2DBB0FB6F894E29AE19A4D
:101AF0000FBE019608950024552704C0080E591FF3
:101B0000880F991F009729F076956795B8F37105AE
:101B1000B9F7802D952F0895991B79E004C0991F7E
:101B2000961708F0961B881F7A95C9F78095089537
:101B300097FB072E16F4009406D077FD08D00BD043
:101B400007FC05D03EF4909581959F4F08957095C0
:101B500061957F4F0895AA1BBB1B51E107C0AA1FC7
:101B6000BB1FA617B70710F0A61BB70B881F991F3E
:101B70005A95A9F780959095BC01CD010895F894E8
:021B8000FFCF95
:101B8200030002000400020002000300FEFFFDFF4A
:101B9200FCFFFCFFFDFFFBFF462052204F204720A9
:101BA200472045205200616E6479206A61636B733D
:101BB2006F6E00696E737069726564206279007776
:101BC2006562626F67676C65732E636F6D00617229
:101BD20074776F726B20627920007A73656E6B7511
:101BE2006E6D757361736869002D484947482053CB
:101BF200434F52452052455345542D002D2D204D23
:101C0200555445202D2D002D20534F554E44204F25
:101C12004E202D00204C4556454C20002D2D2D2DBB
:101C22002D2D2D2D2D2D2D2D2D2D2D2D00472041EE
:101C3200204D204520204F20562045205200484963
:101C420047482053434F52453A00204E45572048BB
:0C1C52004947482053434F5245200000F2
:00000001FF
