:1000000068C3A3C8CFC880C37FC355C87DC37CC3A2
:100010007BC37AC379C378C377C376C375C33C7E89
:10002000FFFFFFFF7E3C3C7EFFFFE7E7C3427CFE15
:100030003F0F0F3FFE7C42C3E7E7FFFF7E3C3E7F62
:10004000FCF0F0FC7F3E0E770E08180824082E08FE
:1000500037083F084B0854085D0868086F087708A0
:100060000E14181424142E1437143F144B14541463
:100070005D14681177110E1F181F241F2E1F5D1F9E
:1000800068196F19771968256F2577250E2B182B9E
:10009000242B2E2B372B3F2B4B2B542B5D2B682ED9
:1000A000772E0E37183724372E3737373F374B37F1
:1000B00054375D3768376F37000C0C17171F1F2236
:1000C000222D2D387CFE22EBFF62EA7C7CC20A8363
:1000D000830A827C1C3C7E666662401010107C386D
:1000E0001000002060FF60200010387C101010000D
:1000F000000406FF060400000000000000000008E5
:1001000008080000006060000000201008040200E1
:100110003E5149453E0000427F4000004261514946
:1001200046002141454B31001814127F100027452D
:10013000454539003C4A4949300001710905030031
:10014000364949493600064949291E00003636001D
:1001500000007C1211127C007F49494936003E4163
:10016000414122007F4141221C007F494949410011
:100170007F09090901003E4149497A007F080808C2
:100180007F0000417F4100002040413F01007F0887
:10019000142241007F40404040007F020C027F005B
:1001A0007F0408107F003E4141413E007F0909095C
:1001B00006003E4151215E007F091929460046494B
:1001C0004949310001017F0101003F4040403F00AB
:1001D0001F2040201F003F4038403F00205454540F
:1001E00078007F4844443800384444442000384470
:1001F00044487F00385454541800087E0901020016
:1002000018A4A4A47C007F080404780000447D4066
:1002100000004080847D00007F10284400000041E1
:100220007F4000007C04180478007C0804047800F7
:10023000384444443800FC2424241800182424188A
:10024000FC007C0804040800485454542000043F77
:10025000444020003C4040207C001C2040201C00EA
:100260003C4030403C004428102844001CA0A0A082
:100270007C00000000000000F804F41414141414AE
:1002800014141413100F00000000000000000F10E1
:10029000131414141414141414E404E4141414148F
:1002A000141414141414141414141414141414140E
:1002B0001414141414E404E414141414141414146E
:1002C00014141414141414141414141414141414EE
:1002D0001414E404E414141414141414141414144E
:1002E00014141414141414141414141414E404F82A
:1002F0000000000000000000FF00FF000000000000
:1003000000000040A0A0A0A0A0A0A0A0A0A0A0A02D
:10031000400000000000000000FF00FF000000009F
:100320000000000040A0A0A0A0A0A0A040000000ED
:1003300000000000007F807F00000000000000003F
:1003400040A0A0A0A0A0A0A0A0400000000000002D
:1003500000007F807F0000000000000000C020A09F
:10036000A0A0A020C00000000000000000FF00FFCF
:100370000000000000000000FF00FF00000000007F
:10038000000000000000000000000000000000006D
:10039000000000000000000000FF00FF000000005F
:1003A000000000000000000000000000000000004D
:1003B000000000000000000000000000000000003D
:1003C000000000000000000000000000000000002D
:1003D000000000000000000000000000001F202FAF
:1003E0002F2F2F201F0000000000000000FF00FF43
:1003F0000000000000000000FF00FF0000000000FF
:10040000000000FE01FE0000000000000000FE01F0
:10041000FE000000000000000007080700000000C8
:1004200000000000FE01FD050505050505050505A3
:10043000050502000202020202020002050505058E
:1004400005050505050505FD01FE0000000000008D
:100450000000FE013E40404040404040404040409F
:1004600040404040800000000000000000FF00FF0E
:100470000000000000000000FF00FF00000000007E
:100480000000007F807F00000000000000007F80EF
:100490007F0000000000000000C020C0000000003D
:1004A000000000007F809FA0A0A0A0A0A0A0A0A00E
:1004B000A0A0A0A0A0A0A0A0A0A0A0A0A0A0A0A03C
:1004C000A0A0A0A0A0A0A09F807F0000000000002E
:1004D00000007F807E010101010101010101010194
:1004E00001010101000000000000000000FF00FF0A
:1004F0000000000000000000FF00FF0000000000FE
:1005000000000000000000000000000000000000EB
:10051000000000000000000000FF00FF00000000DD
:1005200000000000000000000000000000000000CB
:1005300000000000000000000000000000000000BB
:1005400000000000000000000000000000000000AB
:1005500000000000000000000000000000F804F4AB
:10056000F4F4F404F80000000000000000FF00FFB5
:100570000000000000000000FF00FF00000000007D
:10058000000000020505050505050505050505052D
:10059000020000000000000000FF00FF000000005B
:1005A0000000000002050505050505050200000024
:1005B0000000000000FE01FE00000000000000003E
:1005C00002050505050505050502000000000000FF
:1005D0000000FE01FE000000000000000003040512
:1005E00005050504030000000000000000FF00FFF7
:1005F00000000000000000001F20272828282828CD
:10060000282828282828282828282828282828286A
:100610002828282828282828282720272828282864
:10062000282828282828282828282828282828284A
:100630002828282828272027282828282828282844
:10064000282828282828282828282828282828282A
:100650002828C700FF0000000000000000F008C8C4
:100660002828282828282828282828282827201F1C
:100670000000C0E0F0F8FCFCFEFEFEFFFFFFFFFE06
:10068000FEFEFCFCF8706000FEFFFFFFFFFFFFFFB7
:10069000FFFFFFEFEFC787838301000010387C382E
:1006A000100000000010387C381000070F1F3F7F3B
:1006B0007F7F7FFFFFFFFFFFFF7F7F3F3F3E1E1ECD
:1006C00000000000360002020202020201020408D9
:1006D000102011241FBECFE5D2E0DEBFCDBF11E058
:1006E000A0E6B0E0EAEFFEE102C005900D92A03076
:1006F000B107D9F721E0A0E0B1E001C01D92AF370A
:10070000B207E1F790D5F7CB7BCC3FB7F894809157
:100710007B0190917C01A0917D01B0917E0122B777
:1007200008B601FE05C02F3F19F00196A11DB11DAD
:100730003FBFBA2FA92F982F8827BC01CD01620F88
:10074000711D811D911D43E0660F771F881F991F42
:100750004A95D1F70895CF92DF92EF92FF92CF930F
:10076000DF936B017C01D1DFEB01CFDF6C1B7D0BD5
:10077000683E7340A0F0C114D104E104F10439F4DF
:10078000DF91CF91FF90EF90DF90CF90089581E0BF
:10079000C81AD108E108F108C851DC4FE6CFC114EE
:1007A000D104E104F10409F7EBCF2FB7F89460917D
:1007B0007701709178018091790190917A012FBF32
:1007C000089510924B011092400110924201109234
:1007D0004101E5E4F1E01182108213821282158258
:1007E00014821092440110924301EBE5F1E082E49F
:1007F00080832CE12183AEE4B1E083E090E01196A8
:100800009C938E9337E33283238313969C938E932A
:1008100012974DE44483258315969C938E931497E9
:10082000368388E2878317961C921E921697109241
:100830003D0110923C01089510925A0110926301FB
:10084000E2E0F1E081E0819391E0EA33F907D9F742
:10085000809300018093010108950F931F93CF931C
:10086000DF93262F26952695269530E0677048E081
:1008700050E0461B51090FEF10E0F80102C0F5955A
:10088000E7954A95E2F7AF0102C0000F111F6A9584
:10089000E2F7A82FB0E0B9017695762F6627779515
:1008A00067956A0F7B1FD0E0C0E090E080E06F5852
:1008B0007D4FFB01EC0FFD1FE491F0E0E023F123FD
:1008C000EF2B11F081E090E02196C830D10589F737
:1008D0002F5F3F4F3695322F2227379527952A0FC6
:1008E0003B1F70E060E02F583D4FF901E60FF71F06
:1008F000E491F0E0E423F523EF2B11F081E090E0A8
:100900006F5F7F4F6830710581F7DF91CF911F9145
:100910000F91089530E020E090E0AC01022E01C07C
:10092000440F0A94EAF747FF0CC0C39AC49AC498CC
:100930002F5F3F4F2830310581F7C39AC49AC4987E
:100940000895C398F3CFC498C398C49AC39A0895DE
:10095000C49AC39AC398C4980895CF93DF93C82FBD
:10096000D62FF6DF88E7D6DF80E0D4DF80EB8D0F6F
:10097000D1DF8C2F82958F708061CCDF8C2F8E70B1
:100980008160C8DFDF91CF91DECFE2DF88E7C2DF91
:1009900080E4C0CFAF92BF92CF92DF92EF92FF92EE
:1009A0000F931F93CF93DF93D82F162F6A0100E088
:1009B000F601E00FF11D8081882389F1C0E08032CB
:1009C00051F0C4EDC80FC03130F0CEECC80FC932C1
:1009D00010F0C5ECC80FDF3710F01F5FD0E0183003
:1009E00018F4612F8D2FB9DFD0DF8C2F90E066E0F7
:1009F00070E070DAF12CE12C89509F4F5C01F50119
:100A0000EE0DFF1D849186DF8FEFE81AF80A86E06D
:100A1000E816F104A1F797DFDA5F0F5FC9CFDF9126
:100A2000CF911F910F91FF90EF90DF90CF90BF90EB
:100A3000AF900895CF93C82F8BDF88E76BDF80E0FE
:100A400069DF8C2F67DFCF917ECFCF93DF93C0EB31
:100A50008C2FF0DF80E0EEDF80E1ECDF96DFD0E08E
:100A600080E058DFDF5FD038D9F76DDFCF5FC83B5C
:100A700079F7DF91CF910895BB9ABC9A8EEADADFBD
:100A800080E0D8DF80E1D6DF80E4D4DF81E8D2DF08
:100A90008FECD0DF81EACEDF88ECCCDF86EACADFDC
:100AA00088EAC8DF8FE3C6DF83EDC4DF80E0C2DF02
:100AB00085EDC0DF80E8BEDF89EDBCDF81EFBADF06
:100AC0008AEDB8DF82E1B6DF8BEDB4DF80E4B2DF20
:100AD00080E2B0DF82E0AEDF8DE8ACDF84E1AADF48
:100AE00084EAA8DF86EAA6DF8FEAA4CF2F923F929E
:100AF0004F925F926F927F928F929F92AF92BF922E
:100B0000CF92DF92EF92FF920F931F93CF93DF93D9
:100B100000D000D000D0CDB7DEB70FEFF12CE12C24
:100B200010E0712C612C38E0432E512C41E6A42EAC
:100B300041E0B42E612F80E010DF27DFC701880F6E
:100B4000991F9C012A543F4F3A832983AC01495491
:100B50005F4F5C834B831E821D82B3016F587D4FB4
:100B60001B01CD808D809E80860C971C8D819E817F
:100B70008038910509F4ACC1FC01E20DF31D6491CC
:100B800030916101D0906201C31608F44BC1E32F8C
:100B9000F0E0CF0107964D815E81841795070CF434
:100BA00041C18D2D86958695869581130CC14D2D5D
:100BB00047708D819E818E1B9F0BFC0180914C01A3
:100BC00090914D01019709F0FBC0809154019091E3
:100BD0005501B3E0880F991FBA95E1F7E80FF91FA7
:100BE000EA5DFF4FE49101C0EE0F4A95EAF7262F28
:100BF0002E2B56E05C1540F1113081F480913C01C0
:100C000090913D0167E070E065D96D817E81860F2E
:100C1000971FFC01E552FF4FE4912E2B40916E018E
:100C200050916F0183E090E063E0ED81FE81EC5232
:100C3000FF4F161305C08417950714F47491272BE2
:100C40006F5F01976730A9F78091400190E0F3E072
:100C5000880F991FFA95E1F7ABE5B1E04C91C41606
:100C600000F150E0BA01695F7F4FED81FE816E17A0
:100C70007F07BCF011969C901197692D669566953B
:100C800066956113D1C0E41BF50BE80FF91FEC5317
:100C9000FF4FE491492D477001C0EE0F4A95EAF7E6
:100CA0002E2B1296AA16BB06C9F6063008F04DC0C8
:100CB000E981FA8194904D2D50E0495F5F4F632F99
:100CC00070E0695F7F4FEB81FC818491981608F09A
:100CD0003CC0892D90E0DC01AE5FBE4FEC91EE236D
:100CE00009F4D1C0880F991FFC01E85BFF4F849085
:100CF000C810C9C08490875B9F4F381508F0B0C0FA
:100D0000E491E617170611F00CF0AAC0FC018490DC
:100D1000D81408F0A5C084908416150611F00CF0C4
:100D20009FC01C92809163018F5F809363018091CB
:100D300070019091710140916C0150916D01840F8F
:100D4000951F909371018093700150910001513073
:100D500041F4163031F4E6E4F0E08491C812A3C007
:100D6000206E40910101413081F4163071F4E7E4C6
:100D7000F0E08491C81641F0849190E001966D8175
:100D80007E816817790709F4206E73E3D71210C0CB
:100D90003E3008F094C0513059F41092000181E0C7
:100DA00080934B01809340011092420110924101C7
:100DB000822FB0DDED81FE813196FE83ED83D1CEB1
:100DC000E25EFF4F0FCF90E00196E816F90651F56D
:100DD0008D2D8770A201481B5109CA014D815E818A
:100DE0004E1B5F0BFA0140914C0150914D01413077
:100DF0005105A9F44091540150915501A3E0440FCD
:100E0000551FAA95E1F7E40FF51FEA5DFF4FE49146
:100E1000F0E002C0F595E7958A95E2F7E8CEE25E4C
:100E2000FF4FF5CFE0E0E3CE70E06F5F7F4F6E15D0
:100E30007F0509F036CFED81FE81E41BF50BE80F4D
:100E4000F91FEC53FF4FE491F0E0492D4770B201D8
:100E5000641B710902C0F595E7956A95E2F720CF0A
:100E6000FC01A491EA2FE695E695E695E1130DC005
:100E7000FC0184918770E1E0F0E002C0EE0FFF1FFB
:100E80008A95E2F72E2B93941ECFFC01A491EA2FB2
:100E9000E695E695E695F0E03196EE16FF0699F7B1
:100EA000FC018491F0CFE6E4F0E0849190E00196BB
:100EB0006D817E818617970709F053CF51CF303768
:100EC00008F476CF413009F073CF1092010167CF5B
:100ED0003ADD1F5FFFEFEF1AFF0A0F5F3401183092
:100EE00009F028CE26960FB6F894DEBF0FBECDBF10
:100EF000DF91CF911F910F91FF90EF90DF90CF90F6
:100F0000BF90AF909F908F907F906F905F904F9029
:100F10003F902F9008950F931F93CF93DF93042F4B
:100F20001CDDD0E0C0E010E0C017D10734F42DDDA7
:100F300088E3F0DC08DD2196F7CFDF91CF911F9198
:100F40000F91089580915A01811118C080913C0140
:100F500090913D018330910594F4019690933D0169
:100F600080933C0181E080935A011FDC609356011D
:100F700070935701809358019093590108951092EE
:100F80003D0110923C01EECF90B79F7D90BF811143
:100F900005C08FB7F894C1988FBF08958FB7F894A4
:100FA000C19AFACFCF92DF92EF92FF920F931F93E5
:100FB000CF93DF932091750121111DC06B017C013E
:100FC00010E000E081E0E0DFD0E0C0E0CC16DD061C
:100FD00019F000002196FACF80E0D6DF90E080E0A3
:100FE000C817D90719F000000196FACF0F5F1F4FFD
:100FF000E016F1063CF7DF91CF911F910F91FF9022
:10100000EF90DF90CF90089590E0FC01E453F94F0A
:101010002491FC01EA53F94FE491EE2371F0F0E0E2
:10102000EE0FFF1FE054F94FA591B491EC91E2232C
:1010300081E090E021F480E0089580E090E0089560
:10104000EF92FF920F931F93CF93DF93CDB7DEB74D
:101050002A970FB6F894DEBF0FBECDBFF82EE62E4E
:10106000CA018E010F5F1F4F2AE0F80111922A95E5
:10107000E9F74AE0B80185D6A8016E2D8F2D8ADCEC
:101080002A960FB6F894DEBF0FBECDBFDF91CF9189
:101090001F910F91FF90EF90089548EE50E065E0AA
:1010A00085E278DC409170015091710165E070E05B
:1010B0008BE490E0C5CF1F920F920FB60F921124D0
:1010C0002F933F938F939F93AF93BF93809177011B
:1010D00090917801A0917901B0917A0130917601D7
:1010E00026E0230F2D3768F129E8230F0396A11D71
:1010F000B11D209376018093770190937801A0939E
:101100007901B0937A0180917B0190917C01A0914B
:101110007D01B0917E010196A11DB11D80937B01DF
:1011200090937C01A0937D01B0937E01BF91AF911C
:101130009F918F913F912F910F900FBE0F901F9015
:1011400018950296A11DB11DD4CF1F920F920FB614
:101150000F9211242F933F934F935F936F937F933D
:101160008F939F93AF93BF93EF93FF9380913A0137
:1011700090913B01892B29F0E0913A01F0913B01DC
:101180000995FF91EF91BF91AF919F918F917F91C1
:101190006F915F914F913F912F910F900FBE0F90E4
:1011A0001F9018951F920F920FB60F9211242F9334
:1011B0003F934F935F936F937F938F939F93AF93DF
:1011C000BF93EF93FF9380915A01811118C08091D2
:1011D0003C0190913D011816190614F50197909362
:1011E0003D0180933C0181E080935A01DEDA6093F7
:1011F0005601709357018093580190935901FF91C4
:10120000EF91BF91AF919F918F917F916F915F917E
:101210004F913F912F910F900FBE0F901F901895F7
:1012200083E090E0DCCFCF93DF93CDB7DEB7299793
:101230000FB6F894DEBF0FBECDBF80E886BD91E04B
:1012400096BD83E08ABD83BF789489B7826089BFE9
:1012500080E48CBD8FEF8DBD87EC80BF86E886B9BA
:1012600082E087BB95BB8BB780628BBF7894F2E03E
:10127000EF2EF12C01DCE9DB4CE650E062E084E08B
:1012800089DB48E750E064E080E084DB4CE461E027
:1012900080E041DE4CE463E080E03DDE10E000E011
:1012A00023E030E03C832B836B8184E556DB6DDBF0
:1012B000D12CC12CF801EF58F94F84912BDB0F5F33
:1012C0001F4F8B819C818330910511F0059739F474
:1012D00096E1C916D1041CF0E3E2CE2ED12CEFEF3B
:1012E000CE1ADE0AF2E2CF16D10424F32CDB2B81D6
:1012F0003C812F5F3F4F3C832B8326303105A1F685
:1013000045E850E066E080E045DB41E950E067E019
:1013100080E040DB60EB74E080E090E01CDA45DACE
:101320001B012C0180E070DE019709F0B7C23DDAA5
:101330006219730984099509613D7740810591051A
:101340008CF382E061DE019709F08FC260E090E0EB
:1013500080E052D560E081E090E04ED540EA50E078
:1013600060E088E017DB81E08B8380E04DDE019751
:10137000E1F3FB81F1114AC468EE73E080E090E094
:10138000EAD97ADB62DB1092710110927001F0925F
:101390006F01E0926E0181E090E090936D01809387
:1013A0006C0110926B0110926A0110926901109207
:1013B000680126E930E03093670120936601F092DE
:1013C0006501E09264018FB7F894E2EAF7E0F093E8
:1013D0003B01E0933A018FBF85B78C7F816085BF69
:1013E0008BB780648BBF28DAECD900916E01109125
:1013F0006F0117FD85C380916301883308F44BC0EA
:10140000E0D91ADA20916C0130916D012F5F3F4FC6
:101410003C832B8330936D0120936C012330310585
:1014200019F02530310531F40F5F1F4F10936F0114
:1014300000936E0180916401909165018330910564
:101440002CF401969093650180936401809166016C
:1014500090916701833391052CF049979093670130
:1014600080936601F2DA4BEC50E061E085E292DABB
:101470004B815C8161E070E08BE490E0E1DD41E470
:1014800063E083E248DD09DE64EC79E080E090E02F
:1014900062D9DBDA2BDB8091430190914401019604
:1014A000909344018093430120916601309167013C
:1014B000821793071CF1109244011092430180910E
:1014C00064019091650140E0E42FF0E0E817F9072E
:1014D000ACF4EE0FFF1FDF01AB5BBE4F2D913C91D3
:1014E0001197232B09F0DCC1E55AFE4F80E480837D
:1014F00080E1818381E090E08D939C9385E491E08D
:101500009F838E836BE5262E61E0362E810119863E
:101510001886EE81FF8181919191FF83EE8301977F
:1015200009F054C048845984440C551C9201225B34
:101530003E4F3C832B83F90180819181813091055D
:1015400009F4CAC10CF0AEC1892B09F4CEC1809157
:101550006A0190916B01019690936B0180936A01EF
:101560000597ACF080914B01811119828091410166
:10157000909142018739910534F08091400131E02A
:1015800083278093400110926B0110926A01C2017F
:10159000855A9E4F6C014C018B0C911CF4016080AC
:1015A0008981860D8083F8016181808156D90197F8
:1015B00009F0A5C1F40160828DD324E030E040E061
:1015C00050E041D4EB81FC817183608328853985AB
:1015D0002F5F3F4F398728870E5F1F4F233031051C
:1015E00009F097CF809168019091690101969093DD
:1015F0006901809368010397ECF080914C01909110
:101600004D01892B09F0B3C180914B0121E030E0FD
:1016100030934D0120934C0190E064E670E05AD481
:10162000BC0160577E4F84E190E0BCDC1092690100
:101630001092680180914B018823E1F08091410173
:101640009091420101969093420180934101883C20
:10165000910584F010924B011092420110924101C9
:101660001092400110926B0110926A011092690170
:1016700010926801009154011091550110933F019F
:1016800000933E0180913C0190913D019093550162
:10169000809354018130910509F4C6C10CF06EC1EC
:1016A000892B09F48DC180915401909155018130AD
:1016B000910509F40BC20CF0D0C1892B09F4E4C1E7
:1016C000EBE5F1E095E124E68181811110C238E378
:1016D00031832083329681E0E336F807A9F7D12CD5
:1016E0001C821B828091610190E0F101208130E039
:1016F000AC0147505109241735070CF447C0079631
:10170000821793070CF442C08091620190E021811E
:1017100030E0AC014750510924173507BCF107965A
:10172000821793079CF180914B01882309F4E5C14E
:10173000EB81FC81E859FF4F8081F1018083EB81CF
:10174000FC81EC59FF4F8081F1018183EB81FC81A9
:10175000EE0FFF1FEB5BFE4F118210820CEB12E0CD
:10176000B8018EE190E01EDC02531109083C11051E
:10177000B9F780917001909171010A96909371016F
:101780008093700110924401109243012B813C819F
:101790002F5F3F4F3C832B8332E0230E311C8B8124
:1017A0009C818330910509F09DCFDD20D9F1909384
:1017B00055018093540181E090E090934D01809316
:1017C0004C0194D91C821B826B817C8182E390E066
:1017D000E9DBEB81FC81F296FC83EB83E43FF14093
:1017E00099F710924D0110924C0180D96B817C8148
:1017F00082E390E0D7DB8B819C81C2969C838B83B4
:10180000883E934099F760EB74E080E090E0A3D7C6
:1018100080916E0190916F01019790936F01809379
:101820006E01CFD780915A018130E9F4BED7AB0168
:10183000BC018091560190915701A0915801B0913F
:101840005901C496A11DB11D84179507A607B707B6
:1018500050F482E0D9DB892B31F480E0D5DB892B91
:1018600011F410925A0142D9C0CD809175018111B5
:101870000BC081E08093750143EB50E060E080E2B3
:1018800089D891E09B8371CD109275014EEB50E0A9
:1018900060E08FE17FD8E1E0EB8367CD1B8265CD0F
:1018A0004F5F12CE8230910569F0039709F04FCE59
:1018B00042E0742EA12C3FEF3A83BB24B3948FEF08
:1018C000898345CEF1E0FA8377247394AA24A39404
:1018D000B12C2FEF29833BCE91E09A83E1E0E9839D
:1018E000712CA12CBB24B39432CEF1E0F98333E008
:1018F000732EAA24A3942FEF2A83B12C28CE23E0A1
:10190000622E1D828A2C912CC80CD91CF601808174
:10191000FA818F0FF6018083F801618180819DD764
:10192000019711F4F1E0FD836A946110EFCF2D81EE
:10193000211111C0CFD124E630E040E050E083D245
:10194000633371058105910534F0872D90E0EB81BB
:10195000FC8191838083F201E55AFE4FE80DF91D69
:101960008A816DEFAED29081890F80832FCE109245
:101970004D0110924C0164EA71E055CE8230910520
:10198000D1F1039709F08FCED09062016FEF6D0D0A
:10199000609362018091610160D7019721F41093F7
:1019A0005501009354012885398521503109398723
:1019B0002887232B49F7D394D394D092620173CE16
:1019C000D090610181E08D0D809361016091620191
:1019D00044D7019721F41093550100935401888551
:1019E0009985019799878887892B51F7DA94DA943A
:1019F000D092610158CED09061018FEF8D0D809310
:101A000061016091620129D7019721F4109355017A
:101A100000935401E885F9853197F987E887EF2B22
:101A200051F7D394D394E4CFD090620161E06D0D6F
:101A3000609362018091610110D7019721F41093A6
:101A40005501009354018885998501979987888766
:101A5000892B51F7DA94DA94B0CF8230910529F1CD
:101A6000039709F02DCE309162013B83632F6150C3
:101A70006093620180916101F0D6019709F020CE58
:101A80008B81809362011CCE909161019B83892F91
:101A90008F5F8093610160916201DFD6019709F049
:101AA0000FCEEB81E09361010BCEF0916101FB83DE
:101AB0008F2F81508093610160916201CED6019792
:101AC00009F0FECD2B8120936101FACD9091620146
:101AD0009B83692F6F5F6093620180916101BDD626
:101AE000019709F0EDCDEB81E0936201E9CD8833F8
:101AF00008F4F0CD11829083EDCDDD24D39446CE51
:101B000090E080E071D1282F30E0922F88279C83CD
:101B10008B83909374018093730181E090E064D192
:101B2000EB81FC81E82BF0937401E0937301109238
:101B300072016091700170917101E617F7077CF4F2
:101B4000709374016093730181E090E055D16091CE
:101B5000710190E080E050D181E08093720175D7EF
:101B600040E661E08BE0D7D940E663E08BE0D3D973
:101B700042ED50E062E08BE00DD78FDA8091720188
:101B800081110EC043EE50E067E085E103D740913C
:101B900073015091740167E070E088E590E050DADD
:101BA0006CED75E080E090E0D6D5809172018823DD
:101BB00069F14BD740E661E08BE0ADD940E663E0E8
:101BC0008BE0A9D94FEE50E062E08AE0E3D6409185
:101BD00073015091740165E070E082E390E030DAC7
:101BE0002CEB32E03C832B836B817C818EE190E097
:101BF000D9D98B819C81C2979C838B83883C91052A
:101C000099F76CED75E080E090E0A5D51ED78EEADF
:101C100011D7379885B7877E806185BF85B7806289
:101C200085BF85B7806285BF889585B78F7D85BF65
:101C300085B78F7D85BF379A8FEAFCD61BCB8F92F5
:101C40009F92AF92BF92CF92DF92EF92FF92CF938B
:101C5000DF93EC01688179818A819B81611571052F
:101C60008105910521F464E279ED8BE597E02DE1A2
:101C700033EF41E050E0E7D049015A0127EA31E46F
:101C800040E050E0C7D06B017C012CEE34EF4FEF09
:101C90005FEFC501B401BED0C60ED71EE81EF91E07
:101CA000F7FE06C081E0C81AD108E10880E8F80A0A
:101CB000C882D982EA82FB82C701B6019F77DF9191
:101CC000CF91FF90EF90DF90CF90BF90AF909F901B
:101CD0008F9008958F929F92AF92BF92CF92DF9292
:101CE000EF92FF92609160007091610080916200BC
:101CF00090916300611571058105910521F464E2FD
:101D000079ED8BE597E02DE133EF41E050E09BD09A
:101D100049015A0127EA31E440E050E07BD06B01F1
:101D20007C012CEE34EF4FEF5FEFC501B40172D0B0
:101D3000C60ED71EE81EF91EF7FE06C081E0C81ABF
:101D4000D108E10880E8F80AC0926000D0926100F2
:101D5000E0926200F0926300C701B6019F77FF90A6
:101D6000EF90DF90CF90BF90AF909F908F900895AD
:101D700060936000709361008093620090936300B1
:101D80000895BB274A3031F4992322F4BDE290959F
:101D900081959F4F01C0BB27FB015527AA27880FBC
:101DA000991FAA1FA41710F0A41B83955051B9F7CF
:101DB000A05DAA3308F0A95DA193009779F7B1114E
:101DC000B1931192CB0100C0DC01FC01672F71912E
:101DD0007723E1F7329704C07C916D937083629111
:101DE000AE17BF07C8F30895E199FECF9FBB8EBB26
:101DF000E09A99278DB30895262FE199FECF1CBA5A
:101E00009FBB8EBB2DBB0FB6F894E29AE19A0FBE32
:101E100001960895EE27FF27AA27BB2708C0A20F27
:101E2000B31FE41FF51F220F331F441F551F969544
:101E300087957795679598F37040A9F7009799F77C
:101E4000BD01CF010895052E97FB16F400940FD025
:101E500057FD05D014D007FC02D046F408C05095B9
:101E60004095309521953F4F4F4F5F4F0895909586
:101E70008095709561957F4F8F4F9F4F0895A1E298
:101E80001A2EAA1BBB1BFD010DC0AA1FBB1FEE1FF4
:101E9000FF1FA217B307E407F50720F0A21BB30B3F
:101EA000E40BF50B661F771F881F991F1A9469F7BB
:101EB00060957095809590959B01AC01BD01CF0117
:101EC0000895002480FD060E660F11F08695D1F767
:101ED000802D08950024552704C0080E591F880F2F
:101EE000991F009729F076956795B8F37105B9F7B2
:0A1EF000802D952F0895F894FFCF80
:101EFA00010000001C1C1C2842374D37502041208D
:101F0A00432D4D2041204E00616E6479206A616341
:101F1A006B736F6E00696E737069726564206279A3
:101F2A0000776562626F67676C65732E636F6D0019
:101F3A002D484947482053434F524520524553455F
:101F4A00542D002D2D204D555445202D2D002D208A
:101F5A00534F554E44204F4E202D004C4556454C6C
:101F6A003A00472041204D204520204F2056204549
:101F7A00205200484947482053434F52453A0020CF
:101F8A004E455720484947482053434F5245200061
:00000001FF
