:10000000D5C0A9C4D5C4F7C0F6C05BC4F4C0F3C062
:10001000F2C0F1C0F0C0EFC0EEC0EDC0ECC0000017
:1000200000000000000808080808000060600000E8
:10003000003C4030403C003E5149453E0000427F7C
:100040004000004261514946002141454B310018B2
:1000500014127F10002745454539003C4A49493074
:10006000000171090503003649494936000649492E
:10007000291E000036360000007C1211127C007F21
:1000800049494936003E41414122007F4141221CFD
:10009000007F49494941007F09090901003E414962
:1000A000497A007F0808087F0000417F4100002056
:1000B00040413F01007F08142241007F4040404002
:1000C000007F020C027F007F0408107F003E414148
:1000D000413E007F09090906003E4151215E007F33
:1000E000091929460046494949310001017F0101AA
:1000F000003F4040403F001F2040201F003F40384D
:10010000403F00631408146300070870080700618B
:1001100051494543002054545478007F48444438A2
:1001200000384444442000384444487F0038545444
:10013000541800087E0901020018A4A4A47C001C25
:10014000A0A0A07C0000447D4000004080847D0091
:10015000007F102844000000417F4000007C04180C
:100160000478007C0804047800384444443800FCD7
:10017000242424180018242418FC007C08040408F3
:1001800000485454542000043F444020003C404068
:10019000207C001C2040201C0000000036000202D1
:1001A00002020202010204081020AA0B11241FBE41
:1001B000CFE5D2E0DEBFCDBF11E0A0E6B0E0E2ECDB
:1001C000FCE102C005900D92A232B107D9F721E0FF
:1001D000A2E2B1E001C01D92A93AB207E1F710E036
:1001E000C6EDD0E003C02197FE013FDCC53DD1073D
:1001F000D1F707D464CD04CF3FB7F8948091A5011F
:100200009091A601A091A701B091A80122B708B6CC
:1002100001FE05C02F3F19F00196A11DB11D3FBF82
:10022000BA2FA92F982F8827BC01CD01620F711D0D
:10023000811D911D43E0660F771F881F991F4A9506
:10024000D1F70895CF92DF92EF92FF92CF93DF9391
:100250006B017C01D1DFEB01CFDF6C1B7D0B683EB6
:100260007340A0F0C114D104E104F10439F4DF912A
:10027000CF91FF90EF90DF90CF90089581E0C81A62
:10028000D108E108F108C851DC4FE6CFC114D10410
:10029000E104F10409F7EBCFEAE3F1E011921186F2
:1002A000138A81E0E434F807C9F781E080933A01CA
:1002B00080934E0180933C018093500180933E01D6
:1002C00080935201809340018093540180934201B6
:1002D00080935601809345018093470180934901A3
:1002E00080934B01089530E020E090E0AC01022EB5
:1002F00001C0440F0A94EAF747FF0CC0C39AC49A9E
:10030000C4982F5F3F4F2830310581F7C39AC49AB4
:10031000C4980895C398F3CF8130910581F488E99A
:10032000E2DF8CE5E0DF86EBDEDF8FE5DCDF8FE50B
:10033000DADF86EBD8DF8CE5D6DF88E9D4CF8230F0
:10034000910581F480E3CFDF8EE3CDDF83EBCBDF5C
:100350008DE5C9DF8DE5C7DF83EBC5DF8EE3C3DF46
:1003600080E3ECCF8330910581F488E1BCDF88E342
:10037000BADF84E3B8DF84E3B6DF84E3B4DF84E389
:10038000B2DF88E3B0DF88E1D9CF892B81F480E048
:10039000AADF80E0A8DF80E0A6DF80E0A4DF80E0C5
:1003A000A2DF80E0A0DF80E09EDF80E0C7CF08957D
:1003B000C498C398C49AC39A0895C49AC39AC39818
:1003C000C4980895CF93DF93C82FD62FF6DF88E720
:1003D0008ADF80E088DF80EB8D0F85DF8C2F8295B0
:1003E0008F70806180DF8C2F8E7081607CDFDF9169
:1003F000CF91DECF683008F4E5CF0895DEDF88E7DF
:1004000072DF80E470CFEF92FF920F931F93CF9330
:10041000DF93EC018C01060F171F0C171D078CF0E2
:100420006C2F80E0E7DFEADF80E1E82EF12C90E03E
:1004300080E072DF81E0E81AF108C9F7B9DF2196A0
:10044000ECCFDF91CF911F910F91FF90EF90089526
:10045000BF92CF92DF92EF92FF920F931F93CF93B1
:10046000DF93B82E8B01EB0177FD279693E0D595AE
:10047000C7959A95E1F7C801877099276C2F892B4A
:10048000A9F18B2DB7DFBADFC80168E070E0C6DAEA
:10049000D82F8EE7C82ED12CE12CF12CD701C60124
:1004A0000D2E04C0880F991FAA1FBB1F0A94D2F7F4
:1004B0001ADF7EDF6C2F6F5F8B2D9CDF9FDF88E064
:1004C0008D1BA701960104C0559547953795279533
:1004D0008A95D2F7C90107DFDF91CF911F910F9164
:1004E000FF90EF90DF90CF90BF9062CF8B2D82DF97
:1004F00085DF8EE7F0CF67E080919E0163DF7EDFCE
:1005000080E0F1DE80E0EFDE80ECEDDE80ECEBDE23
:1005100080ECE9DE80ECE7DE80ECE5DE80EFE3DE18
:1005200080EFE1DE80EFDFDE80EFDDDE80ECDBDE22
:1005300080ECD9DE80ECD7DE80ECD5DE80ECD3DE3B
:1005400080E0D1DE80E0CFDE33CFAF92BF92CF929A
:10055000DF92EF92FF920F931F93CF93DF93D82FE9
:10056000E62E6A01F12CF601EF0DF11D8081882342
:1005700069F1C0E0803251F0C4EDC80FC03130F0F5
:10058000CEECC80FC93210F0C5ECC80FDF3710F041
:10059000E394D0E06E2D8D2F2DDF30DF8C2F90E097
:1005A00066E070E02ADA10E000E0825E9F4F5C01B6
:1005B000F501E00FF11F849196DE0F5F1F4F0630AB
:1005C0001105B1F7F5DEDA5FF394CDCFDF91CF916E
:1005D0001F910F91FF90EF90DF90CF90BF90AF9061
:1005E0000895CF93C82FE9DE88E77DDE80E07BDECB
:1005F0008C2F79DECF91DCCECF93DF93C0EB8C2FA5
:10060000F0DF80E0EEDF80E1ECDFF8DED0E080E0DC
:100610006ADEDF5FD038D9F7CBDECF5FC83B79F732
:10062000DF91CF910895BB9ABC9A8EEADADF80E021
:10063000D8DF80E1D6DF80E4D4DF81E8D2DF8FEC41
:10064000D0DF81EACEDF88ECCCDF86EACADF88EA39
:10065000C8DF8FE3C6DF83EDC4DF80E0C2DF85ED56
:10066000C0DF80E8BEDF89EDBCDF81EFBADF8AED55
:10067000B8DF82E1B6DF8BEDB4DF80E4B2DF80E289
:10068000B0DF82E0AEDF8DE8ACDF84E1AADF84EA90
:10069000A8DF86EAA6DF8FEAA4CF90B79F7D90BF40
:1006A000811105C08FB7F894C1988FBF08958FB797
:1006B000F894C19AFACFCF92DF92EF92FF920F9304
:1006C0001F93CF93DF9320919D0121111DC06B01DA
:1006D0007C0110E000E081E0E0DFD0E0C0E0CC167B
:1006E000DD0619F000002196FACF80E0D6DF90E019
:1006F00080E0C817D90719F000000196FACF0F5F04
:100700001F4FE016F1063CF7DF91CF911F910F913B
:10071000FF90EF90DF90CF90089590E0FC01EC55B2
:10072000FE4F2491FC01E256FE4FE491EE2371F05E
:10073000F0E0EE0FFF1FE856FE4FA591B491EC914B
:10074000E22381E090E021F480E0089580E090E0F1
:10075000089580E0E2DF019719F481E080936C0155
:100760000895EF92FF920F931F93CF93DF93CDB72E
:10077000DEB72A970FB6F894DEBF0FBECDBFF82EB6
:10078000E62ECA018E010F5F1F4F2AE0F801119279
:100790002A95E9F74AE0B80190D8A8016E2D8F2D6F
:1007A000D4DE2A960FB6F894DEBF0FBECDBFDF9120
:1007B000CF911F910F91FF90EF900895CF93DF930A
:1007C000EC0110926C0110923501109234011092DC
:1007D0006F011092700110927101109272011092CB
:1007E0009101109292011092930110929401109233
:1007F0006E0110926D01109263011092620188E007
:1008000090E0909362008093610010922701109213
:100810002601909325018093240182E090E090933B
:1008200064008093630010922B0110922A011092B1
:100830002D0110922C011092290110922801109282
:100840006B0110926A011092690110926801109276
:1008500065011092640181E08093600080E490E083
:1008600090939F0180939E01C7DE44EE50E063E0C9
:1008700080E16BDE4BE650E064E080E166DE44EE52
:1008800050E065E080E161DEAE0164E070E085E5A6
:1008900090E067DF60E273E08EE190E00CDF68E5F6
:1008A00072E08EE190E007DF60E971E08EE190E0B8
:1008B00002DF6CEB72E080E090E0C4DCDF91CF916E
:1008C0009BCE1F920F920FB60F9211242F933F933E
:1008D0008F939F93AF93BF938091A1019091A201B9
:1008E000A091A301B091A4013091A00126E0230FB3
:1008F0002D3768F129E8230F0396A11DB11D209320
:10090000A0018093A1019093A201A093A301B093B1
:10091000A4018091A5019091A601A091A701B09199
:10092000A8010196A11DB11D8093A5019093A60178
:10093000A093A701B093A801BF91AF919F918F9110
:100940003F912F910F900FBE0F901F901895029618
:10095000A11DB11DD4CF1F920F920FB60F9211247B
:100960002F933F934F935F936F937F938F939F93B7
:10097000AF93BF93EF93FF93809122019091230156
:10098000892B29F0E0912201F09123010995FF9133
:10099000EF91BF91AF919F918F917F916F915F91F7
:1009A0004F913F912F910F900FBE0F901F90189570
:1009B0001F920F920FB60F9211242F933F934F93D4
:1009C0005F936F937F938F939F93AF93BF93EF93B7
:1009D000FF9382E0A2DE019719F481E080936C011D
:1009E000FF91EF91BF91AF919F918F917F916F9107
:1009F0005F914F913F912F910F900FBE0F901F90DD
:100A0000189580E886BD91E096BD83E08ABD83BFDE
:100A1000789489B7826089BF80E48CBD8FEF8DBDEB
:100A200087EC80BF86E886B982E087BB95BB8BB731
:100A300080628BBF789478EE872E73E0972EA12C7E
:100A4000B12CF1DDD9DD47E750E061E080E07DDDEC
:100A500041E850E062E084E078DD4DE850E064E099
:100A600080E073DD61E085E5ADDCC8DC81E090E02D
:100A700053DC90E080E050DC81E090E04DDC98DCDD
:100A800062E085E59FDCBADC90E080E045DC82E056
:100A900090E042DC90E080E03FDC8ADC63E085E5CA
:100AA00091DCACDC90E080E037DC90E080E034DC8E
:100AB00081E090E031DC90E080E02EDC81E090E0AD
:100AC0002BDC76DC80E690E090939F0180939E0182
:100AD00012DD8FB7F894C090A101D090A201E090F0
:100AE000A301F090A4018FBF80E017DE019709F009
:100AF000C9C12FB7F8948091A1019091A201A09152
:100B0000A301B091A4012FBF8C199D09AE09BF09A3
:100B1000813D9740A105B1053CF382E0FEDD0197E0
:100B200009F09DC160E090E080E002D760E081E0E4
:100B300090E0FED64AE950E060E088E006DDC1E0E2
:100B400080E0EBDD0197E1F3C11159C5C0E7D0E0CA
:100B50001C2F8C2F8052883120F4BE0188E690E053
:100B600077DC1032A9F463E084E62CDC47DC90E00B
:100B700080E0D2DB1DDC64E084E624DC3FDC90E036
:100B800080E0CADB15DC64E670E08EE190E093DD86
:100B900060E0812F17DC32DC83E090E0BDDB90E089
:100BA00080E0BADB05DCA7DC64E170E080E090E087
:100BB00049DB219769F660E080E004DC1FDC90E00F
:100BC00080E0AADB90E080E0A7DBF2DB47EC50E0BE
:100BD00066E080E0BADC43ED50E067E080E0B5DC41
:100BE0006CED75E080E090E02DDB1DDD05DD109201
:100BF0009C0110929B0110929A0110929101109207
:100C00009201109293011092940181E090E09093F0
:100C100066008093650010929901109298011092DD
:100C200074011092730110927A011092790110925E
:100C3000800110927F01109286011092850110921E
:100C40008C0110928B0128DB81E090E0B7DD8FB73B
:100C5000F89429EA33E030932301209322018FBFD7
:100C600085B78C7F816085BF8BB780648BBF222462
:100C70002394312C80919C01811122C480916F01B9
:100C800090917001A0917101B09172010196A11D26
:100C9000B11D80936F0190937001A0937101B09387
:100CA00072018091910190919201A0919301B09174
:100CB00094010196A11DB11D809391019093920121
:100CC000A0939301B093940180916D0190916E0176
:100CD000019690936E0180936D0117B887B187B923
:100CE000369A3699FECF84B195B18C3A93401CF474
:100CF00081E080936C0182E010DD019799F480E03F
:100D00000CDD019719F481E080936C0180919E01C4
:100D100090919F018F3691052CF4019690939F013D
:100D200080939E0180E0F9DC019799F482E0F5DC84
:100D3000019719F481E080936C0180919E0190915C
:100D40009F01823091052CF0019790939F01809331
:100D50009E0180916A0190916B01892BD1F456D547
:100D6000A50194010CD6673E73408105910589F475
:100D700080916801909169011816190654F4309217
:100D80006B0120926A018FE690E090936701809357
:100D900066015AE3E52E51E0F52ED0E0C0E08091E7
:100DA0006300909164008C179D070CF476C06091ED
:100DB00068016C0F80916401880F880F880F1ADB1F
:100DC0001DDB00916201109163016E01E894C1F88E
:100DD0008091610090916200801791070CF457C0D8
:100DE000F701E00FF11F8081813009F04DC0809143
:100DF000630090916400C817D90731F507D5209199
:100E000065003091660047EE442E43E0542E421AAE
:100E1000530A052C000C66087708A5019401AFD58C
:100E200046165706680679067CF4E3E7F1E090E0A1
:100E300080E0208131812130310509F05CC40196C8
:100E4000369685309105A9F781E090E0C114D10470
:100E500011F082E090E060DA0F5F1F4FB9CF809110
:100E60009D01811108C081E080939D014DEA50E011
:100E700060E080E263CE10929D0148EB50E060E0BC
:100E800087E15CCEC0E05CCE90E080E0E4CF90DA19
:100E900021962AE0E20EF11C82CF40919A015091F6
:100EA0009B0166E070E090E080E05BDC0091610017
:100EB000109162008091620190916301081B190BEF
:100EC000B8E0EB2EF12CE01AF10AD0E0C0E0CE152C
:100ED000DF051CF410DB2296FACF80916D01909112
:100EE0006E0103977CF110926E0110926D0180915A
:100EF0006A0190916B01892B29F1C0916601D09113
:100F0000670160E08C2F5EDA79DA83E090E004DA42
:100F100090E080E001DA4CDA2197D0936701C0932A
:100F20006601CD2B79F410926B0110926A0160E09A
:100F300080E048DA63DA90E080E0EED990E080E08B
:100F4000EBD936DA809165009091660001976BEFDE
:100F50007FEF53D5845A9F4F092E000CAA0BBB0B71
:100F600040916F0150917001609171017091720117
:100F7000481759076A077B078CF110926F0110928E
:100F80007001109271011092720180916401909130
:100F90006501E0906300F0906400C0916801D09119
:100FA000690120916000222309F4EBC12EE030E0BA
:100FB000201B310B821793070CF4DDC110926000E7
:100FC000B701CE0120DA2196D0936901C093680160
:100FD000B701809168019091690115DA80916C01E7
:100FE0008130C9F48091340190913501892B99F4B5
:100FF000309235012092340180919E0190919F01A1
:101000000896909337018093360188E390E090939F
:101010003901809338018091910190919201A091C2
:101020009301B09194010297A105B1050CF407C397
:1010300010929101109292011092930110929401DA
:1010400080913401909135010197D9F4C091380114
:10105000D091390110913601BE01812F9091370155
:10106000F7D9209709F096C160E0812FABD9C6D996
:1010700080E039D99DD91092350110923401109237
:101080006C018091640190916501A3E0880F991F24
:10109000AA95E1F7909333018093320120916C017E
:1010A000213009F0DDC10091360110913701B801FE
:1010B000681B790B77FF02C0695F7F4FF3E075957E
:1010C0006795FA95E1F7072E000C880B990B6BD505
:1010D0006B017C016091620170916301072E000C2D
:1010E000880B990B60D59B01AC01C701B601C4D434
:1010F00027D57093310160933001C0913801D091B0
:101100003901BE01D7FF02C0695F7F4FE3E07595EB
:101110006795EA95E1F7072E000C880B990B43D5EC
:101120006B017C016091680170916901072E000CD0
:10113000880B990B38D59B01AC01C701B6019BD434
:10114000FFD470932F0160932E0180916A019091DA
:101150006B01019709F04FC0809166019091670182
:10116000081719070CF447C00896801791070CF46C
:1011700042C029970CF03FC049D323E630E040E05D
:1011800050E0FDD3AB01BC014F5F5F4F6F4F7F4F0E
:1011900080919A0190919B014E3151056105710535
:1011A0000CF0FEC0C29690939B0180939A0160E977
:1011B00071E08EE190E07FDA6CE271E08EE190E028
:1011C0007ADA68EC70E08EE190E075DA64E670E05F
:1011D0008EE190E070DA10926B0110926A0160E08B
:1011E00080916601EFD80AD990E080E095D890E030
:1011F00080E092D8DDD8209136013091370180917E
:10120000320190913301281739070CF429C1C0919C
:101210002E01D0912F01D7FD23C1E0906300F09003
:101220006400EC16FD060CF41BC100913001109116
:1012300031010930110508F013C1CE016AE070E0F8
:10124000DCD3865C9E4FFC01E00FF11F8081813072
:1012500009F006C1C230D10509F0B5C080912C015A
:1012600090912D01019690932D0180932C018091F6
:101270002C0190912D018530910521F4309264006C
:101280002092630040912A0150912B014430510576
:1012900031F4059721F4109264001092630083E00A
:1012A00090E08C1B9D0B6AE070E0A7D340919A01FF
:1012B00050919B01840F951F90939B0180939A01FD
:1012C00080912801909129010196909329018093A2
:1012D0002801D0906801C09069016C2F6D0D6F5F7F
:1012E000822F88D88BD880E0FED762D864E670E081
:1012F0008EE190E0E0D910926C01109235011092CD
:101300003401109237011092360187E090E09093FB
:10131000390180933801CE016AE070E06ED3865CBB
:101320009E4FFC01E00FF11F10824091610050912F
:10133000620080916201909163010817190709F01A
:1013400065C08091260190912701FA01E65CFE4F6D
:101350009A01201731070CF444C06081613031F0EC
:101360006285613019F06489613009F4C901215046
:1013700031093197EECF0196909365018093640116
:1013800027CE1816190624F081E08093600018CE4D
:101390000197F2CF2197D0933901C093380171CED4
:1013A0004C335105610571051CF48C599F4FFBCEE0
:1013B0004A355105610571051CF48A569F4FF3CEDD
:1013C000845D9E4FF0CEC130D10509F050CF8091A1
:1013D0002A0190912B01019690932B0180932A0171
:1013E00046CF90932701809326019C01201B310B4F
:1013F0006091640170916501260F371F309365017C
:101400002093640190936301809362014017510718
:1014100019F580916201909163013091240120912E
:101420002501FC01E65CFE4F481759076CF06191FD
:10143000613031F06185613019F06389613011F4F8
:10144000382F292F0196F0CF3093240120932501C6
:101450003093610020936200B7018D2D9C2DD3D76E
:10146000C3E7D1E088819981019709F0E1C00C813F
:101470001D81B8018A819B81EBD70F5F1F4F1D83B0
:101480000C83083311050CF4D3C067E08A819AD726
:10149000B5D780E028D78CD7198218822A813B8162
:1014A00080919E0190919F01821793070CF0C0C01C
:1014B0004096281739070CF0BBC081E080939C014F
:1014C00090E080E02DD2C82FD0E0DC2FCC27D09345
:1014D0009901C093980181E090E022D2C82BD0936B
:1014E0009901C093980160919A0170919B01C61770
:1014F000D7077CF4709399016093980181E090E0A4
:1015000017D260919B0190E080E012D281E080933D
:101510009501809198019091990190939701809302
:1015200096016AD842EE50E061E08BE00ED843EFBE
:1015300050E062E08BE009D842EE50E063E08BE0DF
:1015400004D849E051E065E085E2FFD740919A0177
:1015500050919B0165E070E08BE490E002D98091AE
:10156000950181110EC044E051E067E085E1EDD7BF
:10157000409196015091970167E070E088E590E016
:10158000F0D8D0E0C0E0BE0182E390E094D8E296CB
:10159000C83E93E0D907B9F760ED77E080E090E0CE
:1015A00051D680919501882351F126D842EE50E022
:1015B00061E08AE0CAD740E151E063E08AE0C5D744
:1015C00042EE50E067E08AE0C0D74091960150912A
:1015D000970165E070E082E390E0C3D8CCEBD2E005
:1015E000BE018EE190E067D8E297C83CD105C1F713
:1015F000109295016CE87AE080E090E023D6FCD769
:101600008EEAEFD7379885B7877E806185BF85B72B
:10161000806285BF85B7806285BF889585B78F7DDD
:1016200085BF85B78F7D85BF379A8FEADAD709CA1C
:10163000269681E991E08C179D0709F013CF8091E0
:101640002801909129010E9751F510927401109282
:10165000730110927A011092790110928001109218
:101660007F01109286011092850110928C011092D8
:101670008B011092920110929101809165009091DE
:101680006600019680319105DCF4909366008093AA
:101690006500809165009091660090D8FDD580919D
:1016A0006801909169018530910569F4809163002A
:1016B00090916400029781F481E080939C01DACAE2
:1016C0008FE090E0E2CF8630910561F48091630075
:1016D00090916400019781F380919C018111ECCF7E
:1016E0000AD7CCCA0797C1F7809163009091640034
:1016F000892B91F7E1CF66E070E07FD1FC01ED58D6
:10170000FE4F81E090E0918380838091620190910F
:1017100063019801281B390B809164019091650148
:10172000820F931F23E0880F991F2A95E1F70496F3
:101730009383828320916801309169012C0F3D1FB2
:101740002F5F3F4F43E0220F331F4A95E1F7358368
:1017500024837ACB80916201909163019093270159
:101760008093260180916100909162009093250101
:101770008093240108958F929F92AF92BF92CF924F
:10178000DF92EF92FF92CF93DF93EC016881798132
:101790008A819B81611571058105910521F464E2BF
:1017A00079ED8BE597E02DE133EF41E050E0E7D0B4
:1017B00049015A0127EA31E440E050E0C7D06B010B
:1017C0007C012CEE34EF4FEF5FEFC501B401BED0CA
:1017D000C60ED71EE81EF91EF7FE06C081E0C81A25
:1017E000D108E10880E8F80AC882D982EA82FB823F
:1017F000C701B6019F77DF91CF91FF90EF90DF9007
:10180000CF90BF90AF909F908F9008958F929F92AE
:10181000AF92BF92CF92DF92EF92FF9260916700FA
:10182000709168008091690090916A00611571055E
:101830008105910521F464E279ED8BE597E02DE1D6
:1018400033EF41E050E09BD049015A0127EA31E4EF
:1018500040E050E07BD06B017C012CEE34EF4FEF89
:101860005FEFC501B40172D0C60ED71EE81EF91E87
:10187000F7FE06C081E0C81AD108E10880E8F80A3E
:10188000C0926700D0926800E0926900F0926A000E
:10189000C701B6019F77FF90EF90DF90CF90BF9088
:1018A000AF909F908F900895609367007093680049
:1018B0008093690090936A000895BB274A3031F401
:1018C000992322F4BDE2909581959F4F01C0BB27DB
:1018D000FB015527AA27880F991FAA1FA41710F0EC
:1018E000A41B83955051B9F7A05DAA3308F0A95DF8
:1018F000A193009779F7B111B1931192CB0100C078
:10190000DC01FC01672F71917723E1F7329704C066
:101910007C916D9370836291AE17BF07C8F30895F1
:10192000E199FECF9FBB8EBBE09A99278DB30895B6
:10193000262FE199FECF1CBA9FBB8EBB2DBB0FB6E5
:10194000F894E29AE19A0FBE01960895EE27FF27D8
:10195000AA27BB2708C0A20FB31FE41FF51F220F41
:10196000331F441F551F969587957795679598F374
:101970007040A9F7009799F7BD01CF010895052E92
:1019800097FB16F400940FD057FD05D014D007FC38
:1019900002D046F408C050954095309521953F4FB0
:1019A0004F4F5F4F089590958095709561957F4F4B
:1019B0008F4F9F4F0895A1E21A2EAA1BBB1BFD015A
:1019C0000DC0AA1FBB1FEE1FFF1FA217B307E4071E
:1019D000F50720F0A21BB30BE40BF50B661F771F76
:1019E000881F991F1A9469F7609570958095909556
:1019F0009B01AC01BD01CF0108950024552704C00F
:101A0000080E591F880F991F009729F07695679542
:101A1000B8F37105B9F7802D952F089597FB072E20
:101A200016F4009406D077FD08D00BD007FC05D043
:101A30003EF4909581959F4F0895709561957F4FE5
:101A40000895AA1BBB1B51E107C0AA1FBB1FA61705
:101A5000B70710F0A61BB70B881F991F5A95A9F757
:101A600080959095BC01CD010895EE0FFF1F059064
:101A7000F491E02D09945058BB27AA270ED0E5C059
:101A8000D6D030F0DBD020F031F49F3F11F41EF4BB
:101A9000CBC00EF4E095E7FBC1C0E92FE7D080F39F
:101AA000BA17620773078407950718F071F49EF55B
:101AB000FFC00EF4E0950B2EBA2FA02D0B01B9013B
:101AC00090010C01CA01A0011124FF27591B99F0B4
:101AD000593F50F4503E68F11A16F040A22F232FC0
:101AE000342F4427585FF3CF469537952795A79510
:101AF000F0405395C9F77EF41F16BA0B620B730BB7
:101B0000840BBAF09150A1F0FF0FBB1F661F771F27
:101B1000881FC2F70EC0BA0F621F731F841F48F4DC
:101B2000879577956795B795F7959E3F08F0B3CF62
:101B30009395880F08F09927EE0F9795879508954C
:101B400004D06894B111B5C0089598D088F09F571B
:101B500090F0B92F9927B751A0F0D1F0660F771FF9
:101B6000881F991F1AF0BA95C9F712C0B13081F0D9
:101B70009FD0B1E008959CC0672F782F8827B85F69
:101B800039F0B93FCCF3869577956795B395D9F73A
:101B90003EF490958095709561957F4F8F4F9F4F44
:101BA0000895E89409C097FB3EF490958095709550
:101BB00061957F4F8F4F9F4F9923A9F0F92F96E999
:101BC000BB279395F695879577956795B795F1110E
:101BD000F8CFFAF4BB0F11F460FF1BC06F5F7F4FAB
:101BE0008F4F9F4F16C0882311F096E911C07723BD
:101BF00021F09EE8872F762F05C0662371F096E8C6
:101C0000862F70E060E02AF09A95660F771F881F94
:101C1000DAF7880F9695879597F9089597F99F6752
:101C200080E870E060E008959FEF80EC0895002464
:101C30000A941616170618060906089500240A9431
:101C400012161306140605060895092E0394000CB7
:101C500011F4882352F0BB0F40F4BF2B11F460FF46
:101C600004C06F5F7F4F8F4F9F4F089557FD90586F
:101C7000440F551F59F05F3F71F04795880F97FB50
:101C8000991F61F09F3F79F087950895121613060A
:101C90001406551FF2CF4695F1DF08C01616170639
:101CA0001806991FF1CF869571056105089408956E
:101CB000E894BB2766277727CB0197F90895F89416
:021CC000FFCF54
:101CC2000108000200010001000000204C20452014
:101CD200562045204C2000532050204120432045CF
:101CE20000412054205420412043204B00616E6467
:101CF20068206A61636B736F6E002D484947482004
:101D020053434F52452052455345542D002D2D200B
:101D12004D555445202D2D002D2D20534F554E4409
:101D2200204F4E202D2D00696E73706972656420FC
:101D32006268002F6562626F67676C65732E636FFE
:101D42006D002D2D2D2D2D2D2D2D2D2D2D2D2D2DAE
:101D52002D2D00472041204D204520204F20562088
:101D620045205200484947482053434F52453A00C4
:101D7200204E455720484947482053434F5245205B
:021D820000005F
:00000001FF
