:10000000DFC1C7C9F3C9F7C1F6C179C9F4C1F3C1EA
:10001000F2C1F1C1F0C1EFC1EEC1EDC1ECC1000010
:100020000000000000000000003F00000000000091
:100030000000000C0C006030180C060301003E6349
:10004000737B6F673E000C0E0C0C0C0C3F001E33D4
:10005000301C06333F001E33301C30331E00383C4A
:1000600036337F3078003F031F3030331E001C06CC
:10007000031F33331E003F3330180C0C0C001E33AB
:10008000331E33331E001E33333E30180E000C1E59
:1000900033333F3333003F66663E66663F003C665F
:1000A000030303663C001F36666666361F007F4604
:1000B000161E16467F007F46161E16060F003C666B
:1000C000030373667C003333333F333333001E0C3A
:1000D0000C0C0C0C1E007830303033331E00676679
:1000E000361E366667000F06060646667F00637793
:1000F0007F7F6B63630063676F7B736363001C3692
:10010000636363361C003F66663E06060F001E33BF
:1001100033333B1E38003F66663E366667001E334B
:10012000070E38331E003F2D0C0C0C0C1E00333311
:10013000333333333F0033333333331E0C006363C5
:10014000636B7F7763006363361C1C366300333355
:10015000331E0C0C1E007F6331184C667F000000BC
:100160001E303E336E000706063E66663B0000000A
:100170001E3303331E003830303E33336E00000030
:100180001E333F031E001C36060F06060F0000003C
:100190006E33333E301F0706366E666667000C000E
:1001A0000E0C0C0C1E00300030303033331E0706AE
:1001B00066361E3667000E0C0C0C0C0C1E00000080
:1001C000337F7F6B630000001F3333333300000045
:1001D0001E3333331E0000003B66663E060F0000F0
:1001E0006E33333E307800003B6E66060F00000031
:1001F0003E031E301F00080C3E0C0C2C18000000A3
:10020000333333336E0000003333331E0C000000F1
:10021000636B7F7F3600000063361C36630000008E
:100220003333333E301F00003F190C263F007777F1
:1002300000007077700070007077700770077007AB
:1002400000EE7077000E7007EE0088002280082014
:1002500002882280082002882200F8003E800FE0F9
:1002600003F83E800FE003F83E000102030304059B
:100270000606070808000101020304040506070832
:10028000010101018181C1E1F1F10111F1F1E1C14E
:10029000C18181010101010101010101010101018E
:1002A00001010101FCFCFEFFFFFFFFFFFFFFFF005C
:1002B000FFFFFFFFFFFFFFFFFFFEF8000000000051
:1002C0000000000000000000FFFF7F3FBF9FCFEF56
:1002D000E7F7FBE001FBF3F7E7EFCFDFDFBFBF306E
:1002E00000000000000000000000000000FEFFFF12
:1002F000FFFFFFFFFFFFFFFF003FFFFFFFFFFFFFCD
:10030000FFFFFFFFE006FEFCFCFCF8F8F0F0E00069
:1003100000FFFF7F7F3FBF9FDFCFEFEFE400F7E7F6
:10032000EFEFCFDFDF9FBFBF3F00077FFFFFFFFF84
:10033000FFFFFFF000FCFEFEFFFFFFFFFFFFFFFFE0
:10034000FF8007FFFFFFFFFFFFFFFFFFFFFFC00E64
:100350003E1E1C1D0D0903030007FFFFFFFFFFFFEB
:10036000FFFFFF7F7F3F003F3F7F7F7F7F7FFFFF5C
:10037000FFFFFF80000000000000000080808383FA
:1003800083898D8D8C8E8E8E8F8F9F8F8F8F8F8791
:10039000868682828280808080808080808080804B
:1003A0000000000036004444C04460446006C006BB
:1003B000400E600C02020202020201020408102038
:1003C00011241FBECFE5D2E0DEBFCDBF10E0A0E616
:1003D000B0E0EEE0FDE102C005900D92A03AB10759
:1003E000D9F721E0A0EAB0E001C01D92A334B20722
:1003F000E1F70FD88ACC04CEEF92FF921F93CF93F0
:10040000DF938150282F30E0220F331F2A553C4FB5
:1004100069E171E090E0C1E0D0E081E014E0190F03
:10042000DB01F901E590F490AE01092E02C0440F02
:10043000551F0A94E2F74E215F21092E02C05695FE
:1004400047950A94E2F741305105D9F48C939F5FA8
:1004500011969113E6CF6C5F7F4F9031F9F683E1EF
:1004600090E090932A018093290183E090E090939B
:100470002C0180932B01DF91CF911F91FF90EF9082
:1004800008951C92E4CF3FB7F894809115019091A4
:100490001601A0911701B091180122B708B601FE0C
:1004A00005C02F3F19F00196A11DB11D3FBFBA2F06
:1004B000A92F982F8827BC01CD01620F711D811DC6
:1004C000911D43E0660F771F881F991F4A95D1F74A
:1004D0000895CF92DF92EF92FF92CF93DF936B015B
:1004E0007C01D1DFEB01CFDF6C1B7D0B683E7340DD
:1004F000A0F0C114D104E104F10439F4DF91CF91EB
:10050000FF90EF90DF90CF90089581E0C81AD10856
:10051000E108F108C851DC4FE6CFC114D104E10471
:10052000F10409F7EBCF0F931F93CF93DF93262F9F
:10053000E0E0683020F0603158F12F50E2E0A82F61
:10054000B0E0F0E0CD0163E070E0A7DB82549F4FA4
:10055000EC01CE0FDF1FC881022F10E0CD0163E058
:1005600070E09BDB82549F4FE80FF91F442399F002
:1005700061E070E0CB0102C0880F991F2A95E2F775
:100580009C012C2B2083DF91CF911F910F91089517
:100590002850E1E0D4CF67E070E0601B710B4FE7BB
:1005A00050E002C0559547956A95E2F76EEF70E00E
:1005B00001C0660F2A95EAF7462B4C234083E3CF10
:1005C000BF92CF92DF92EF92FF920F931F93CF9340
:1005D000DF93C82E0FE211E0C0E07801D0E0F70110
:1005E00081917F01813069F4D0903F01B09040014A
:1005F0006D2F6D0D809141018C0FC11014C041E031
:1006000092DFDF5FD43059F7CF5F0C5F1F4FC430EC
:1006100021F7DF91CF911F910F91FF90EF90DF9025
:10062000CF90BF90089540E07EDFD0922D01B09230
:100630002E01E7CF462F90E0262F30E06830C0F43F
:1006400063E070E02ADB82549F4FFC01808190E0E0
:1006500021E030E0042E02C0220F331F0A94E2F79B
:100660008223932302C0959587954A95E2F70895D2
:100670006031D0F02F50310963E070E00EDB82541E
:100680009F4FFC01828190E041E050E0022E02C0C9
:10069000440F551F0A94E2F78423952302C09595D1
:1006A00087952A95E2F708952850310963E070E0B4
:1006B000F4DA82549F4FFC018181E5CF0F931F93A1
:1006C000CF93DF93262FE0E0683020F0603158F1BF
:1006D0002F50E2E0A82FB0E0F0E0CD0163E070E041
:1006E000DCDA80569F4FEC01CE0FDF1FC881022F4E
:1006F00010E0CD0163E070E0D0DA80569F4FE80F44
:10070000F91F442399F061E070E0CB0102C0880F2B
:10071000991F2A95E2F79C012C2B2083DF91CF9122
:100720001F910F9108952850E1E0D4CF67E070E069
:10073000601B710B4FE750E002C0559547956A95D5
:10074000E2F76EEF70E001C0660F2A95EAF7462BDC
:100750004C234083E3CFDF92EF92FF920F931F93DE
:10076000CF93DF93D82E09E111E0C0E07801D0E00B
:10077000F70181917F01813051F4609129016D0F62
:1007800080912B018C0F41E0D11040E097DFDF5FBB
:10079000D43071F7CF5F0C5F1F4FC43039F7DF9152
:1007A000CF911F910F91FF90EF90DF900895462F0A
:1007B00090E0262F30E06830C0F463E070E06DDA3E
:1007C00080569F4FFC01808190E021E030E0042EB4
:1007D00002C0220F331F0A94E2F78223932302C040
:1007E000959587954A95E2F708956031D0F02F509E
:1007F000310963E070E051DA80569F4FFC0182813D
:1008000090E041E050E0022E02C0440F551F0A94D0
:10081000E2F78423952302C0959587952A95E2F700
:1008200008952850310963E070E037DA80569F4F11
:10083000FC018181E5CF5F926F927F928F929F92B0
:10084000AF92BF92CF92DF92EF92FF920F931F93DE
:10085000CF93DF93C0902B01D0902C018090290181
:1008600090902A01E601360183E0680E711C540164
:1008700093E0A90EB11C5C2EEC2EEC186C167D06D4
:100880004CF18401F12CEE0CFF1CEE0CFF1CC70197
:10089000875E9E4F7C01E02FE819A016B106C4F0D8
:1008A000EE0DFF2DF11D8081882379F0D7FD23C047
:1008B000CA30D10514F517FD20C0083111052CF4FC
:1008C000602F852D74DF811118C00F5F1F4FE3CF9C
:1008D0002196D1CF80E0DF91CF911F910F91FF90B2
:1008E000EF90DF90CF90BF90AF909F908F907F90D0
:1008F0006F905F90089582E0EECF81E0ECCFCF93D0
:10090000DF93C0912901D0912A01C330D105ACF108
:10091000CE01029790932A01809329018CDF2091C8
:10092000290130912A01811107C0215031093093EA
:100930002A0120932901F2CF80E1E9E1F1E0AFE261
:10094000B1E001900D928A95E1F72F5F3F4F309310
:10095000400120933F0180912B0190912C019093B5
:10096000420180934101DD27D0932A01C0932901E0
:10097000229781E02C173D070CF080E0DF91CF91AA
:10098000089581E01DDEBBDF882311F080E018CEE2
:10099000089584E1E9E1F1E0AEEEB0E001900D925E
:1009A0008A95E1F780912B0190912C01019790930A
:1009B0002C0180932B013FDF882351F084E1EEEE80
:1009C000F0E0A9E1B1E001900D928A95E1F7089578
:1009D000D8CF30E020E090E0AC01022E01C0440FFF
:1009E0000A94EAF747FF0CC0C39AC49AC4982F5FD1
:1009F0003F4F2830310581F7C39AC49AC4980895AF
:100A0000C398F3CFC498C398C49AC39A0895C49A5C
:100A1000C39AC398C4980895CF93DF93C82FD62F55
:100A2000F6DF88E7D6DF80E0D4DF80EB8D0FD1DF03
:100A30008C2F82958F708061CCDF8C2F8E708160BF
:100A4000C8DFDF91CF91DECF683008F4E5CF08959D
:100A5000DEDF88E7BEDF80E4BCCF2F923F924F926B
:100A60005F926F927F928F929F92AF92BF92CF923E
:100A7000DF92EF92FF920F931F93CF93DF93CDB747
:100A8000DEB72D970FB6F894DEBF0FBECDBF1A01AB
:100A9000402E690124E1C216D1041CF023E1C22ECC
:100AA000D12CFC0197FF02C0F0E0E0E0EB58FD4FD5
:100AB00034913983FB016B30710514F0EAE0F0E00A
:100AC000E659FD4F44914D83822D37FC80E0782E0E
:100AD00066E0DAD8582E8980880C59815C87B12C61
:100AE000A12C852F90E0FC01EA52FF4FFB87EA879B
:100AF000FD812C852F1708F0B4C0622E6394EC841E
:100B0000243030F0E22EE394E394273008F4E62C0E
:100B10006C85852D99DF9CDF121413040CF472C0D0
:100B20008FEF57DF10E0882D90E0FC01E65AFD4F73
:100B3000FA83E983FF24F394FE0C9C012F5F3F4F5F
:100B4000A901465A5D4F5C834B83F901E65BFD4F7B
:100B5000FF83EE839C01265B3D4F398728871C1558
:100B60001D040CF05DC0912C3C8501E0332321F085
:100B700000E8373009F000E0612F8E2D18DE882361
:100B800009F44CC0E981FA81F491F02BFD87612FC3
:100B90008F2D0DDE882331F0EB81FC818491FD8562
:100BA000F82BFD8780916000882311F1612F8E2D35
:100BB00041DD882361F0892D8B7FE981FA818823CB
:100BC00011F0E885F9858491FD85F82BFD87612F6B
:100BD0008F2D30DD882361F0892D8B7FEB81FC81A7
:100BE000882311F0EE81FF818491FD85F82BFD872C
:100BF0008D85EFDE939425E09212B6CF802FE9DE4B
:100C00001F5FADCF3C8581E0332329F04C8580E820
:100C1000473009F080E0DDDE172D85CF0D87B7CF97
:100C2000411017C03C853630A0F04A855B854A0DDF
:100C30005B1D5A83498318E0E981FA818081C9DE0E
:100C4000115029813A812E5F3F4F3A832983111138
:100C5000F3CFD8DE3FEFA31AB30A839483946C8654
:100C600047CF2D960FB6F894DEBF0FBECDBFDF91F4
:100C7000CF911F910F91FF90EF90DF90CF90BF9099
:100C8000AF909F908F907F906F905F904F903F902C
:100C90002F900895EF92FF920F93CF93DF93EC0183
:100CA0007B0101E0DADE40913F01509140018091EB
:100CB0002D0190912E019C012C5F3F4F4817590741
:100CC0002CF09A012C5F3F4F01E0AC01B701CE013F
:100CD000C4DEDF91CF910F91FF90EF900895CF93F5
:100CE00060E080E099DEB4DE8FEF73DECDE781E077
:100CF00070DEC150E1F78FEF6CDE84DEC1E06C2F57
:100D000080E0A2DEA5DE8FEF64DE7CDE6C2F8FE755
:100D10009BDE9EDE8FEF5DDE75DECF5FC73079F73D
:100D200067E080E079DE94DE8FEF53DECDE780E888
:100D300050DEC150E1F78FEF4CDECF9163CE7F9252
:100D40008F929F92AF92BF92CF92DF92EF92FF92DB
:100D50000F931F93CF93DF9300D000D000D0CDB777
:100D6000DEB7FC014B01742EE22E2AE030E0B9011F
:100D7000A5D78E83CB01B901A1D78D83CF0164E6BE
:100D800070E09CD7CB01B90199D78C83CF0168EE75
:100D900073E094D7CB01B90191D78B83CF0160E188
:100DA00077E28CD76A831982F82C540185E0A80E6B
:100DB000B11C0F2D10E0A016B10644F16F2D872D48
:100DC00043DE46DE97E0C92ED12C08191909A1E0AF
:100DD000B0E0AC0FBD1F0A0F1B1F80E0E1100EC07A
:100DE000D801EC91F0E0349683E0EE0FFF1F8A9576
:100DF000E1F7EC0DFD1DE25EFF4F8491EADDB1E00D
:100E0000CB1AD10850F7FEDDF394D3CF26960FB658
:100E1000F894DEBF0FBECDBFDF91CF911F910F9130
:100E2000FF90EF90DF90CF90BF90AF909F908F900A
:100E30007F900895CF93C82FEADD88E7CADD80E070
:100E4000C8DD8C2FC6DDCF91DDCDCF93DF93C0EB16
:100E50008C2FF0DF80E0EEDF80E1ECDFF9DDD0E029
:100E600080E0B7DDDF5FD038D9F7CCDDCF5FC83B9E
:100E700079F7DF91CF910895BB9ABC9A8EEADADFB9
:100E800080E0D8DF80E1D6DF80E4D4DF81E8D2DF04
:100E90008FECD0DF81EACEDF88ECCCDF86EACADFD8
:100EA00088EAC8DF8FE3C6DF83EDC4DF80E0C2DFFE
:100EB00085EDC0DF80E8BEDF89EDBCDF81EFBADF02
:100EC0008AEDB8DF82E1B6DF8BEDB4DF80E4B2DF1C
:100ED00080E2B0DF82E0AEDF8DE8ACDF84E1AADF44
:100EE00084EAA8DF86EAA6DF8FEAA4CFBF92CF927A
:100EF000DF92EF92FF920F931F93CF93DF93082F10
:100F0000B62E7A0110E0612F600FF701E10FF11D9D
:100F10008081882349F1C0E0803251F0C4EDC80FD0
:100F2000C03130F0CDECC80FC93210F0C7ECC80F9B
:100F30008B2D8ADD8DDDD0E083E0CC0FDD1F8A951F
:100F4000E1F7D12CC12CCB5DDF4FFE01EC19FD097F
:100F500084913FDD8FEFC81AD80A88E0C816D10403
:100F6000A1F750DD1F5FCFCFDF91CF911F910F9180
:100F7000FF90EF90DF90CF90BF90089580910B018C
:100F8000811115C081E087B987B187B9369A369942
:100F9000FECF94B185B18927982789279C012152DA
:100FA00033402633310520F481E080930B0108950E
:100FB0009C01285533402237310510F482E0F5CFEB
:100FC0008B5C9340C69798F783E0EFCF90B79F7DF7
:100FD00090BF811105C08FB7F894C1988FBF089555
:100FE0008FB7F894C19AFACFCF92DF92EF92FF9227
:100FF0000F931F93CF93DF937C016B0110E000E010
:1010000081E0E4DFD0E0C0E0CC15DD0519F00000A0
:101010002196FACF80E0DADF90E080E0C817D907A8
:1010200019F000000196FACF0F5F1F4FE016F1068E
:101030003CF7DF91CF911F910F91FF90EF90DF90E0
:10104000CF90089590E0FC01E654FC4F2491FC0100
:10105000EC54FC4FE491EE2371F0F0E0EE0FFF1F33
:10106000E056FC4FA591B491EC91E22381E090E031
:1010700021F480E0089580E090E008950F93CF93ED
:10108000DF93ECEDF0E090E1DF011D929A95E9F736
:101090008150F1F4DF01EEE2F2E0849114968C933A
:1010A0001497849115968C931597129620E0A43E80
:1010B000B20799F700E023E130E050E040E06AE059
:1010C00070E090E080E0C9DCDF91CF910F9108954E
:1010D00090E0880F991F880F991FBC01625D7D4FBA
:1010E000AC01415D5D4FACEDB0E0ED01FB01249141
:1010F0002883FA01249129832296F0E0C23EDF077B
:10110000A9F7AC01405D5D4F8F5C9D4FFA012491C2
:1011100018962C931897FC01249119962C931997E3
:101120001296F0E0A23EBF0789F7C4CFFF920F935B
:101130001F93CF93DF9380E1E9E1F1E0AEEEB0E001
:1011400001900D928A95E1F7C0912901D0912A0171
:10115000D093FF00C093FE0080912B0190912C0151
:101160009093010180930001CE01019790932A0191
:101170008093290160DB882309F499C0D0932A0168
:10118000C093290180E0E7DAC0E0D0E010E001E0A0
:101190006C2F812F0CDB811101C000E01F5F1A3022
:1011A000B9F70023F1F1DF5F60E273E08EE190E0D8
:1011B0001BDF68E572E08EE190E016DF60E971E028
:1011C0008EE190E011DF10E040E06C2F812F76DAA5
:1011D0001F5F1A30C9F74C2F50E09A012F5F3F4F25
:1011E00069E070E090E080E055DD6EE170E080E065
:1011F00090E06FD910E00C2F073178F4FF24F394BE
:10120000F00E6F2D812FD3DA41E0811101C040E053
:10121000602F812F53DA0F2DEFCF1F5F1A3059F750
:10122000C150CF5FC83109F0B1CF809108019091D2
:1012300009018D0F911D9093090180930801809100
:101240000C0190910D01D23009F449C0E8F588965F
:10125000D13009F43FC000E023E130E050E040E04D
:101260006AE070E090E080E0F8DB20E045E750E0E5
:1012700070E060E080910C0190910D0160DDC09103
:101280000A018C2FB9D8D7DA882379F181E08093CD
:101290000E0136D427E030E040E050E0B7D4DC0166
:1012A000CB010196A11DB11D80930A01E7DE81E00B
:1012B00087D925DB882311F080E082D9DF91CF9197
:1012C0001F910F91FF900895D33061F0805E9C4F85
:1012D000D43009F690930D0180930C01BCCF8C594A
:1012E0009F4FF8CF845D9E4FF5CF8C2F85D881E03E
:1012F00067D905DB882369F280E062D9CACF1F92E3
:101300000F920FB60F9211242F933F938F939F93B9
:10131000AF93BF938091110190911201A09113019D
:10132000B09114013091100126E0230F2D3768F1A0
:1013300029E8230F0396A11DB11D2093100180936E
:10134000110190931201A0931301B09314018091A5
:10135000150190911601A0911701B0911801019605
:10136000A11DB11D8093150190931601A093170143
:10137000B0931801BF91AF919F918F913F912F91A1
:101380000F900FBE0F901F9018950296A11DB11DD2
:10139000D4CF1F920F920FB60F9211242F933F9329
:1013A0004F935F936F937F938F939F93AF93BF936D
:1013B000EF93FF938091EC009091ED00892B29F041
:1013C000E091EC00F091ED000995FF91EF91BF9154
:1013D000AF919F918F917F916F915F914F913F91CD
:1013E0002F910F900FBE0F901F9018951F920F9284
:1013F0000FB60F9211248F9380910B01811103C0BE
:1014000084E080930B018F910F900FBE0F901F907F
:101410001895CF93DF93CDB7DEB760970FB6F894EA
:10142000DEBF0FBECDBF80E886BD91E096BD83E0F4
:101430008ABD83BF789489B7826089BF80E48CBD00
:101440008FEF8DBD87EC80BF86E886B982E087BBD1
:1014500095BB8BB780628BBF78940EDDA7E08A2E98
:10146000912CA12CB12CB5E22B2EB1E03B2E16E92C
:10147000612E712C01DDE9DC32DC45E650E060E4F0
:1014800081E034DD4CE650E060E381E02FDD43E7AE
:1014900050E068E281E02ADD22DCF12CE12C512CC5
:1014A000652D8EE4D1DAD4DA10E000E097012058FF
:1014B0003D4F6901F601E00FF11F84918ADA0F5F59
:1014C0001F4F04321105B1F79DDA539434E2E30E55
:1014D000F11C88E05812E4CF8FB7F894C090110146
:1014E000D0901201E0901301F09014018FBF80E0C2
:1014F000A9DD019709F08AC12FB7F89480911101F5
:1015000090911201A0911301B09114012FBF8C1979
:101510009D09AE09BF09813D9740A105B1053CF386
:1015200082E090DD019709F05CC14AE750E068E095
:1015300082E0DCDC80910F01811108C081E08093A2
:101540000F014FE750E060E182E006C010920F010A
:1015500044E850E060E181E0C9DC11E080E072DD48
:101560000197E1F3111161C260E476E080E090E060
:10157000B0D748E950E064E181E0B8DC6CED75E09B
:1015800080E090E0A6D761DC10920E0110920D0170
:1015900010920C0110920B0100E040E0612F802FAF
:1015A0008DD80F5F0A30C9F71F5F1831A9F710E017
:1015B00000E040E0612F802FB6D70F5F0A30C9F7F7
:1015C0001F5F1831A9F78FB7F8942EEB37E03093EF
:1015D000ED002093EC008FBF85B7836085BF8BB78C
:1015E00080648BBF8DD2A501940110D381E0860F5A
:1015F00003D780E0B0D883D9882311F080E0E0D70A
:1016000080E0DED77DD2A501940100D3DC01CB01BF
:101610000196A11DB11D80930A0130DD80910F015B
:10162000882391F014E681E096D880DD69D2A50187
:101630009401ECD264307105810591050CF0A9D9B3
:1016400080E089D8115079F781E090E0909309010A
:101650008093080100E023E130E050E040E06AE0E0
:1016600070E090E080E0F9D920E045E750E070E0DC
:1016700060E080910C0190910D0161DB50900E01B2
:1016800051105BC181E067D851DD80E064D84091A2
:10169000290150912A0180912B0190912C019A01EE
:1016A0002B5F3F4FBC016C5F7F4FF4DA2FB7F8948C
:1016B0008091110190911201A0911301B091140138
:1016C0002FBF8093040190930501A0930601B0936E
:1016D00007018091080190910901880F991F880FD7
:1016E000991F8935924024F0709209016092080197
:1016F0008FB7F8944091110150911201609113013C
:10170000709114018FBF8091040190910501A09107
:101710000601B0910701481B590B6A0B7B0B8091A6
:1017200008019091090126E930E0281B390BC90115
:10173000880F991F880F991F092E000CAA0BBB0B4D
:10174000481759076A077B0708F098CF80E07ADCD2
:10175000892BF9F410910B0182E074DC892BC9F418
:10176000113009F055C081E0F6D713D980E0F3D7E6
:101770004091290150912A0180912B0190912C01D7
:101780009A012C5F3F4FBC016B5F7F4F83DA109251
:101790000B0180910B01843009F0C9C080E052DC5C
:1017A000019709F0C2C081E0D6D7C0DC80E0D3D772
:1017B0004091290150912A0180912B0190912C0197
:1017C0009A012B5F3F4FBC016C5F7F4F63DA6AE089
:1017D00070E080E090E07DD680910E018823F1F2E8
:1017E00087CF4BE850E060E181E080DB80916000D2
:1017F000811107C081E08093600041E950E068E01A
:10180000A3CE1092600044E950E0F9CF10E0A6CEDC
:101810001230A1F581E09FD784E1E9E1F1E0AEEE7D
:10182000B0E001900D928A95E1F780912B019091A3
:101830002C01019690932C0180932B01FCD78823D7
:10184000D9F084E1EEEEF0E0A9E1B1E001900D9273
:101850008A95E1F780E07FD74091290150912A01D4
:1018600080912B0190912C019A012C5F3F4FBC017C
:101870006C5F7F4F01978ACF84D8ECCF133009F08B
:1018800086CF81E068D790E080E09C01220F331F73
:10189000220F331FD101A21BB30BE1E0F0E0EC0FEC
:1018A000FD1FE80FF91F20E03D9130832F5F349634
:1018B0002430D1F701968430910539F784E1E9E1CC
:1018C000F1E0AEEEB0E001900D928A95E1F780E193
:1018D000FE013196A9E1B1E001900D928A95E1F700
:1018E000AAD78823D1F084E1EEEEF0E0A9E1B1E0DF
:1018F00001900D928A95E1F780E02DD74091290162
:1019000050912A0180912B0190912C019A012C5F1A
:101910003F4FBC016C5F7F4F39CF81E051D6EFD78D
:10192000882351F380E04CD6E7CF10920B016EE193
:1019300070E080E090E0CDD5DBCE87DA90E080E00B
:1019400036D1082F10E0102F0027109303010093C9
:10195000020181E090E02BD1082B1093030100934A
:10196000020160910C0170910D01061717070CF030
:101970007AC0709303016093020181E090E01FD16F
:1019800060910D0190E080E01AD1A9D9E0900C019E
:10199000F0900D0120E040E550E061E070E0C7010B
:1019A000CED9C0900201D090030120E048E250E07F
:1019B00061E070E0C601C3D910E000E0B80182E345
:1019C00090E012DB0E5C1F4F083E33E01307B1F7C7
:1019D00014E021E040E550E061E070E0C701AFD9DC
:1019E000552039F021E048E250E061E070E0C601A6
:1019F000A6D968EC70E080E090E06BD520E040E58F
:101A000050E061E070E0C7019AD9552039F020E03C
:101A100048E250E061E070E0C60191D968EC70E006
:101A200080E090E056D51150A1F668EE73E080E0BA
:101A300090E04FD50ADA8EEAFDD9379885B7877ED0
:101A4000806185BF85B7806285BF85B7806285BFAD
:101A5000889585B78F7D85BF85B78F7D85BF379A80
:101A60008FEAE8D907CD512C90CF8F929F92AF92F9
:101A7000BF92CF92DF92EF92FF92CF93DF93EC0170
:101A8000688179818A819B81611571058105910544
:101A900021F464E279ED8BE597E02DE133EF41E04D
:101AA00050E0B4D049015A0127EA31E440E050E067
:101AB00094D06B017C012CEE34EF4FEF5FEFC5014A
:101AC000B4018BD0C60ED71EE81EF91EF7FE06C065
:101AD00081E0C81AD108E10880E8F80AC882D982F2
:101AE000EA82FB82C701B6019F77DF91CF91FF9019
:101AF000EF90DF90CF90BF90AF909F908F90089520
:101B00008F929F92AF92BF92CF92DF92EF92FF920D
:101B10006091610070916200809163009091640017
:101B2000611571058105910521F464E279ED8BE57C
:101B300097E02DE133EF41E050E068D049015A01D0
:101B400027EA31E440E050E048D06B017C012CEE04
:101B500034EF4FEF5FEFC501B4013FD0C60ED71E83
:101B6000E81EF91EF7FE06C081E0C81AD108E10898
:101B700080E8F80AC0926100D0926200E0926300AF
:101B8000F0926400C701B6019F77FF90EF90DF905D
:101B9000CF90BF90AF909F908F9008956093610019
:101BA0007093620080936300909364000895E199BC
:101BB000FECF9FBB8EBBE09A99278DB30895262F49
:101BC000E199FECF1CBA9FBB8EBB2DBB0FB6F8941C
:101BD000E29AE19A0FBE01960895EE27FF27AA2701
:101BE000BB2708C0A20FB31FE41FF51F220F331F2E
:101BF000441F551F969587957795679598F3704084
:101C0000A9F7009799F7BD01CF010895052E97FB1D
:101C100016F400940FD057FD05D014D007FC02D065
:101C200046F408C050954095309521953F4F4F4F51
:101C30005F4F089590958095709561957F4F8F4F78
:101C40009F4F0895A1E21A2EAA1BBB1BFD010DC0D8
:101C5000AA1FBB1FEE1FFF1FA217B307E407F5075C
:101C600020F0A21BB30BE40BF50B661F771F881F38
:101C7000991F1A9469F760957095809590959B01CE
:101C8000AC01BD01CF010895002480FD060E660F52
:101C900011F08695D1F7802D08950024552704C0B2
:101CA000080E591F880F991F009729F076956795A0
:101CB000B8F37105B9F7802D952F089597FB072E7E
:101CC00016F4009406D077FD08D00BD007FC05D0A1
:101CD0003EF4909581959F4F0895709561957F4F43
:101CE0000895AA1BBB1B51E107C0AA1FBB1FA61763
:101CF000B70710F0A61BB70B881F991F5A95A9F7B5
:0E1D000080959095BC01CD010895F894FFCF19
:101D0E000101000000544554524953004174746956
:101D1E006E7900417263616465004D4F4445004821
:101D2E00415244004E4F524D414C0047484F535480
:101D3E00004F4E004F464600416E64792D4A00001A
:00000001FF
