:100000004FC151C97DC967C166C103C964C163C11C
:1000100062C161C160C15FC15EC15DC15CC1777712
:1000200000007077700070007077700770077007BD
:1000300000EE7077000E7007EE0088002280082026
:1000400002882280082002882200F8003E800FE00B
:1000500003F83E800FE003F83E00010203030405AD
:100060000606070808000101020304040506070844
:100070000000000036004444C04460446006C006EE
:10008000400E600C00000000000000000000003F77
:100090000000000000000000000C0C006030180C94
:1000A000060301003E63737B6F673E000C0E0C0C71
:1000B0000C0C3F001E33301C06333F001E33301C37
:1000C00030331E00383C36337F3078003F031F301A
:1000D00030331E001C06031F33331E003F3330181D
:1000E0000C0C0C001E33331E33331E001E33333E04
:1000F00030180E000C1E33333F3333003F66663E2C
:1001000066663F003C66030303663C001F36666676
:1001100066361F007F46161E16467F007F46161E57
:1001200016060F003C66030373667C003333333FCF
:10013000333333001E0C0C0C0C0C1E0078303030A6
:1001400033331E006766361E366667000F060606E6
:1001500046667F0063777F7F6B63630063676F7BB7
:10016000736363001C36636363361C003F66663E40
:1001700006060F001E3333333B1E38003F66663ED3
:10018000366667001E33070E38331E003F2D0C0CF9
:100190000C0C1E003333333333333F0033333333EC
:1001A000331E0C006363636B7F7763006363361CED
:1001B0001C3663003333331E0C0C1E007F63311872
:1001C0004C667F0000001E303E336E000706063E80
:1001D00066663B0000001E3303331E003830303E9D
:1001E00033336E0000001E333F031E001C36060F23
:1001F00006060F0000006E33333E301F0706366ED2
:10020000666667000C000E0C0C0C1E0030003030CF
:100210003033331E070666361E3667000E0C0C0C94
:100220000C0C1E000000337F7F6B630000001F3347
:100230003333330000001E3333331E0000003B66AF
:10024000663E060F00006E33333E307800003B6E92
:1002500066060F0000003E031E301F00080C3E0C17
:100260000C2C18000000333333336E00000033339E
:10027000331E0C000000636B7F7F36000000633686
:100280001C36630000003333333E301F00003F193B
:100290000C263F00020202020202010204081020A2
:1002A00011241FBECFE5D2E0DEBFCDBF10E0A0E637
:1002B000B0E0EEEBFCE102C005900D92AA3BB10765
:1002C000D9F721E0AAEBB0E001C01D92A136B20738
:1002D000E1F748D8F2CC94CEEF92FF921F93CF93E0
:1002E000DF938150282F30E0220F331F2A583F4FD1
:1002F00067E371E090E0C1E0D0E081E014E0190F25
:10030000DB01F901E590F490AE01092E02C0440F23
:10031000551F0A94E2F74E215F21092E02C056951F
:1003200047950A94E2F741305105D9F48C939F5FC9
:1003300011969113E6CF6C5F7F4F9031F9F683E110
:1003400090E0909348018093470183E090E0909380
:100350004A0180934901DF91CF911F91FF90EF9067
:1003600008951C92E4CF3FB7F894809133019091A7
:100370003401A0913501B091360122B708B601FED3
:1003800005C02F3F19F00196A11DB11D3FBFBA2F27
:10039000A92F982F8827BC01CD01620F711D811DE7
:1003A000911D43E0660F771F881F991F4A95D1F76B
:1003B0000895CF92DF92EF92FF92CF93DF936B017C
:1003C0007C01D1DFEB01CFDF6C1B7D0B683E7340FE
:1003D000A0F0C114D104E104F10439F4DF91CF910C
:1003E000FF90EF90DF90CF90089581E0C81AD10878
:1003F000E108F108C851DC4FE6CFC114D104E10493
:10040000F10409F7EBCF2FB7F89460912F017091A9
:10041000300180913101909132012FBF08950F93E7
:100420001F93CF93DF93262FE0E0683020F06031F8
:1004300058F12F50E2E0A82FB0E0F0E0CD0163E0EA
:1004400070E003DC88529F4FEC01CE0FDF1FC881A4
:10045000022F10E0CD0163E070E0F7DB88529F4F80
:10046000E80FF91F442399F061E070E0CB0102C06E
:10047000880F991F2A95E2F79C012C2B2083DF918E
:10048000CF911F910F9108952850E1E0D4CF67E0FC
:1004900070E0601B710B4FE750E002C05595479527
:1004A0006A95E2F76EEF70E001C0660F2A95EAF7F1
:1004B000462B4C234083E3CFBF92CF92DF92EF9243
:1004C000FF920F931F93CF93DF93C82E0DE411E09B
:1004D000C0E07801D0E0F70181917F01813069F4BB
:1004E000D0905D01B0905E016D2F6D0D80915F0128
:1004F0008C0FC11014C041E092DFDF5FD43059F798
:10050000CF5F0C5F1F4FC43021F7DF91CF911F9158
:100510000F91FF90EF90DF90CF90BF90089540E053
:100520007EDFD0924B01B0924C01E7CF462F90E096
:10053000262F30E06830C0F463E070E086DB88523C
:100540009F4FFC01808190E021E030E0042E02C04A
:10055000220F331F0A94E2F78223932302C095955A
:1005600087954A95E2F708956031D0F02F50310910
:1005700063E070E06ADB88529F4FFC01828190E06B
:1005800041E050E0022E02C0440F551F0A94E2F7EA
:100590008423952302C0959587952A95E2F70895BF
:1005A0002850310963E070E050DB88529F4FFC0116
:1005B0008181E5CF0F931F93CF93DF93262FE0E048
:1005C000683020F0603158F12F50E2E0A82FB0E001
:1005D000F0E0CD0163E070E038DB86549F4FEC0122
:1005E000CE0FDF1FC881022F10E0CD0163E070E065
:1005F0002CDB86549F4FE80FF91F442399F061E0EC
:1006000070E0CB0102C0880F991F2A95E2F79C0188
:100610002C2B2083DF91CF911F910F9108952850AB
:10062000E1E0D4CF67E070E0601B710B4FE750E072
:1006300002C0559547956A95E2F76EEF70E001C0EC
:10064000660F2A95EAF7462B4C234083E3CFDF92CF
:10065000EF92FF920F931F93CF93DF93D82E07E370
:1006600011E0C0E07801D0E0F70181917F01813095
:1006700051F4609147016D0F809149018C0F41E069
:10068000D11040E097DFDF5FD43071F7CF5F0C5FB0
:100690001F4FC43039F7DF91CF911F910F91FF9019
:1006A000EF90DF900895462F90E0262F30E06830DD
:1006B000C0F463E070E0C9DA86549F4FFC0180818A
:1006C00090E021E030E0042E02C0220F331F0A9494
:1006D000E2F78223932302C0959587954A95E2F726
:1006E00008956031D0F02F50310963E070E0ADDA49
:1006F00086549F4FFC01828190E041E050E0022E41
:1007000002C0440F551F0A94E2F78423952302C0C8
:10071000959587952A95E2F708952850310963E069
:1007200070E093DA86549F4FFC018181E5CF5F92A0
:100730006F927F928F929F92AF92BF92CF92DF92F1
:10074000EF92FF920F931F93CF93DF93C0904901D5
:10075000D0904A018090470190904801E60136010F
:1007600083E0680E711C540193E0A90EB11C5C2E4D
:10077000EC2EEC186C167D064CF18401F12CEE0C7D
:10078000FF1CEE0CFF1CC701895C9E4F7C01E02F13
:10079000E819A016B106C4F0EE0DFF2DF11D808101
:1007A000882379F0D7FD23C0CA30D10514F517FD91
:1007B00020C0083111052CF4602F852D74DF8111C4
:1007C00018C00F5F1F4FE3CF2196D1CF80E0DF919C
:1007D000CF911F910F91FF90EF90DF90CF90BF903E
:1007E000AF909F908F907F906F905F90089582E080
:1007F000EECF81E0ECCFCF93DF93C0914701D09152
:100800004801C330D105ACF1CE0102979093480165
:10081000809347018CDF209147013091480181117D
:1008200007C0215031093093480120934701F2CF8E
:1008300080E1E7E3F1E0ADE4B1E001900D928A954B
:10084000E1F72F5F3F4F30935E0120935D01809170
:10085000490190914A019093600180935F01DD27E7
:10086000D0934801C0934701229781E02C173D07A0
:100870000CF080E0DF91CF91089530E020E090E02F
:10088000AC01022E01C0440F0A94EAF747FF0CC0E6
:10089000C39AC49AC4982F5F3F4F2830310581F71F
:1008A000C39AC49AC4980895C398F3CFC498C398C0
:1008B000C49AC39A0895C49AC39AC398C4980895D1
:1008C000CF93DF93C82FD62FF6DF88E7D6DF80E0FF
:1008D000D4DF80EB8D0FD1DF8C2F82958F708061FC
:1008E000CCDF8C2F8E708160C8DFDF91CF91DECF9F
:1008F000E2DF88E7C2DF80E4C0CFCF92DF92EF92E1
:10090000FF920F931F93CF93DF93082F7B0110E08B
:10091000F701E10FF11D8081882361F1C0E0803291
:1009200051F0C4EDC80FC03130F0CDECC80FC93262
:1009300010F0C7ECC80F183018F4612F802FC0DFFB
:10094000D7DFD0E083E0CC0FDD1F8A95E1F7D12C13
:10095000C12CC557DF4FFE01EC19FD0984918DDFD5
:100960008FEFC81AD80A88E0C816D104A1F79EDF15
:100970001F5FCECFDF91CF911F910F91FF90EF902E
:10098000DF90CF900895BF92CF92DF92EF92FF92C7
:100990000F931F93CF93DF9300D000D000D0CDB73B
:1009A000DEB79C01B62EC42EEAE0F0E0BF015ED9AE
:1009B0008E83CB01BF015AD98D83C90164E670E0F3
:1009C00055D9CB01BF0152D98C83C90168EE73E0C0
:1009D0004DD9CB01BF014AD98B83C90160E177E2D0
:1009E00045D96A831982CE0101967C01DD24D39416
:1009F0006D2D8B2D65DF7CDF07E010E080E0C110FE
:100A00000EC0D701EC91F0E0349683E0EE0FFF1FAB
:100A10008A95E1F7E00FF11FEC57FF4F84912DDF2E
:100A20000150110958F742DFD3948FEFE81AF80A02
:100A300097E0D912DDCF26960FB6F894DEBF0FBE31
:100A4000CDBFDF91CF911F910F91FF90EF90DF907D
:100A5000CF90BF9008952F923F924F925F926F92E6
:100A60007F928F929F92AF92BF92CF92DF92EF923E
:100A7000FF920F931F93CF93DF93CDB7DEB76197AC
:100A80000FB6F894DEBF0FBECDBF4A010D875901E6
:100A900024E1A216B1041CF0E3E1AE2EB12CFC015E
:100AA00097FF02C0F0E0E0E0EB59FF4F0491FB013B
:100AB0006B30710514F0EAE0F0E0E65AFF4F349134
:100AC0003C8720912A0130912B01EAE0F0E0C90136
:100AD000BF01CCD88E83CB01BF01C8D88D83C9019B
:100AE00064E670E0C3D8CB01BF01C0D88C83C901D4
:100AF00068EE73E0BBD8CB01BF01B8D88B83C901C6
:100B000060E177E2B3D86A831982882D97FC80E090
:100B1000382E66E091D88B8710E0CC24C394D12C7A
:100B2000CC0EDD1EC00ED11EE02E4C85041708F041
:100B3000C5C055245394500E53E0501708F07FC0A1
:100B400086E0801718F442E0542E500EFE2CFF0C65
:100B500097E09E1518F06E2D8B85B2DEC9DE181455
:100B600019040CF46EC08FEF88DE712C8F2D90E08D
:100B7000FC01E65BFF4FF887EF8322242394250CCA
:100B80009C012F5F3F4FA901465B5F4F5A87498702
:100B9000D901A65CBF4FBF87AE87FC01E65CFF4F63
:100BA000F98BE88B7A141B040CF055C0412C662499
:100BB0006394EE2029F0F7E030E8632EEF12612C09
:100BC000672D852D70DDF62C882321F0EF81F885C7
:100BD000F490F628672D822D66DD882321F0E985C3
:100BE000FA858491F82A809160008823F1F0672DBE
:100BF000852D9CDC882351F0842D8B7FEF81F88537
:100C0000882311F0E889F9898491F82A672D822DCB
:100C10008DDC882351F0842D8B7FE985FA8588232C
:100C200011F0EE85FF858491F82A8F2D26DE4394FE
:100C3000F5E04F12BCCF862D20DE7394B3CF502E3B
:100C400085CF81E0EE2021F0A7E080E8EA1280E085
:100C500014DE732C8BCF2D85211119C035E03E1584
:100C6000E8F027E0E22EF12CD601EC91F0E034968A
:100C700093E0EE0FFF1F9A95E1F7EE0DFF1DEC5785
:100C8000FF4F8491FADDB1E0EB1AF10868F70EDE50
:100C9000EFEFCE1ADE0A0F5F1F4F46CF98012051AB
:100CA0003F4F790188E0782ED7018C91E6DD7A9468
:100CB000B2E0EB0EF11C7110F7CFE9CF61960FB6E1
:100CC000F894DEBF0FBECDBFDF91CF911F910F9182
:100CD000FF90EF90DF90CF90BF90AF909F908F905C
:100CE0007F906F905F904F903F902F900895EF927C
:100CF000FF920F93CF93DF93EC017B0101E0ABDE1A
:100D000040915D0150915E0180914B0190914C01A9
:100D10009C012C5F3F4F481759072CF09A012C5F1C
:100D20003F4F01E0AC01B701CE0195DEDF91CF91DD
:100D30000F91FF90EF9008950F9384E1E7E3F1E0C6
:100D4000A8E0B1E001900D928A95E1F78091490108
:100D500090914A01019790934A0180934901E7DC01
:100D6000813059F484E1E8E0F1E0A7E3B1E00190DB
:100D70000D928A95E1F70F9108958230C9F5E3E469
:100D8000F1E030E020E08191882311F021E030E0B3
:100D900081E0E734F807B9F7EFE3F1E043E451E02D
:100DA00081E09191911180E04E175F07D1F7882380
:100DB00011F02FEF3FEF87E090E0821B930B9093B1
:100DC0004A0180934901B3DC813061F281E074DB38
:100DD00012DD882311F080E06FDB00E023E130E0DA
:100DE00050E040E06AE070E090E080E034DEC3CFA5
:100DF00081E062DB00DD882309F4BDCF80E00F9144
:100E00005BCBCF93C82F57DD88E737DD80E035DD3A
:100E10008C2F33DDCF914ACDCF93DF93C0EB8C2F56
:100E2000F0DF80E0EEDF80E1ECDF62DDD0E080E04B
:100E300024DDDF5FD038D9F739DDCF5FC83B79F7E4
:100E4000DF91CF910895BB9ABC9A8EEADADF80E0F9
:100E5000D8DF80E1D6DF80E4D4DF81E8D2DF8FEC19
:100E6000D0DF81EACEDF88ECCCDF86EACADF88EA11
:100E7000C8DF8FE3C6DF83EDC4DF80E0C2DF85ED2E
:100E8000C0DF80E8BEDF89EDBCDF81EFBADF8AED2D
:100E9000B8DF82E1B6DF8BEDB4DF80E4B2DF80E261
:100EA000B0DF82E0AEDF8DE8ACDF84E1AADF84EA68
:100EB000A8DF86EAA6DF8FEAA4CF80912001811106
:100EC0000CC082E0809320019EDA60931C01709335
:100ED0001D0180931E0190931F01089590B79F7D7F
:100EE00090BF811105C08FB7F894C1988FBF089546
:100EF0008FB7F894C19AFACFCF92DF92EF92FF9218
:100F00000F931F93CF93DF937C016B0110E000E000
:100F100081E0E4DFD0E0C0E0CC15DD0519F0000091
:100F20002196FACF80E0DADF90E080E0C817D90799
:100F300019F000000196FACF0F5F1F4FE016F1067F
:100F40003CF7DF91CF911F910F91FF90EF90DF90D1
:100F5000CF90089590E0FC01E656FD4F2491FC01EE
:100F6000EC56FD4FE491EE2371F0F0E0EE0FFF1F21
:100F7000E059FF4FA591B491EC91E22381E090E01C
:100F800021F480E0089580E090E008950F93CF93DE
:100F9000DF93E6EFF0E090E1DF011D929A95E9F72B
:100FA0008150F1F4DF01EEE1F0E0849114968C932E
:100FB0001497849115968C931597129620E0AE3F66
:100FC000B20799F700E023E130E050E040E06AE04A
:100FD00070E090E080E03FDDDF91CF910F910895C8
:100FE00090E0880F991F880F991FBC01625E7F4FA8
:100FF000AC01415E5F4FA6EFB0E0ED01FB01249133
:101000002883FA01249129832296F0E0CC3FDF0760
:10101000A9F7AC01405E5F4F8F5D9F4FFA012491AD
:1010200018962C931897FC01249119962C931997D4
:101030001296F0E0AC3FBF0789F7C4CFFF920F9341
:101040001F93CF93DF9380E1E7E3F1E0A8E0B1E005
:1010500001900D928A95E1F7C0914701D091480126
:10106000D0931901C09318018091490190914A01D0
:1010700090931B0180931A01CE0101979093480130
:101080008093470154DB882309F48FC0D093480133
:10109000C093470180E0DBDAC0E0D0E010E001E07F
:1010A0006C2F812F00DB811101C000E01F5F1A301F
:1010B000B9F70023F1F1DF5F60E273E08EE190E0C9
:1010C0001BDF68E572E08EE190E016DF60E971E019
:1010D0008EE190E011DF10E040E06C2F812F6ADAA2
:1010E0001F5F1A30C9F74C2F50E09A012F5F3F4F16
:1010F00069E070E090E080E0FADD6EE170E080E0B1
:1011000090E057D910E00C2F073178F4FF24F394C6
:10111000F00E6F2D812FC7DA41E0811101C040E050
:10112000602F812F47DA0F2DEFCF1F5F1A3059F74D
:10113000C150CF5FC83109F0B1CF809127019091A4
:1011400028018D0F911D9093280180932701D230A3
:1011500009F443C0B8F580912A0190912B0188963B
:10116000D13009F440C000E023E130E050E040E03D
:101170006AE070E090E080E06EDCC09129018C2F85
:10118000ABD8D5DA8823D9F181E080932C0190D4B3
:1011900027E030E040E050E011D5DC01CB010196C2
:1011A000A11DB11D80932901F1DE81E085D923DBEA
:1011B000882311F080E080D9DF91CF911F910F91AA
:1011C000FF900895D330A1F0D43069F680912A01C0
:1011D00090912B01805E9C4F06C080912A019091D6
:1011E0002B018C599F4F90932B0180932A01BBCFE9
:1011F00080912A0190912B01845D9E4FF4CF8C2F1A
:101200006BD881E059D9F7DA882309F280E054D904
:10121000BECF1F920F920FB60F9211242F933F93C0
:101220008F939F93AF93BF9380912F019091300143
:10123000A0913101B091320130912E0126E0230FAF
:101240002D3768F129E8230F0396A11DB11D2093C6
:101250002E0180932F0190933001A0933101B09320
:1012600032018091330190913401A0913501B09108
:1012700036010196A11DB11D809333019093340175
:10128000A0933501B0933601BF91AF919F918F919B
:101290003F912F910F900FBE0F901F9018950296BF
:1012A000A11DB11DD4CF1F920F920FB60F92112422
:1012B0002F933F934F935F936F937F938F939F935E
:1012C000AF93BF93EF93FF93809106019091070135
:1012D000892B29F0E0910601F09107010995FF9112
:1012E000EF91BF91AF919F918F917F916F915F919E
:1012F0004F913F912F910F900FBE0F901F90189517
:101300001F920F920FB60F9211242F933F934F937A
:101310005F936F937F938F939F93AF93BF93EF935D
:10132000FF938091200181110CC081E08093200106
:101330006AD860931C0170931D0180931E019093E5
:101340001F01FF91EF91BF91AF919F918F917F917D
:101350006F915F914F913F912F910F900FBE0F9022
:101360001F901895CF93DF93CDB7DEB760970FB678
:10137000F894DEBF0FBECDBF80E886BD91E096BD7C
:1013800083E08ABD83BF789489B7826089BF80E497
:101390008CBD8FEF8DBD87EC80BF86E886B982E07B
:1013A00087BB95BB8BB780628BBF78944CDD109266
:1013B0002001A7E04A2E512C612C712CB3E42B2E76
:1013C000B1E03B2E16E9A12EB12C3DDD25DD65E611
:1013D00070E088E592DA6EE670E080E58EDA65E628
:1013E00070E088E48ADA67E770E080E486DA60E833
:1013F00070E088E382DA65E670E080E37EDA03D8A5
:101400006B017C0180E0A6DD019709F04AC1FBD7A2
:101410006C197D098E099F09613D77408105910511
:101420008CF382E097DD019709F024C180912D01B2
:1014300081111BC181E080932D0169E870E080E19A
:101440005CDA61E970E088E058DA11E080E082DD82
:101450000197E1F31111C1C264EC79E080E090E002
:10146000A8D7DADC10922C0110922B0110922A01DD
:1014700000E040E0612F802F9DD80F5F0A30C9F750
:101480001F5F1831A9F710E000E040E0612F802FC6
:10149000C6D70F5F0A30C9F71F5F1831A9F78FB79A
:1014A000F8942DE537E030930701209306018FBFB4
:1014B00085B7836085BF8BB780648BBFF9D2A301EA
:1014C00092017CD381E0860F07D780E0C0D893D902
:1014D000882311F080E0F0D780E0EED7E9D2A301B5
:1014E00092016CD3DC01CB010196A11DB11D80934B
:1014F00029014CDD80912D01882391F014E681E0D3
:10150000A6D89CDDD5D2A301920158D364307105D1
:10151000810591050CF010DC80E099D8115079F725
:1015200081E090E0909328018093270100E023E17F
:1015300030E050E040E06AE070E090E080E08BDA7C
:10154000F0902C01F110B0C181E081D877DD80E00E
:101550007ED8409147015091480180914901909176
:101560004A019A012B5F3F4FBC016C5F7F4FBFDB8D
:101570004AD76093230170932401809325019093AF
:1015800026018091270190912801880F991F880FCB
:10159000991F8935924024F0B0922801A09227012A
:1015A00032D700912301109124012091250130911F
:1015B0002601AB01BC01401B510B620B730B8091E8
:1015C00027019091280126E930E0281B390BC90139
:1015D000880F991F880F991F092E000CAA0BBB0BAF
:1015E000481759076A077B0708F0AACF82E0B2DCE8
:1015F000019709F05AC080912001823009F055C04E
:1016000002D700911C0110911D0120911E01309103
:101610001F01601B710B820B930B6D3271408105B2
:10162000910508F442C082E095DC0197E1F581E084
:101630000ED804DD80E00BD840914701509148015D
:101640008091490190914A019A012B5F3F4FBC0163
:101650006C5F7F4F4CDB6AE070E080E090E0A9D6E1
:1016600080912C018823F9F29BCF10922D0169E91A
:1016700070E0E5CE8091600081110AC081E0809326
:10168000600061EA70E080E138D969EA70E0DBCEA1
:101690001092600061EA70E080E12FD961EB70E0A8
:1016A000D2CE10E0D3CE1092200180E053DC01971F
:1016B00009F05CC0809120018D7F813009F056C017
:1016C000A2D600911C0110911D0120911E013091A4
:1016D0001F01601B710B820B930B693C7105810527
:1016E000910508F443C081E0B2D784E1E7E3F1E07B
:1016F000A8E0B1E001900D928A95E1F7809149014F
:1017000090914A01019690934A01809349010FD824
:10171000882309F4A2C084E1E8E0F1E0A7E3B1E0A6
:1017200001900D928A95E1F780E091D740914701B1
:10173000509148018091490190914A019A012C5F92
:101740003F4FBC016C5F7F4F0197D1DA5CD66C597B
:101750007F4F8F4F9F4F60931C0170931D018093AB
:101760001E0190931F0183E08093200180E0F2DB53
:10177000892B09F06CC082E0EDDB892B09F067C092
:1017800080912001823009F071C03DD600911C018A
:1017900010911D0120911E0130911F01601B710BE2
:1017A000820B930B6C3271408105910508F04DC09E
:1017B00081E04DD790E080E09C01220F331F220F83
:1017C000331FD101A21BB30BE1E0F0E0EC0FFD1FD2
:1017D000E80FF91F20E03D9130832F5F34962430CD
:1017E000D1F701968430910539F784E1E7E3F1E020
:1017F000A8E0B1E001900D928A95E1F780E1FE0149
:101800003196A7E3B1E001900D928A95E1F78FD769
:10181000882309F441C084E1E8E0F1E0A7E3B1E006
:1018200001900D928A95E1F780E011D74091470130
:10183000509148018091490190914A019A012C5F91
:101840003F4FBC016C5F7F4F52DA109220016EE176
:1018500070E080E090E0ADD5A3CE81E02DD6CBD76F
:10186000882309F461CF80E027D65ECF813069F705
:1018700081E0EDD661DA80E0EAD6409147015091EF
:1018800048018091490190914A019A012C5F3F4F94
:10189000BC016B5F7F4FD8CF81E00ED6ACD78823D9
:1018A00019F280E009D6C0CFB7DA90E080E057D1D6
:1018B000082F10E0102F0027109322010093210120
:1018C00081E090E04CD1082B10932201009321017C
:1018D00060912A0170912B01061717070CF09BC02D
:1018E000709322016093210181E090E040D16091EA
:1018F0002B0190E080E03BD160E080E0E1D7F8D7B9
:101900008FEFBBD71DE781E0B8D71150E1F78FEF1C
:10191000B4D7CCD711E0612F80E0D2D7E9D78FEFD1
:10192000ACD70DE780E0A9D70150E1F78FEFA5D73D
:101930001F5F173081F7BAD767E080E0C1D7D8D7EB
:101940008FEF9BD71DE780E898D71150E1F78FEF15
:1019500094D7ACD7C0902A01D0902B0140E060E52D
:1019600070E0C60110D8809021019090220140E0E3
:1019700068E270E0C40107D810E000E0B80182E33B
:1019800090E0BADA0E5C1F4F083E33E01307B1F760
:1019900014E041E060E570E0C601F5D7FF2029F0D2
:1019A00041E068E270E0C401EED768EC70E080E0EE
:1019B00090E0FFD440E060E570E0C601E4D7FF208E
:1019C00029F040E068E270E0C401DDD768EC70E027
:1019D00080E090E0EED41150E1F668EE73E080E034
:1019E00090E0E7D419DA8EEA0CDA379885B7877E6B
:1019F000806185BF85B7806285BF85B7806285BFFE
:101A0000889585B78F7D85BF85B78F7D85BF379AD0
:101A10008FEAF7D9DACCF12C6FCF8F929F92AF92E9
:101A2000BF92CF92DF92EF92FF92CF93DF93EC01C0
:101A3000688179818A819B81611571058105910594
:101A400021F464E279ED8BE597E02DE133EF41E09D
:101A500050E0B4D049015A0127EA31E440E050E0B7
:101A600094D06B017C012CEE34EF4FEF5FEFC5019A
:101A7000B4018BD0C60ED71EE81EF91EF7FE06C0B5
:101A800081E0C81AD108E10880E8F80AC882D98242
:101A9000EA82FB82C701B6019F77DF91CF91FF9069
:101AA000EF90DF90CF90BF90AF909F908F90089570
:101AB0008F929F92AF92BF92CF92DF92EF92FF925E
:101AC0006091610070916200809163009091640068
:101AD000611571058105910521F464E279ED8BE5CD
:101AE00097E02DE133EF41E050E068D049015A0121
:101AF00027EA31E440E050E048D06B017C012CEE55
:101B000034EF4FEF5FEFC501B4013FD0C60ED71ED3
:101B1000E81EF91EF7FE06C081E0C81AD108E108E8
:101B200080E8F80AC0926100D0926200E0926300FF
:101B3000F0926400C701B6019F77FF90EF90DF90AD
:101B4000CF90BF90AF909F908F9008956093610069
:101B50007093620080936300909364000895E1990C
:101B6000FECF9FBB8EBBE09A99278DB30895262F99
:101B7000E199FECF1CBA9FBB8EBB2DBB0FB6F8946C
:101B8000E29AE19A0FBE01960895EE27FF27AA2751
:101B9000BB2708C0A20FB31FE41FF51F220F331F7E
:101BA000441F551F969587957795679598F37040D4
:101BB000A9F7009799F7BD01CF010895052E97FB6E
:101BC00016F400940FD057FD05D014D007FC02D0B6
:101BD00046F408C050954095309521953F4F4F4FA2
:101BE0005F4F089590958095709561957F4F8F4FC9
:101BF0009F4F0895A1E21A2EAA1BBB1BFD010DC029
:101C0000AA1FBB1FEE1FFF1FA217B307E407F507AC
:101C100020F0A21BB30BE40BF50B661F771F881F88
:101C2000991F1A9469F760957095809590959B011E
:101C3000AC01BD01CF010895002480FD060E660FA2
:101C400011F08695D1F7802D08950024552704C002
:101C5000080E591F880F991F009729F076956795F0
:101C6000B8F37105B9F7802D952F089597FB072ECE
:101C700016F4009406D077FD08D00BD007FC05D0F1
:101C80003EF4909581959F4F0895709561957F4F93
:101C90000895AA1BBB1B51E107C0AA1FBB1FA617B3
:101CA000B70710F0A61BB70B881F991F5A95A9F705
:0E1CB00080959095BC01CD010895F894FFCF6A
:101CBE000101000000202D2D2D2D2D2D2000205452
:101CCE004554524953200020417474696E792000A6
:101CDE0020417263616465200020204841524420F7
:101CEE000020204D4F44452000204E4F524D414C78
:101CFE00002047484F5354200020204F4E202020D4
:0A1D0E000020204F46462020000070
:00000001FF
