:10000000D4C020C44CC4ECC0EBC0D2C3E9C0E8C02B
:10001000E7C0E6C0E5C0E4C0E3C0E2C0E1C0000064
:1000200000000000000808080808000060600000E8
:10003000003C4030403C003E5149453E0000427F7C
:100040004000004261514946002141454B310018B2
:1000500014127F10002745454539003C4A49493074
:10006000000171090503003649494936000649492E
:10007000291E000036360000007C1211127C007F21
:1000800049494936003E41414122007F4141221CFD
:10009000007F49494941007F09090901003E414962
:1000A000497A007F0808087F0000417F4100002056
:1000B00040413F01007F08142241007F4040404002
:1000C000007F020C027F007F0408107F003E414148
:1000D000413E007F09090906003E4151215E007F33
:1000E000091929460046494949310001017F0101AA
:1000F000003F4040403F001F2040201F003F40384D
:10010000403F00631408146300070870080700618B
:1001100051494543002054545478007F48444438A2
:1001200000384444442000384444487F0038545444
:10013000541800087E0901020018A4A4A47C001C25
:10014000A0A0A07C0000447D4000004080847D0091
:10015000007F102844000000417F4000007C04180C
:100160000478007C0804047800384444443800FCD7
:10017000242424180018242418FC007C08040408F3
:1001800000485454542000043F444020003C404068
:10019000207C001C2040201C0000000036000202D1
:1001A0000202020201020408102011241FBECFE542
:1001B000D2E0DEBFCDBF11E0A0E6B0E0E6EFFAE1AD
:1001C00002C005900D92A437B107D9F721E0A4E74A
:1001D000B1E001C01D92A23EB207E1F76AD389CC1B
:1001E0000FCF17B887B187B9369A3699FECF84B149
:1001F00095B108953FB7F8948091DB019091DC01AF
:10020000A091DD01B091DE0122B708B601FE05C064
:100210002F3F19F00196A11DB11D3FBFBA2FA92F85
:10022000982F8827BC01CD01620F711D811D911D82
:1002300043E0660F771F881F991F4A95D1F70895ED
:10024000CF92DF92EF92FF92CF93DF936B017C010D
:10025000D1DFEB01CFDF6C1B7D0B683E7340A0F05C
:10026000C114D104E104F10439F4DF91CF91FF907E
:10027000EF90DF90CF90089581E0C81AD108E1088F
:10028000F108C851DC4FE6CFC114D104E104F104F8
:1002900009F7EBCF81E08093DF0185E08093E001F7
:1002A0000895E5EBF1E0119281E0E53CF807D9F71C
:1002B000E5ECF1E0119281E0E53DF807D9F72091F6
:1002C000610030916200B9016B5F7F4FEBECF1E0B0
:1002D00086E090E041E0681779071CF041930196B1
:1002E000FACFE5EBF1E081E0AF01455B5140421709
:1002F000530714F48193F8CF089530E020E090E0A4
:10030000AC01022E01C0440F0A94EAF747FF0CC06B
:10031000C39AC49AC4982F5F3F4F2830310581F7A4
:10032000C39AC49AC4980895C398F3CFC498C39845
:10033000C49AC39A0895C49AC39AC398C498089556
:10034000CF93DF93C82FD62FF6DF88E7D6DF80E084
:10035000D4DF80EB8D0FD1DF8C2F82958F70806181
:10036000CCDF8C2F8E708160C8DFDF91CF91DECF24
:10037000E2DF88E7C2DF80E4C0CFAF92BF92CF92C6
:10038000DF92EF92FF920F931F93CF93DF93D82FBB
:10039000E62E6A01F12CF601EF0DF11D8081882314
:1003A00069F1C0E0803251F0C4EDC80FC03130F0C7
:1003B000CEECC80FC93210F0C5ECC80FDF3710F013
:1003C000E394D0E06E2D8D2FBBDFD2DF8C2F90E039
:1003D00066E070E056DB10E000E0825E9F4F5C015B
:1003E000F501E00FF11F849188DF0F5F1F4F06308A
:1003F0001105B1F79BDFDA5FF394CDCFDF91CF9199
:100400001F910F91FF90EF90DF90CF90BF90AF9032
:100410000895CF93C82F8FDF88E76FDF80E06DDF0F
:100420008C2F6BDFCF9182CFCF93DF93C0EB8C2FDC
:10043000F0DF80E0EEDF80E1ECDF9ADFD0E080E00B
:100440005CDFDF5FD038D9F771DFCF5FC83B79F76A
:10045000DF91CF910895BB9ABC9A8EEADADF80E0F3
:10046000D8DF80E1D6DF80E4D4DF81E8D2DF8FEC13
:10047000D0DF81EACEDF88ECCCDF86EACADF88EA0B
:10048000C8DF8FE3C6DF83EDC4DF80E0C2DF85ED28
:10049000C0DF80E8BEDF89EDBCDF81EFBADF8AED27
:1004A000B8DF82E1B6DF8BEDB4DF80E4B2DF80E25B
:1004B000B0DF82E0AEDF8DE8ACDF84E1AADF84EA62
:1004C000A8DF86EAA6DF8FEAA4CF90B79F7D90BF12
:1004D000811105C08FB7F894C1988FBF08958FB769
:1004E000F894C19AFACFEF92FF920F931F93CF9394
:1004F000DF932091B40121111DC0EB017C0110E0BC
:1005000000E081E0E2DF90E080E08C179D071CF4C2
:1005100000000196FACF80E0D8DF90E080E08C17F1
:100520009D071CF400000196FACF0F5F1F4FE016E5
:10053000F1063CF7DF91CF911F910F91FF90EF9063
:1005400008954F925F926F927F928F929F92AF9297
:10055000BF92CF92DF92EF92FF921F93CF93DF93E0
:1005600000D000D000D0CDB7DEB78E83E091E1019E
:10057000F0E0E158FF4F20812D83822F8C7090E0B6
:10058000B0E0A0E09C01AD010E8004C0220F331F3B
:10059000441F551F0A94D2F729833A834B835C8307
:1005A0008981ABDE8D818E7590E0B0E0A0E04C01DA
:1005B0005D010E8004C0880C991CAA1CBB1C0A9407
:1005C000D2F7882D9ADE8D81877990E0B0E0A0E0A7
:1005D0002C013D010E8004C0440C551C661C771C88
:1005E0000A94D2F7842D89DE3D813375C32ED12C38
:1005F000F12CE12C0E8004C0CC0CDD1CEE1CFF1C89
:100600000A94D2F78C2D79DE8C2D77DE842D75DE61
:10061000882D73DE898171DE8091E001882331F1BC
:1006200044E00E8001C0440F0A94EAF7498319E1BF
:10063000898163DE1150E1F785E190E09C010E8035
:1006400002C0220F331F0A94E2F73A83298389817B
:1006500054DE898152DE8091DF01813029F464E625
:1006600070E082E390E03FDF1092DF0126960FB644
:10067000F894DEBF0FBECDBFDF91CF911F91FF90E9
:10068000EF90DF90CF90BF90AF909F908F907F9032
:100690006F905F904F90089590E0FC01EC55FE4FF5
:1006A0002491FC01E256FE4FE491EE2371F0F0E05C
:1006B000EE0FFF1FE856FE4FA591B491EC91E22397
:1006C00081E090E021F480E0089580E090E00895DA
:1006D00080E013DE80E011DE80E00FDE80E00DDEE2
:1006E00080E00BDE80E009DE80E007DE80E005CE02
:1006F0000F931F93CF93DF938C0180E021DE38DED0
:1007000084E0000F111F8A95E1F7D0E0C0E0FE0100
:10071000E00FF11FEB54FE4F80818130C9F480E07F
:10072000ECDD8EE7EADD8EE7E8DD8EE7E6DD8EE7DD
:10073000E4DD8EE7E2DD8EE7E0DD80E0DEDD2196C0
:10074000C031D10521F7DF91CF911F910F91EECDEF
:10075000BFDFF5CF31C9EF92FF920F931F93CF9375
:10076000DF93CDB7DEB72A970FB6F894DEBF0FBE82
:10077000CDBFF82EE62ECA018E010F5F1F4F2AE073
:10078000F80111922A95E9F74AE0B801DAD8A801F0
:100790006E2D8F2DF2DD2A960FB6F894DEBF0FBEB8
:1007A000CDBFDF91CF911F910F91FF90EF900895F2
:1007B0001F920F920FB60F9211242F933F938F9396
:1007C0009F93AF93BF938091D7019091D801A0914F
:1007D000D901B091DA013091D60126E0230F2D37EF
:1007E00068F129E8230F0396A11DB11D2093D601BE
:1007F0008093D7019093D801A093D901B093DA01E7
:100800008091DB019091DC01A091DD01B091DE01CE
:100810000196A11DB11D8093DB019093DC01A09393
:10082000DD01B093DE01BF91AF919F918F913F9118
:100830002F910F900FBE0F901F9018950296A11D3B
:10084000B11DD4CF1F920F920FB60F9211242F9388
:100850003F934F935F936F937F938F939F93AF9348
:10086000BF93EF93FF938091800190918101892B39
:1008700029F0E0918001F09181010995FF91EF91BC
:10088000BF91AF919F918F917F916F915F914F91A8
:100890003F912F910F900FBE0F901F9018951F92B0
:1008A0000F920FB60F9211240F900FBE0F901F9052
:1008B0001895CF93DF9300D000D000D0CDB7DEB72E
:1008C00080E886BD91E096BD83E08ABD83BF7894C1
:1008D00089B7826089BF80E48CBD8FEF8DBD87ECC6
:1008E00080BF86E886B982E087BB95BB8BB7806204
:1008F0008BBF789481E08093D50182E0CDDE0197B3
:1009000011F41092D501A7DD8FDD8091D501811101
:100910004CC02EE12D8367E0C62ED12CE12CF12CAA
:100920007FE7872E912CA12CB12C00E810E0B2D7E4
:100930002B013C01AFD769837A838B839C83C301EE
:10094000B201A70196015FD86E8369817A818B819C
:100950009C81A501940157D8862F6E81F1DC08DDBA
:1009600099D7A70196014FD8C80102C095958795E0
:100970006A95E2F7C2DCDADC9D8191509D8391118A
:10098000D6CF4AEA50E062E08EE0F7DC4BEB50E075
:1009900064E083E0F2DC40ED50E066E081E1EDDC14
:1009A0004BE950E067E086E145C0E5EBF1E085EC1E
:1009B00091E011928E179F07E1F731E03093C30168
:1009C00062E070E090E080E093DE41E04093C2019D
:1009D00063E070E090E080E08BDE51E05093C40172
:1009E00064E070E090E080E083DE65E070E090E03D
:1009F00080E07EDE81E08093C10166E070E090E0FF
:100A000080E076DE67E070E090E080E071DE41E853
:100A100050E062E080E0B1DC43EC50E064E080E074
:100A2000ACDC4FE850E066E080E0A7DC4BE950E04A
:100A300067E080E0A2DC8FB7F894C090D701D09037
:100A4000D801E090D901F090DA018FBF80E024DE78
:100A5000019709F079C12FB7F8948091D70190914F
:100A6000D801A091D901B091DA012FBF8C199D094D
:100A7000AE09BF09813D9740A105B1053CF382E075
:100A80000BDE019709F047C160E090E080E062DE94
:100A900060E081E090E05EDE60E082E090E05ADEBF
:100AA00060E083E090E056DE41EE50E060E088E0F8
:100AB00064DCF1E0F98380E0EFDD0197E1F3498147
:100AC0004111FDC268E27AE080E090E0B9DBC3DC6E
:100AD000ABDC1092B3011092B2011092B10180917F
:100AE000D501882309F404C310927F0110927E017E
:100AF00010927D0110927C0181E090E0909365005E
:100B0000809364008093630026E030E030937B01A3
:100B100020937A011092B0011092AF011092DF0180
:100B20003093620020936100109279011092780155
:100B3000109277011092760180936000B2DB67E03B
:100B400070E081E090E0D4DD95EC492E91E0592EE3
:100B50002DE0622E712C34EC832E31E0932E45EB88
:100B6000A42E41E0B42E54E0C52ED12C8091B301C7
:100B70008111F6C101E011E085E0282E312C809131
:100B80007C0190917D01019690937D0180937C0181
:100B90004091B1015091B20167E070E090E080E0D7
:100BA000DADD20917801222349F08091760190913D
:100BB0007701019690937701809376018091760179
:100BC000909177010A9744F0222331F01092780136
:100BD000109279011092DF0182E05EDD019731F41D
:100BE00082E05ADD0197E1F31093DF0180E054DDEC
:100BF000019731F480E050DD0197E1F31093DF01BC
:100C0000F0DA8C3A934034F4ECDA8C3A9340E4F323
:100C10001093DF01E0907A01F0907B01B70190E042
:100C200080E066DD80917901811194C08091DF01BF
:100C3000813009F08FC08091610090916200109224
:100C40007F0110927E01E5EBF1E01A821982208982
:100C5000213051F42081213009F078C029813A8176
:100C60002F5F3F4F3A83298331964E165F0679F7FF
:100C700049815A8150936200409361004817590797
:100C800014F410926000B70181E090E031DD51E092
:100C9000E51AF108F0927B01E0927A0189819A814C
:100CA000892B99F027E030E02E193F098091B1019E
:100CB0009091B201820F931F9093B2018093B10182
:100CC0006CE271E082E390E00EDC10937901109207
:100CD000DF01109277011092760110937801F7FCF2
:100CE00039C0E5EBF1E0CF01855B914029813A8184
:100CF000821793076CF12B543E4F3A8329838981E5
:100D00009A81855B914040972CF5E981FA81119297
:100D1000FA83E983F4CF8091B40181110BC081E0A3
:100D20008093B40144EF50E060E080E226DB21E0F4
:100D30002983C1CE1092B4014FEF50E060E087E10B
:100D40001CDB31E03983B7CE1982B5CE108A8CCF47
:100D50000193C9CF20916400309165003A832983C3
:100D6000C301821B930B8430910514F484E090E05E
:100D700020917C0130917D0128173907FCF01092F9
:100D80007D0110927C0180916300882309F4BBC02F
:100D90008091C401813009F0ACC080917E019091B6
:100DA0007F01019690937F0180937E01459724F007
:100DB00081E08093B301DACE1092630080916100EC
:100DC00090916200892BA1F380917A0190917B012F
:100DD00097FFD5CE49815A8186E090E04630510593
:100DE0000CF4B9C089819A8109970CF09DC03092AA
:100DF00062002092610010927701109276011092A9
:100E000079011092780110927D0110927C0186E0A8
:100E100090E090937B0180937A01E981FA81319689
:100E2000FA83E983F0936500E0936400FDDA46E31A
:100E300051E061E080E1A1DA4EE051E062E080E162
:100E40009CDA46E351E063E080E197DA809160004C
:100E50008823A1F04AE151E065E089E18EDA48E2B9
:100E600051E067E089E189DA8091B1019091B201A6
:100E70008C599F4F9093B2018093B10149815A815F
:100E800062E070E085E590E066DC60E273E08EE1B0
:100E900090E029DB68E572E08EE190E024DB60E918
:100EA00071E08EE190E01FDB6CED75E080E090E09A
:100EB000C7D9BADA1093630010936000F2D9109288
:100EC000DF0167E070E081E090E012DC2CEB32E0C3
:100ED0003A83298369817A818EE190E004DB49813C
:100EE0005A81445651095A8349834436510591F732
:100EF00046CEE4ECF1E082918183AE16BF06D9F7CD
:100F00001092B5015BCF8091B501813019F48093C7
:100F1000630054CFE5EBF1E0818181938E169F064B
:100F2000D9F71092C4014ACFE981FA813C972CF499
:100F3000D0926200C09261005ECF29813A812F3049
:100F400031053CF443E050E050936200409361006F
:100F500052CF82E090E090936200809361004BCF8B
:100F600082E090E021D5E82FF0E03E2F22273A835F
:100F700029833093B0012093AF0183E090E014D532
:100F800049815A81482B5093B0014093AF01609141
:100F9000B1017091B201461757077CF47093B0010C
:100FA0006093AF0183E090E0D5DB6091B20182E015
:100FB00090E0D0DB81E08093AA018091AF01909115
:100FC000B0019093AE018093AD012EDA44E351E07D
:100FD00061E08BE0D2D945E451E062E08BE0CDD90D
:100FE00044E351E063E08BE0C8D94BE551E065E0B4
:100FF00085E2C3D94091B1015091B20165E070E042
:101000008BE490E0A8DB8091AA0181110EC046E537
:1010100051E067E085E1B1D94091AD015091AE0159
:1010200067E070E088E590E096DB1A8219826981BA
:101030007A8182E390E057DA89819A81C2969A8315
:101040008983883E934099F760ED77E080E090E0F7
:10105000F7D88091AA01882391F1E6D944E351E0C1
:1010600061E08AE08AD942E651E063E08AE085D90E
:1010700044E351E067E08AE080D94091AD015091AE
:10108000AE0165E070E082E390E065DB2CEB32E0DE
:101090003A83298369817A818EE190E024DA49815B
:1010A0005A81425351095A834983483C510591F76B
:1010B0001092AA016CE87AE080E090E0C1D8B4D93F
:1010C0008EEAA7D9379885B7877E806185BF85B7B7
:1010D000806285BF85B7806285BF889585B78F7D23
:1010E00085BF85B78F7D85BF379A8FEA92D902CCAD
:1010F0001092DF0183E080937A0082E08093790090
:10110000E7E6F0E0A1EAB1E08EEC9FEF81939193E6
:101110001D9250E0E937F507C9F71092A00110922F
:101120009F0110929E0110E000E08091B3018111B7
:1011300028C357D88C3A93400CF049C001151105CB
:1011400041F481E08093DF0185E08093E00101E0DC
:1011500010E02FB7F8948AE491E090938101809396
:1011600080012FBF85B7836085BF8BB780648BBF3D
:101170002091B1013091B201243FF1E03F0754F5D5
:10118000C9016EEC7FEF8ED4655F60939D01809105
:101190007A00853040F4C901889666E470E082D414
:1011A0006F5F60937A0060917A0070E080E89EE360
:1011B00079D4CB01880F991F04970197F1F7C901E2
:1011C0006CE97FEF6FD4645C6093660007C010E049
:1011D00000E0BFCF203D47E034078CF38091DF0172
:1011E000813031F4215031093093B2012093B101A3
:1011F0008091E001882319F081508093E00183E021
:1012000090E09A838983FF24F39480E045DA019784
:10121000B9F480919E01882399F0815080939E01BA
:10122000F092E10170E060E081E090E05CD932D3BF
:1012300022E030E040E050E0E6D381E090E053D996
:10124000E981FA813197FA83E983EF2BF1F6209156
:10125000790080919F019091A001820F911D909340
:10126000A00180939F01D12CCC24C39480917A005B
:10127000D81608F0D7C02D2D30E03A8329837901A4
:10128000EE0CFF1CF701E959FF4F808191818138F5
:10129000910508F03DC020917900821B910991834E
:1012A0008083E981FA81EC56FE4F2081222381F16F
:1012B000849774F5A981BA81AF55BE4F4C91809146
:1012C0009E01481728F590E00596D701AE57BE4F0E
:1012D0002D913C91240F311D82179307CCF48091FE
:1012E000E0018823A9F010828091B1019091B201B0
:1012F00005969093B2018093B101F0E9AF2EB12C25
:10130000B50181E090E0EFD831E0A31AB108C1F750
:10131000A70149595F4F5A01FA01808191810597D0
:101320000CF072C040909F015090A001052C000C61
:1013300066087708AFD226E430E040E050E063D39F
:10134000625E7F4F8F4F9F4F46165706680679069D
:101350000CF45AC02BE730E0F501318320838090F4
:101360006600912CB12CA12C89E190E0A0E0B0E0C6
:101370003AE183169104A104B1046CF08BD2A5016B
:10138000940129513109410951093DD3DC01CB01B7
:101390004996A11DB11DF701EE57FE4F9183808341
:1013A000E0E4EE2EF12CE81AF90A60E01E141F04A6
:1013B00034F470D29701FF0C440B550B24D3E98110
:1013C000FA81EF55FE4F608380909D01912CB12CE6
:1013D000A12C49815A814C565E4F5A83498381140E
:1013E0009104A104B10491F4E981FA81C0821092C0
:1013F000A00110929F018091B1019091B2010196DC
:101400009093B2018093B101D39430CF43D2A50120
:101410009401F9D2672B682B692B31F3E981FA81AA
:101420001082E5CFF090E001F11007C080919E019D
:10143000883318F48F5F80939E011982F0919E018A
:10144000F695F695F695FD832981F21739F0622F0E
:1014500080E076D78DD73CD93BD968D739813F5FBB
:101460003983383059F76D8180E16AD781D7F1101F
:1014700009C04FE1498380E040D7598151505983D9
:101480005111F9CF53D7F12CEE24E39480917A00D7
:10149000F81608F0C1C08F2D90E09A8389839C01D3
:1014A000220F331FF901E959FF4F80819181AC016F
:1014B0004B5F5F4F4638510508F09AC00997079770
:1014C000E8F4E981FA81EF55FE4F608180919E0139
:1014D000861790F090E00496F901EE57FE4F408198
:1014E0005181460F511D8417950734F4E981FA8123
:1014F000EC56FE4F80818111E092B301D12CC12CBA
:10150000F901E959FF4F2F0149815A814F555E4F2B
:101510003A01C9018E579E4F5C01E981FA81EC5670
:10152000FE4FFA83E983F201808091806C2D882D33
:1015300007D71ED7F1E08F1A910896012F5F3F4F12
:1015400069013FE78316910408F04DC0A60163E0EE
:10155000440F551F6A95E1F7F301208130E0CA017D
:10156000821B930B89309105D4F488248A94912CA2
:1015700002C0959487948A95E2F7E981FA813080D8
:10158000332011F02AEA322E882DB7D6832D869586
:101590008829B3D6832D8829B0D6882D1EC0BA01DC
:1015A00068507109F50180819181820F931F621744
:1015B000730704F1841795070CF415C1E981FA81CA
:1015C0009080992011F04AEA942E80E096D6892DD9
:1015D000869593D6892D91D680E08FD680E08DD6E2
:1015E00080E08BD6A3D6F8E0CF16D10409F09BCFCC
:1015F000F3944CCF861797070CF4F9C04817590796
:101600000CF4F5C08770992788248A94912C01C026
:10161000880C8A95EAF7B1CF20919E012D8327701F
:1016200029833D813695369536953D83222309F4ED
:10163000A1C0632F88E084D69BD6898182D776D6D5
:101640006D816F5F88E07CD693D6E091E101F0E098
:10165000E158FF4F40814E8388E05981851B8D837F
:10166000842F8C7090E0B0E0A0E09C01AD010D8073
:1016700004C055954795379527950A94D2F7298345
:101680003A834B835C83898138D68E818E7590E056
:10169000B0E0A0E04C015D010D8004C0B594A794BA
:1016A000979487940A94D2F7882D27D68E818779CC
:1016B00090E0B0E0A0E02C013D010D8004C07594E5
:1016C0006794579447940A94D2F7842D16D63E8196
:1016D0003375C32ED12CF12CE12C0D8004C0F59470
:1016E000E794D794C7940A94D2F78C2D06D68C2D04
:1016F00004D6842D02D6882D00D68981FED580910E
:10170000E001882351F184E090E00D8002C09595BE
:1017100087950A94E2F7898399E1F92E8981EDD5BD
:10172000FA94F110FBCF85E190E0AC010D8002C08E
:10173000559547950A94E2F75A8349838981DDD507
:101740008981DBD58091DF01813029F464E670E086
:1017500082E390E0C8D61092DF01E8D54091B10154
:101760005091B20170E060E08CE590E0F4D7109207
:10177000E101DBCC6D8188E0E3D5FAD580E0E1D6EC
:10178000ECCF90E080E010D1E82FF0E03E2F222750
:101790003A8329833093AC012093AB0181E090E040
:1017A00003D149815A81482B5093AC014093AB013E
:1017B0006091B1017091B201461757077CF47093A4
:1017C000AC016093AB0181E090E0C4D76091B201BD
:1017D00090E080E0BFD781E08093AA018091AB01C7
:1017E0009091AC01EECB861797070CF00BCF8FEFE3
:1017F00084D58FEF82D58FEF80D58FEFEECE8F928D
:101800009F92AF92BF92CF92DF92EF92FF92CF93CF
:10181000DF93EC01688179818A819B816115710573
:101820008105910521F464E279ED8BE597E02DE1E6
:1018300033EF41E050E0E7D049015A0127EA31E4B3
:1018400040E050E0C7D06B017C012CEE34EF4FEF4D
:101850005FEFC501B401BED0C60ED71EE81EF91E4B
:10186000F7FE06C081E0C81AD108E10880E8F80A4E
:10187000C882D982EA82FB82C701B6019F77DF91D5
:10188000CF91FF90EF90DF90CF90BF90AF909F905F
:101890008F9008958F929F92AF92BF92CF92DF92D6
:1018A000EF92FF9260917B0070917C0080917D00AF
:1018B00090917E00611571058105910521F464E226
:1018C00079ED8BE597E02DE133EF41E050E09BD0DF
:1018D00049015A0127EA31E440E050E07BD06B0136
:1018E0007C012CEE34EF4FEF5FEFC501B40172D0F5
:1018F000C60ED71EE81EF91EF7FE06C081E0C81A04
:10190000D108E10880E8F80AC0927B00D0927C0000
:10191000E0927D00F0927E00C701B6019F77FF90B4
:10192000EF90DF90CF90BF90AF909F908F900895F1
:1019300060937B0070937C0080937D0090937E0089
:101940000895BB274A3031F4992322F4BDE29095E3
:1019500081959F4F01C0BB27FB015527AA27880F00
:10196000991FAA1FA41710F0A41B83955051B9F713
:10197000A05DAA3308F0A95DA193009779F7B11192
:10198000B1931192CB0100C0DC01FC01672F719172
:101990007723E1F7329704C07C916D937083629155
:1019A000AE17BF07C8F30895E199FECF9FBB8EBB6A
:1019B000E09A99278DB30895262FE199FECF1CBA9E
:1019C0009FBB8EBB2DBB0FB6F894E29AE19A0FBE77
:1019D00001960895EE27FF27AA27BB2708C0A20F6C
:1019E000B31FE41FF51F220F331F441F551F969589
:1019F00087957795679598F37040A9F7009799F7C1
:101A0000BD01CF010895052E97FB16F400940FD069
:101A100057FD05D014D007FC02D046F408C05095FD
:101A20004095309521953F4F4F4F5F4F08959095CA
:101A30008095709561957F4F8F4F9F4F0895A1E2DC
:101A40001A2EAA1BBB1BFD010DC0AA1FBB1FEE1F38
:101A5000FF1FA217B307E407F50720F0A21BB30B83
:101A6000E40BF50B661F771F881F991F1A9469F7FF
:101A700060957095809590959B01AC01BD01CF015B
:101A800008950024552704C0080E591F880F991F78
:101A9000009729F076956795B8F37105B9F7802D11
:101AA000952F089597FB072E16F4009406D077FD26
:101AB00008D00BD007FC05D03EF4909581959F4F40
:101AC0000895709561957F4F0895AA1BBB1B51E146
:101AD00007C0AA1FBB1FA617B70710F0A61BB70B9E
:101AE000881F991F5A95A9F780959095BC01CD0143
:061AF0000895F894FFCFF9
:101AF6000106000101003CCEFFCEFFCEFFCEFFCE99
:101B0600FFCEFFCEFFCEFFCEFF0201010000003F59
:101B1600FF53205420412043204B2045205200698A
:101B26006E737069726564206268002F6562626F09
:101B360067676C65732E636F6D00552046204F20D6
:101B4600204320482041204F2053006D6F647320AE
:101B5600626820616E6468206A61636B736F6E00F1
:101B66006F726967696E616C2067616D6520626876
:101B7600002D484947482053434F5245205245536C
:101B860045542D002D2D204D555445202D2D002D2D
:101B96002D20534F554E44204F4E202D2D00204CC6
:101BA600204520562045204C2000504552464543AE
:101BB60054204C4556454C00202031303020424FB1
:101BC6004E5553002D2D2D2D2D2D2D2D2D2D2D2DFD
:101BD6002D2D2D2D00472041204D204520204F2022
:101BE600562045205200484947482053434F524506
:101BF6003A00204E455720484947482053434F5204
:041C06004520000075
:00000001FF
