:10000000D4C0A5C4D1C4ECC0EBC057C4E9C0E8C09B
:10001000E7C0E6C0E5C0E4C0E3C0E2C0E1C0000064
:1000200000000000000808080808000060600000E8
:10003000003C4030403C003E5149453E0000427F7C
:100040004000004261514946002141454B310018B2
:1000500014127F10002745454539003C4A49493074
:10006000000171090503003649494936000649492E
:10007000291E000036360000007C1211127C007F21
:1000800049494936003E41414122007F4141221CFD
:10009000007F49494941007F09090901003E414962
:1000A000497A007F0808087F0000417F4100002056
:1000B00040413F01007F08142241007F4040404002
:1000C000007F020C027F007F0408107F003E414148
:1000D000413E007F09090906003E4151215E007F33
:1000E000091929460046494949310001017F0101AA
:1000F000003F4040403F001F2040201F003F40384D
:10010000403F00631408146300070870080700618B
:1001100051494543002054545478007F48444438A2
:1001200000384444442000384444487F0038545444
:10013000541800087E0901020018A4A4A47C001C25
:10014000A0A0A07C0000447D4000004080847D0091
:10015000007F102844000000417F4000007C04180C
:100160000478007C0804047800384444443800FCD7
:10017000242424180018242418FC007C08040408F3
:1001800000485454542000043F444020003C404068
:10019000207C001C2040201C0000000036000202D1
:1001A0000202020201020408102011241FBECFE542
:1001B000D2E0DEBFCDBF11E0A0E6B0E0ECE9FCE1AB
:1001C00002C005900D92A234B107D9F721E0A2E454
:1001D000B1E001C01D92A93BB207E1F7FED35CCDAF
:1001E0000FCF3FB7F8948091B2019091B301A091E5
:1001F000B401B091B50122B708B601FE05C02F3F8A
:1002000019F00196A11DB11D3FBFBA2FA92F982F3C
:100210008827BC01CD01620F711D811D911D43E036
:10022000660F771F881F991F4A95D1F70895CF92BF
:10023000DF92EF92FF92CF93DF936B017C01D1DFCE
:10024000EB01CFDF6C1B7D0B683E7340A0F0C11447
:10025000D104E104F10439F4DF91CF91FF90EF90E4
:10026000DF90CF90089581E0C81AD108E108F10825
:10027000C851DC4FE6CFC114D104E104F10409F701
:10028000EBCF81E08093B60185E08093B7010895BC
:100290009C019FB7F89430934301209342019FBF84
:1002A00085B78C7F682B65BF8BB780648BBF089543
:1002B00030E020E090E0AC01022E01C0440F0A942F
:1002C000EAF747FF0CC0C49AC39AC3982F5F3F4F09
:1002D0002830310581F7C49AC39AC3980895C49809
:1002E000F3CFC398C498C39AC49A0895C39AC49A82
:1002F000C498C3980895CF93DF93C82FD62FF6DF05
:1003000088E7D6DF80E0D4DF80EB8D0FD1DF8C2F44
:1003100082958F708061CCDF8C2F8E708160C8DFFA
:10032000DF91CF91DECFE2DF88E7C2DF80E4C0CF8C
:10033000AF92BF92CF92DF92EF92FF920F931F93F3
:10034000CF93DF93D82FE62E6A01F12CF601EF0D43
:10035000F11D8081882369F1C0E0803251F0C4ED45
:10036000C80FC03130F0CEECC80FC93210F0C5EC68
:10037000C80FDF3710F0E394D0E06E2D8D2FBBDF78
:10038000D2DF8C2F90E066E070E0E9DB10E000E067
:10039000825E9F4F5C01F501E00FF11F849188DFC1
:1003A0000F5F1F4F06301105B1F79BDFDA5FF39443
:1003B000CDCFDF91CF911F910F91FF90EF90DF9004
:1003C000CF90BF90AF900895CF93C82F8FDF88E76D
:1003D0006FDF80E06DDF8C2F6BDFCF9182CFCF930B
:1003E000DF93C0EB8C2FF0DF80E0EEDF80E1ECDF0D
:1003F0009ADFD0E080E05CDFDF5FD038D9F771DFD3
:10040000CF5FC83B79F7DF91CF910895BC9ABB9A33
:100410008EEADADF80E0D8DF80E1D6DF80E4D4DF67
:1004200081E8D2DF8FECD0DF81EACEDF88ECCCDF51
:1004300086EACADF88EAC8DF8FE3C6DF83EDC4DF60
:1004400080E0C2DF85EDC0DF80E8BEDF89EDBCDF84
:1004500081EFBADF8AEDB8DF82E1B6DF8BEDB4DF82
:1004600080E4B2DF80E2B0DF82E0AEDF8DE8ACDFB7
:1004700084E1AADF84EAA8DF86EAA6DF8FEAA4CFB8
:10048000209144013091660080E890E0831B91093F
:10049000281719062CF4809144018F5F8093440142
:1004A000089590B79F7D90BF811105C08FB7F894D4
:1004B000C1988FBF08958FB7F894C19AFACFEF9281
:1004C000FF920F931F93CF93DF932091AB012111E4
:1004D0001DC0EB017C0110E000E081E0E2DF90E074
:1004E00080E08C179D071CF400000196FACF80E095
:1004F000D8DF90E080E08C179D071CF40000019687
:10050000FACF0F5F1F4FE016F1063CF7DF91CF9156
:100510001F910F91FF90EF9008954F925F926F920D
:100520007F928F929F92AF92BF92CF92DF92EF9283
:10053000FF921F93CF93DF9300D000D000D0CDB7B0
:10054000DEB78E83E091B801F0E0E058FF4F2081E4
:100550002D83822F8C7090E0B0E0A0E09C01AD0173
:100560000E8004C0220F331F441F551F0A94D2F778
:1005700029833A834B835C8389819ADE8D818E75D2
:1005800090E0B0E0A0E04C015D010E8004C0880C5A
:10059000991CAA1CBB1C0A94D2F7882D89DE8D8178
:1005A000877990E0B0E0A0E02C013D010E8004C00E
:1005B000440C551C661C771C0A94D2F7842D78DEF7
:1005C0003D813375C32ED12CF12CE12C0E8004C05B
:1005D000CC0CDD1CEE1CFF1C0A94D2F78C2D68DEBF
:1005E0008C2D66DE842D64DE882D62DE898160DEDE
:1005F0008091B701882331F144E00E8001C0440F9F
:100600000A94EAF7498319E1898152DE1150E1F732
:1006100085E190E09C010E8002C0220F331F0A94F6
:10062000E2F73A832983898143DE898141DE809123
:10063000B601813029F464E670E082E390E03FDFA8
:100640001092B60126960FB6F894DEBF0FBECDBF4E
:10065000DF91CF911F91FF90EF90DF90CF90BF90EF
:10066000AF909F908F907F906F905F904F90089584
:10067000CF92DF92EF92FF920F931F93CF93DF936E
:100680002091600030916100E0916400E20FF32F4F
:10069000F11D88E0C82ED12CCF01B60171DA8C0192
:1006A000079709F04FC0E0906200F0906300C0919E
:1006B0006500CE0DDF2DD11DCE01B60161DA0797A1
:1006C00051F52130310539F481E090E090936300D9
:1006D0008093620013C02F3F3F4F31F4EA94EF281C
:1006E00019F481E090E006C081E090E0909363000F
:1006F0008093620090936100809360006CE271E0EF
:100700008EE190E0DF91CF911F910F91FF90EF90DC
:10071000DF90CF90D4CEC770DD27CD2B99F4213058
:10072000310519F48FEF9FEFD1CF2F3F3F4F19F4D1
:10073000EF20E094B1F28FEF9FEF909363008093EE
:100740006200CFCFE770FF27EF2BA9F5E0916200A1
:10075000F0916300809165008E0F9F2F911DAC0179
:1007600047705527452B71F42F3F3207D9F22130BE
:10077000310529F4319619F48FEF9FEFBBCF8FEF3E
:100780009FEFB4CF68E070E0FBD9079781F42F3F6B
:10079000320709F499CF2130310511F4319761F313
:1007A00081E090E09093630080936200E5CF073092
:1007B000110511F796CF0730110509F492CFC091BA
:1007C0006200D0916300E0916500EC0FFD2FF11DF8
:1007D000CF0168E070E0D4D9079709F475CFE770CE
:1007E000FF27EF2B09F49ECFD195C195D109D09366
:1007F0006300C09362003195219531093093610007
:10080000209360007BCF90E0FC01EC55FE4F2491DB
:10081000FC01E256FE4FE491EE2371F0F0E0EE0FA2
:10082000FF1FE856FE4FA591B491EC91E22381E0C1
:1008300090E021F480E0089580E090E0089580E069
:1008400037DD80E035DD80E033DD80E031DD80E0E4
:100850002FDD80E02DDD80E02BDD80E029CD1AC981
:10086000EF92FF920F931F93CF93DF93CDB7DEB735
:100870002A970FB6F894DEBF0FBECDBFF82EE62E36
:10088000CA018E010F5F1F4F2AE0F80111922A95CD
:10089000E9F74AE0B801C3D8A8016E2D8F2D48DDD5
:1008A0002A960FB6F894DEBF0FBECDBFDF91CF9171
:1008B0001F910F91FF90EF9008951F920F920FB626
:1008C0000F9211242F933F938F939F93AF93BF93D6
:1008D0008091AE019091AF01A091B001B091B101B2
:1008E0003091AD0126E0230F2D3768F129E8230F61
:1008F0000396A11DB11D2093AD018093AE0190938D
:10090000AF01A093B001B093B1018091B201909179
:10091000B301A091B401B091B5010196A11DB11D23
:100920008093B2019093B301A093B401B093B50149
:10093000BF91AF919F918F913F912F910F900FBEDB
:100940000F901F9018950296A11DB11DD4CF1F9234
:100950000F920FB60F9211242F933F934F935F93F3
:100960006F937F938F939F93AF93BF93EF93FF9377
:100970008091420190914301892B29F0E09142013D
:10098000F09143010995FF91EF91BF91AF919F9134
:100990008F917F916F915F914F913F912F910F9028
:1009A0000FBE0F901F9018951F920F920FB60F92C7
:1009B00011248F9380914401882349F08091AC01E8
:1009C000882329F0809144018150809344018F91C4
:1009D0000F900FBE0F901F901895CF93DF9300D00C
:1009E00000D000D0CDB7DEB780E886BD91E096BDDF
:1009F00083E08ABD83BF789489B7826089BF80E431
:100A00008CBD8FEF8DBD87EC80BF86E886B982E014
:100A100087BB95BB8BB780628BBF78941092AC017B
:100A200082E0F1DE019719F481E08093AC017894C3
:100A3000EDDCD5DC2EE12D8357E0C52ED12CE12C49
:100A4000F12C6FE7862E912CA12CB12C00E810E040
:100A50008FD72B013C018CD769837A838B839C834E
:100A6000C301B201A70196013CD86E8369817A81E6
:100A70008B819C81A501940134D8862F6E813BDC4B
:100A800052DC76D7A70196012CD8C80102C09595F3
:100A900087956A95E2F70CDC24DC3D8131503D837B
:100AA0003111D6CF8091AC01882309F4A9C142E865
:100AB00050E062E080E13CDC43EA50E064E083E047
:100AC00037DC48EB50E066E086E132DC47EC50E092
:100AD00067E086E12DDC8FB7F894C090AE01D0902E
:100AE000AF01E090B001F090B1018FBF80E08BDEEC
:100AF000019709F0A3C12FB7F8948091AE019091AE
:100B0000AF01A091B001B091B1012FBF8C199D0927
:100B1000AE09BF09813D9740A105B1053CF382E0D4
:100B200072DE019709F071C160E090E080E097DE2D
:100B300060E081E090E093DE60E082E090E08FDEB4
:100B400060E083E090E08BDE46ED50E061E088E01D
:100B5000EFDB51E0598380E056DE0197E1F3E98154
:100B6000E11135C368E27AE080E090E060DBF89460
:100B70004DDC35DC1092AA011092A9011092A80157
:100B80008091AC01882309F43CC32FB7F89480917D
:100B9000AE019091AF01A091B001B091B1012FBF12
:100BA0008093750190937601A0937701B0937801BB
:100BB00025E531E005E411E081E0F80181938F0142
:100BC0008787878F2E173F07C1F780E180936600E4
:100BD00080E48093650082E3809364008FEF9FEF51
:100BE0009093630080936200909361008093600013
:100BF0001092A9011092A801BBD620E730E040E096
:100C000050E06FD760934401909144018091660059
:100C10008695890F8093650061E070E080E492E042
:100C200037DB30E3232E312C7724739455245394EF
:100C300066246394AA24AA94BA2C8091AA018111F3
:100C400017C268E270E080E090E0F1DA82E0DBDD7C
:100C5000019729F5209144018091660040E850E019
:100C6000481B5109CA01241715062CF42091440190
:100C70002F5F2093440120914401281719062CF47A
:100C8000209144012F5F20934401209144012817B3
:100C900019062CF4809144018F5F8093440180E019
:100CA000B2DD0197D9F480914401882329F0809125
:100CB000440181508093440180914401882329F0AC
:100CC00080914401815080934401809144018823A4
:100CD00029F0809144018150809344016091640027
:100CE000262F30E08091600090916100A901480FAB
:100CF000591F463351051CF48130910551F0281BD2
:100D0000390B223031050CF49BC08F3F980709F056
:100D100097C0860F8093640060916500262F30E0B5
:100D20008091620090916300A901480F591F4F37CD
:100D300051051CF48130910551F0281B390B2230EC
:100D400031050CF485C08F3F980709F081C0860FEC
:100D5000809365008091750190917601A091770153
:100D6000B09178010A96A11DB11D2FB7F89440915A
:100D7000AE015091AF016091B0017091B1012FBFF0
:100D800084179507A607B70708F000C1E091640033
:100D900080916000909161008E0F911D20916500FF
:100DA000EB30A0F0863391058CF03091440123178D
:100DB00008F456C03091440140916600430F552716
:100DC000551F2417150611F00CF04AC030E0609151
:100DD000440140916600469550E0640F752F711DE7
:100DE000261737070CF43FC060914401C6970CF4F6
:100DF0004AC021E030E030936300209362003EC09F
:100E000042E950E062E08EE056CE8091AB01811164
:100E10000BC081E08093AB0149EE50E061E080E2DD
:100E200087DA81E0898397CE1092AB0144EF50E0DE
:100E300061E087E17DDA91E099838DCE19828BCED6
:100E4000919581959109909361008093600064CFA2
:100E500091958195910990936300809362007ACF78
:100E60006092AA01EACEEB3008F4BECF863391053A
:100E70000CF4BACFB0926300A092620068E572E011
:100E800084E190E01CDB80916400609160007091CF
:100E90006100680F711D77FF02C0695F7F4F23E01B
:100EA000759567952A95E1F7072E000C880B990B2D
:100EB00094D66B017C014091A8015091A9015A83FD
:100EC000498320E030E040E050E481D6811116C033
:100ED000E0916500E695E695E695F0E0EB5BFE4F68
:100EE00080A1813009F044C010A289819A810196C5
:100EF0009093A9018093A801BBDBC5CF20E030E02F
:100F000040E85FE3C701B60162D6811114C0E091E9
:100F10006500E695E695E695F0E0EB5BFE4F80898F
:100F2000813031F5108AE981FA813196F093A90177
:100F3000E093A801E1CF20E030E0A901C701B601AC
:100F400046D6811115C0E0916500E695E695E695D7
:100F5000F0E0EB5BFE4F8081813051F410822981FB
:100F60003A812F5F3F4F3093A9012093A801C4CF4E
:100F700089819A81B10104D6892B41F4E5E4F1E03D
:100F800071927786778E0E171F07D1F7F89495E444
:100F9000E92E91E0F92E412C642D80E0ACD9C3D923
:100FA0001A821982E981FA81EE0DFF1D808181305C
:100FB00009F058C080E07CD986E0882E912C8EE71D
:100FC00077D931E0831A9108D1F780E071D949814E
:100FD0005A814F5F5F4F5A8349834031510511F762
:100FE00080D9439450E1E50EF11C83E04812D4CF40
:100FF000642D80E080D997D9198280E059D99981F0
:101000009F5F99839038C9F76CD94394E8E04E12FA
:10101000EFCFF0916400F9836F2F66956695669522
:101020008091650068D97FD9298127702F5F298336
:10103000852D01C0880F2A95EAF73AD952D9F8943C
:101040008091440167E057D96ED931E039838091AE
:1010500066004981481740F483E02AD959815F5FCF
:101060005983F5CFECDBB3CF3CD978947894EECDAF
:10107000789482E090E006D5E82FF0E03E2F22271A
:101080003A8329833093A7012093A60183E090E05F
:10109000F9D449815A81482B5093A7014093A60166
:1010A0006091A8017091A901461757077CF47093CD
:1010B000A7016093A60183E090E0D1DB6091A901D4
:1010C00082E090E0CCDB81E08093A1018091A601D9
:1010D0009091A7019093A5018093A40180D943E04A
:1010E00051E061E08BE024D944E151E062E08BE023
:1010F0001FD943E051E063E08BE01AD94AE251E0A6
:1011000065E085E215D94091A8015091A90165E0FB
:1011100070E08BE490E0A4DB8091A10181110EC00E
:1011200045E251E067E085E103D94091A401509187
:10113000A50167E070E088E590E092DB1A821982F1
:1011400069817A8182E390E0BAD9E981FA81F296E5
:10115000FA83E983E83EF34099F760ED77E080E0B9
:1011600090E065D88091A101882389F138D943E0C6
:1011700051E061E08AE0DCD841E351E063E08AE0DD
:10118000D7D843E051E067E08AE0D2D84091A4018B
:101190005091A50165E070E082E390E061DB4CEBEB
:1011A00052E05A83498369817A818EE190E087D940
:1011B00089819A81C2979A838983883C910599F79E
:1011C0001092A1016CE87AE080E090E030D807D975
:1011D0008EEAFAD8379885B7877E806185BF85B754
:1011E000806285BF85B7806285BF889585B78F7D12
:1011F00085BF85B78F7D85BF379A8FEAE5D8F8948C
:101200000DCC1092B60183E080937B0082E0809346
:101210007A00E8E6F0E0A8E9B1E08AE790E02EEC99
:101220003FEF219331931D928E179F07D1F71092B4
:1012300097011092960110929501B0E42B2E312C5B
:101240008091A8019091A9019A8389838091AA0134
:1012500081110AC363E070E081E491E019D8E9816B
:10126000FA81E43F21E0F20744F5CF016EEC7FEF15
:1012700087D4655F6093940180917B00853040F452
:10128000CF01889666E470E07BD46F5F60937B004B
:1012900060917B0070E080E89EE372D4CB01880F00
:1012A000991F04970197F1F789819A816CE97FEF83
:1012B00067D4645C6093670005C049815A81403DF2
:1012C000574094F38091B601813039F4E981FA8175
:1012D0003197F093A901E093A8018091B701882389
:1012E00019F081508093B70123E030E03A832983DD
:1012F00011E080E088DA0197B9F4809195018823A4
:1013000099F08150809395011093B80170E060E0EE
:1013100081E090E0D4D82CD322E030E040E050E0EF
:10132000E0D381E090E0CBD849815A814150510906
:101330005A834983452BE9F680917A0020919601E2
:1013400030919701820F932F911D90939701809375
:101350009601F12CEE24E39480917B00F81608F0BE
:10136000D7C08F2D90E09A8389838C01000F111FC5
:10137000F801E859FF4F808191818138910508F08B
:101380003DC020917A00821B910991838083E9817D
:10139000FA81E557FE4F2081222381F1849774F56D
:1013A000A981BA81A856BE4F4C91809195014817EA
:1013B00028F590E00596D801A758BE4F2D913C9195
:1013C000240F311D82179307CCF48091B701882335
:1013D000A9F010828091A8019091A901059690939F
:1013E000A9018093A801E0E9CE2ED12CB60181E0BD
:1013F00090E065D891E0C91AD108C1F7F801E85921
:10140000FF4F6F018081918105970CF073C0809030
:10141000960190909701092C000CAA08BB08A8D24D
:1014200026E430E040E050E05CD3625E7F4F8F4FB7
:101430009F4F86169706A806B9060CF45BC02BE7EB
:1014400030E0F6013183208380906700912CB12C2D
:10145000A12C89E190E0A0E0B0E03AE1831691048C
:10146000A104B1046CF084D2A50194012951310981
:101470004109510936D3DC01CB014996A11DB11DAB
:10148000F801E758FE4F91838083A101481B590B57
:10149000CA014A01550FAA08BB0860E018161906D0
:1014A00024F466D2A50194011CD3E981FA81E8569F
:1014B000FE4F608380909401912CB12CA12C8981E6
:1014C0009A8185579E4F9A83898381149104A10440
:1014D000B10491F4E981FA81E082109297011092AF
:1014E00096018091A8019091A90101969093A9017C
:1014F0008093A801F39430CF3BD2A5019401F1D29F
:10150000672B682B692B31F3E981FA811082E5CFD3
:101510001091B701111107C080919501883318F41B
:101520008F5F809395011982F0919501F695F6955C
:10153000F695FD832981F21739F0622F80E0DBD622
:10154000F2D67DD97CD9CDD639813F5F3983383009
:1015500059F76D8180E1CFD6E6D6111109C04FE170
:10156000498380E0A5D65981515059835111F9CF53
:10157000B8D610E001E080917B00181708F0C3C0D6
:10158000812F90E09A838983880F991FFC01E85985
:10159000FF4F20813181A9014B5F5F4F46385105D4
:1015A00008F09DC02950310927303105F0F4E98158
:1015B000FA81E856FE4F608120919501261798F038
:1015C00030E02C5F3F4FFC01E758FE4F40815181D6
:1015D000460F511D2417350734F4E981FA81E55788
:1015E000FE4F208121110093AA01F12CE12CFC0176
:1015F000E859FF4F3F0129813A8128563E4F590152
:10160000AC0147585E4F6A0189819A8185579E4F88
:101610009A838983F301808091806E2D882D6BD60B
:1016200082D6F1E08F1A910897012F5F3F4F790121
:101630003FE78316910408F04DC0A70163E0440F13
:10164000551F6A95E1F7F501208130E0CA01821B40
:10165000930B89309105D4F488248A94912C02C08C
:10166000959487948A95E2F7E981FA815080552014
:1016700011F09AEA592E882D1BD6852D869588293A
:1016800017D6852D882914D6882D1EC0BA0168501A
:101690007109F60180819181820F931F6217730790
:1016A00004F1841795070CF40CC1E981FA8190804C
:1016B000992011F03AEA932E80E0FAD5892D86958B
:1016C000F7D5892DF5D580E0F3D580E0F1D580E020
:1016D000EFD507D6F8E0EF16F10409F09BCF1F5FB6
:1016E0004ACF861797070CF4F0C0481759070CF437
:1016F000ECC08770992788248A94912C01C0880CAB
:101700008A95EAF7B1CF20919501122F177026958F
:10171000269526952983112309F49FC0622F88E01E
:10172000EAD501D6812FF9D6DCD569816F5F88E0D3
:10173000E2D5F9D5E091B801F0E0E058FF4F3081F3
:101740003E8348E0411B4D83832F8C7090E0B0E0D6
:10175000A0E09C01AD010D8004C0559547953795DB
:1017600027950A94D2F729833A834B835C83898136
:101770009FD58E818E7590E0B0E0A0E04C015D01B8
:101780000D8004C0B594A794979487940A94D2F7D7
:10179000882D8ED58E81877990E0B0E0A0E02C0175
:1017A0003D010D8004C075946794579447940A9442
:1017B000D2F7842D7DD53E813375C32ED12CF12CEB
:1017C000E12C0D8004C0F594E794D794C7940A9453
:1017D000D2F78C2D6DD58C2D6BD5842D69D5882DA8
:1017E00067D5898165D58091B701882341F184E06F
:1017F00090E00D8002C0959587950A94E2F7898361
:1018000019E1898155D51150E1F785E190E0AC01EE
:101810000D8002C0559547950A94E2F75A83498393
:10182000898146D5898144D58091B601813029F4DA
:1018300064E670E082E390E042D61092B60151D5A2
:101840004091A8015091A90170E060E08CE590E022
:1018500007D81092B8017894F3CC698188E04BD511
:1018600062D580E05AD6EBCF90E080E00BD1082F14
:1018700010E0102F00271093A3010093A20181E034
:1018800090E000D1082B1093A3010093A20189815D
:101890009A810817190784F49093A3018093A201F9
:1018A000698181E090E0DBD76091A90190E080E060
:1018B000D6D781E08093A1018091A2019091A301EC
:1018C00009CC861797070CF014CF8FEFF1D48FEF68
:1018D000EFD48FEFEDD48FEFF7CE8F929F92AF9230
:1018E000BF92CF92DF92EF92FF92CF93DF93EC0102
:1018F000688179818A819B816115710581059105D6
:1019000021F464E279ED8BE597E02DE133EF41E0DE
:1019100050E0E7D049015A0127EA31E440E050E0C5
:10192000C7D06B017C012CEE34EF4FEF5FEFC501A8
:10193000B401BED0C60ED71EE81EF91EF7FE06C0C3
:1019400081E0C81AD108E10880E8F80AC882D98283
:10195000EA82FB82C701B6019F77DF91CF91FF90AA
:10196000EF90DF90CF90BF90AF909F908F900895B1
:101970008F929F92AF92BF92CF92DF92EF92FF929F
:1019800060917C0070917D0080917E0090917F003D
:10199000611571058105910521F464E279ED8BE50E
:1019A00097E02DE133EF41E050E09BD049015A012F
:1019B00027EA31E440E050E07BD06B017C012CEE63
:1019C00034EF4FEF5FEFC501B40172D0C60ED71EE2
:1019D000E81EF91EF7FE06C081E0C81AD108E1082A
:1019E00080E8F80AC0927C00D0927D00E0927E00F0
:1019F000F0927F00C701B6019F77FF90EF90DF90D4
:101A0000CF90BF90AF909F908F90089560937C008F
:101A100070937D0080937E0090937F000895BB2794
:101A20004A3031F4992322F4BDE2909581959F4F7D
:101A300001C0BB27FB015527AA27880F991FAA1FA2
:101A4000A41710F0A41B83955051B9F7A05DAA33D9
:101A500008F0A95DA193009779F7B111B1931192A4
:101A6000CB0100C0DC01FC01672F71917723E1F706
:101A7000329704C07C916D9370836291AE17BF075B
:101A8000C8F30895E199FECF9FBB8EBBE09A9927DA
:101A90008DB30895262FE199FECF1CBA9FBB8EBB54
:101AA0002DBB0FB6F894E29AE19A0FBE0196089505
:101AB000EE27FF27AA27BB2708C0A20FB31FE41FEA
:101AC000F51F220F331F441F551F96958795779555
:101AD000679598F37040A9F7009799F7BD01CF017A
:101AE0000895052E97FB16F400940FD057FD05D0EE
:101AF00014D007FC02D046F408C0509540953095AC
:101B000021953F4F4F4F5F4F089590958095709569
:101B100061957F4F8F4F9F4F0895A1E21A2EAA1B08
:101B2000BB1BFD010DC0AA1FBB1FEE1FFF1FA2178D
:101B3000B307E407F50720F0A21BB30BE40BF50B8A
:101B4000661F771F881F991F1A9469F76095709513
:101B5000809590959B01AC01BD01CF0108950024B3
:101B6000552704C0080E591F880F991F009729F0A8
:101B700076956795B8F37105B9F7802D952F08957F
:101B800097FB072E16F4009406D077FD08D00BD0F3
:101B900007FC05D03EF4909581959F4F0895709570
:101BA00061957F4F0895AA1BBB1B51E107C0AA1F77
:101BB000BB1FA617B70710F0A61BB70B881F991FEE
:101BC0005A95A9F780959095BC01CD01089540D014
:101BD00008F481E00895E89409C097FB3EF49095DD
:101BE0008095709561957F4F8F4F9F4F9923A9F0F6
:101BF000F92F96E9BB279395F69587957795679585
:101C0000B795F111F8CFFAF4BB0F11F460FF1BC0C8
:101C10006F5F7F4F8F4F9F4F16C0882311F096E95B
:101C200011C0772321F09EE8872F762F05C0662309
:101C300071F096E8862F70E060E02AF09A95660FC2
:101C4000771F881FDAF7880F9695879597F908957B
:101C5000990F0008550FAA0BE0E8FEEF16161706BD
:101C6000E807F907C0F012161306E407F50798F025
:101C7000621B730B840B950B39F40A2661F0232B3E
:101C8000242B252B21F408950A2609F4A140A695BA
:0C1C90008FEF811D811D0895F894FFCF97
:101C9C00FFFFFFFF323E103CCEFFCEFFCEFFCEFF4C
:101CAC00CEFFCEFFCEFFCEFFCEFF02010100000023
:101CBC003FFF42205220452041204B204F205520F1
:101CCC005400552046204F20204320482041204FCF
:101CDC002053006D6F647320626820616E6468200D
:101CEC006A61636B736F6E0067616D652064657309
:101CFC0069676E206268002F6562626F67676C654A
:101D0C00732E636F6D002D484947482053434F5243
:101D1C00452052455345542D002D2D204D555445ED
:101D2C00202D2D002D2D20534F554E44204F4E204D
:101D3C002D2D002D2D2D2D2D2D2D2D2D2D2D2D2DF4
:101D4C002D2D2D00472041204D204520204F205681
:101D5C002045205200484947482053434F52453AAA
:101D6C0000204E455720484947482053434F524581
:021D7C00200045
:00000001FF
