:10000000E3C0FDC08CC4FBC0FAC03FC4F8C0F7C059
:10001000F6C0F5C0F4C0F3C0F2C0F1C0F0C005A84E
:100020004CCDB2D44EB93836A9020C50B99186885D
:10003000083CA6AAAA2ABE000000803F00000000DB
:100040000000000808080808000060600000003C8C
:100050004030403C003E5149453E0000427F400058
:10006000004261514946002141454B3100181412AC
:100070007F10002745454539003C4A494930000179
:100080007109050300364949493600064949291EC8
:10009000000036360000007C1211127C007F4949B6
:1000A0004936003E41414122007F4141221C007FF0
:1000B00049494941007F09090901003E4149497AFE
:1000C000007F0808087F0000417F41000020404178
:1000D0003F01007F08142241007F40404040007FE4
:1000E000020C027F007F0408107F003E4141413E28
:1000F000007F09090906003E4151215E007F091970
:1001000029460046494949310001017F0101003F6C
:100110004040403F001F2040201F003F4038403FEC
:100120000063140814630007087008070061514950
:100130004543002054545478007F484444380038E4
:100140004444442000384444487F003854545418F0
:1001500000087E0901020018A4A4A47C001CA0A031
:10016000A07C0000447D4000004080847D00007F32
:10017000102844000000417F4000007C04180478EF
:10018000007C0804047800384444443800FC2424EB
:1001900024180018242418FC007C080404080048D3
:1001A0005454542000043F444020003C4040207CF4
:1001B000001C2040201C0000000036000202020249
:1001C000020201020408102011241FBECFE5D2E074
:1001D000DEBFCDBF11E0A0E6B0E0E6EBFCE102C07F
:1001E00005900D92A232B107D9F721E0A2E2B1E069
:1001F00001C01D92A33CB207E1F79BD35ACD00CFBB
:100200003FB7F89480913D0190913E01A0913F014C
:10021000B091400122B708B601FE05C02F3F19F08A
:100220000196A11DB11D3FBFBA2FA92F982F882776
:10023000BC01CD01620F711D811D911D43E0660F50
:10024000771F881F991F4A95D1F70895CF92DF92A3
:10025000EF92FF92CF93DF936B017C01D1DFEB0133
:10026000CFDF6C1B7D0B683E7340A0F0C114D1043E
:10027000E104F10439F4DF91CF91FF90EF90DF902A
:10028000CF90089581E0C81AD108E108F108C8515B
:10029000DC4FE6CFC114D104E104F10409F7EBCF40
:1002A0008730F0F4E82FF0E0E95AFE4F099406C0D9
:1002B0000BC00CC00DC00EC00FC010C08FE301C03A
:1002C000880F6A95EAF708958CE7F9CF8EEFF7CF9C
:1002D00086EEF5CF86E6F3CF8CE3F1CF88E1EFCF62
:1002E00080E1EDCF873030F5E82FF0E0E758FE4FA2
:1002F000099406C00DC00FC011C013C015C017C0AF
:100300008FE390E002C0959587956A95E2F708958E
:100310008CE790E0F7CF8EEF90E0F4CF86EE90E0A0
:10032000F1CF86E690E0EECF8CE390E0EBCF88E172
:1003300090E0E8CF80E190E0E5CF30E020E090E091
:10034000AC01022E01C0440F0A94EAF747FF0CC02B
:10035000C39AC49AC4982F5F3F4F2830310581F764
:10036000C39AC49AC4980895C398F3CFC498C39805
:10037000C49AC39A0895C49AC39AC398C498089516
:10038000CF93DF93C82FD62FF6DF88E7D6DF80E044
:10039000D4DF80EB8D0FD1DF8C2F82958F70806141
:1003A000CCDF8C2F8E708160C8DFDF91CF91DECFE4
:1003B000E2DF88E7C2DF80E4C0CFDF92EF92FF92F6
:1003C0000F931F93CF93DF93082FD0E0C0E058E046
:1003D000D52E68E0E62EF12C6C2F88E0D1DFE8DF27
:1003E00010E08091C1019091C2019C0197FF02C071
:1003F000295F3F4F43E0359527954A95E1F7C217AE
:10040000D307A9F4B70143D9682F812F49DF95DFBE
:100410001F5F183031F7AADF2196C017E8F2DF918D
:10042000CF911F910F91FF90EF90DF9008952F5F74
:100430003F4FC217D30739F4B70129D96D2D681B77
:10044000812F50DFE4CF80E0E2CF8F929F92BF9266
:10045000CF92DF92EF92FF920F931F93CF93DF9390
:1004600002E010E0F8E0CF2ED12CA8E0BA2EB3E0E5
:10047000EB2EF12C602F80E083DF9ADFE1E48E2EFB
:10048000E1E09E2ED8EFF401C1914F014C2F50E0D6
:1004900073E0559547957A95E1F7D83088F10417C0
:1004A000150739F4C7708E2D01C0880FCA95EAF779
:1004B0000FC04F5F5F4F4017510701F5C7708B2D7D
:1004C0008C1B970102C0359527958A95E2F7C901E3
:1004D00034DFDF5FD737B9F649DF0F5F1F4F0830D2
:1004E000110541F6DF91CF911F910F91FF90EF9091
:1004F000DF90CF90BF909F908F90089580E0E8CFDD
:100500008091C1019091C2019C0197FF02C0295FB7
:100510003F4F63E0359527956A95E1F70417150776
:1005200051F40217130739F0B9016F5F7F4F60175D
:10053000710709F0B7CFBA016F5F7F4F601771077E
:10054000A9F40217130709F448C0F9013196E0171E
:10055000F10709F445C0C7708B2D8C1BF70102C051
:10056000F595E7958A95E2F7CF01B2CF0417150705
:10057000B1F00217130731F4B60189D8682F8D2F17
:100580008FDEA6CF2F5F3F4F2017310709F0B6CF80
:10059000B6017DD86B2D681B8D2FA4DE99CF021775
:1005A0001307B1F5B60173D8682F8D2F79DEC770A8
:1005B000970101C0220FCA95EAF7822B89CF6017F5
:1005C000710709F09BCF6217730709F097CFB60147
:1005D0005ED8682F8D2F64DE0EC00417150711F347
:1005E000F90131966E177F0781F4B60150D86B2D53
:1005F000681B8D2F77DEC7709B2D9C1B970102C057
:10060000359527959A95E2F7D8CF04171507D9F6AF
:10061000F9013196E417F50791F6B60138D86B2D3C
:10062000681B8D2F5FDEC3CFAF92BF92CF92DF9258
:10063000EF92FF920F931F93CF93DF93D82F162F34
:100640006A0100E0F601E00FF11D8081882389F145
:10065000C0E0803251F0C4EDC80FC03130F0CEECB4
:10066000C80FC93210F0C8ECC80FDF3710F01F5F99
:10067000D0E0183018F4612F8D2F82DE99DE8C2F98
:1006800090E066E070E0F2D7F12CE12C845C9F4FA3
:100690005C01F501EE0DFF1D84914FDE8FEFE81A2E
:1006A000F80A86E0E816F104A1F760DEDA5F0F5F72
:1006B000C9CFDF91CF911F910F91FF90EF90DF9005
:1006C000CF90BF90AF900895CF93C82F54DE88E7A6
:1006D00034DE80E032DE8C2F30DECF9147CECF93F8
:1006E000DF93C0EB8C2FF0DF80E0EEDF80E1ECDF0A
:1006F0005FDED0E080E021DEDF5FD038D9F736DE84
:10070000CF5FC83B79F7DF91CF910895BB9ABC9A30
:100710008EEADADF80E0D8DF80E1D6DF80E4D4DF64
:1007200081E8D2DF8FECD0DF81EACEDF88ECCCDF4E
:1007300086EACADF88EAC8DF8FE3C6DF83EDC4DF5D
:1007400080E0C2DF85EDC0DF80E8BEDF89EDBCDF81
:1007500081EFBADF8AEDB8DF82E1B6DF8BEDB4DF7F
:1007600080E4B2DF80E2B0DF82E0AEDF8DE8ACDFB4
:1007700084E1AADF84EAA8DF86EAA6DF8FEAA4CFB5
:1007800090B79F7D90BF811105C08FB7F894C19835
:100790008FBF08958FB7F894C19AFACFEF92FF9266
:1007A0000F931F93CF93DF932091370121111DC029
:1007B000EB017C0110E000E081E0E2DF90E080E00E
:1007C0008C179D071CF400000196FACF80E0D8DF5B
:1007D00090E080E08C179D071CF400000196FACF92
:1007E0000F5F1F4FE016F1063CF7DF91CF911F918D
:1007F0000F91FF90EF90089590E0FC01EE53FE4FB3
:100800002491FC01E454FE4FE491EE2371F0F0E0FA
:10081000EE0FFF1FEA54FE4FA591B491EC91E22335
:1008200081E090E021F480E0089580E090E0089578
:10083000EF92FF920F931F93CF93DF93CDB7DEB765
:100840002A970FB6F894DEBF0FBECDBFF82EE62E66
:10085000CA018E010F5F1F4F2AE0F80111922A95FD
:10086000E9F74AE0B80162D6A8016E2D8F2DDCDED3
:100870002A960FB6F894DEBF0FBECDBFDF91CF91A1
:100880001F910F91FF90EF9008951F920F920FB656
:100890000F9211242F933F938F939F93AF93BF9306
:1008A0008091390190913A01A0913B01B0913C01B6
:1008B0003091380126E0230F2D3768F129E8230F06
:1008C0000396A11DB11D20933801809339019093A7
:1008D0003A01A0933B01B0933C0180913D0190917E
:1008E0003E01A0913F01B09140010196A11DB11DB3
:1008F00080933D0190933E01A0933F01B09340014E
:10090000BF91AF919F918F913F912F910F900FBE0B
:100910000F901F9018950296A11DB11DD4CF1F9264
:100920000F920FB60F9211240F900FBE0F901F90D1
:100930001895CF93DF9300D000D000D0CDB7DEB7AD
:1009400080E886BD91E096BD83E08ABD83BF789440
:1009500089B7826089BF80E48CBD8FEF8DBD87EC45
:1009600080BF86E886B982E087BB95BB8BB7806283
:100970008BBF789437E3232E312C42E1442E512C47
:10098000612C712CC3DEABDE4EE650E061E088E006
:100990004BDE40E850E062E088E046DE42E950E0AD
:1009A00064E088E041DE4EE650E065E088E03CDE51
:1009B00044EA50E067E088E037DE8FB7F894C090F3
:1009C0003901D0903A01E0903B01F0903C018FBF9B
:1009D00080E012DF019709F072C02FB7F894809180
:1009E000390190913A01A0913B01B0913C012FBF98
:1009F0008C199D09AE09BF09813D9740A105B1053C
:100A00003CF382E0F9DE019709F040C060E090E03D
:100A100080E0C7D560E081E090E0C3D546EB50E0D0
:100A200060E088E001DE31E0398380E0E5DE0197B7
:100A3000E1F389818111BFC460E971E080E090E059
:100A400005DCA4E1B0E0BA83A9833092C201209210
:100A5000C1010091C1011091C201E981FA81E01741
:100A6000F1077CF588E0A9DCB80168537F4F82E08C
:100A700090E094DE62E070E080E090E0E7DB01501F
:100A800011091093C2010093C101E3CF8091370196
:100A900081110BC081E08093370149EC50E060E0A8
:100AA00080E2C2DD41E04983C0CF1092370144EDBE
:100AB00050E060E087E1B8DD51E05983B6CF19829C
:100AC000B4CF29813A813093C2012093C1010091B2
:100AD000C1011091C20107331105A4F488E06DDC57
:100AE000B80168537F4F82E090E058DE62E070E02A
:100AF00080E090E0ABDB0F5F1F4F1093C2010093CB
:100B0000C101E5CF49815A814A5051095A8349832D
:100B1000463F5F4F09F099CF68E572E080E090E0D2
:100B200095DBF4DDDCDD109236011092300110927D
:100B30002F0110922E012DEC3CEC4CE45DE3209350
:100B4000660030936700409368005093690085E029
:100B500090E0909365008093640080E090E0A0EACC
:100B6000B1E48093600090936100A0936200B09321
:100B700063001092C2011092C10110922D011092D7
:100B80002C0110922B0110922A011092290110922F
:100B90002801109227011092330110923501109212
:100BA0003401A1E4B1E0BA83A98310E02BEDC22E99
:100BB0002FE0D22E29E4E22E20E4F22E1F5F11381E
:100BC00009F052C180E880932201C0922301D092A3
:100BD0002401E0922501F09226011E821D8280915F
:100BE000360181113AC380912F0190913001019615
:100BF0009093300180932F018091640090912E0199
:100C0000890F8A3008F04EC180932E0180E0F4DD18
:100C1000019709F053C180912B0190912C012D81F6
:100C20003E812F5F3F4F3E832D832091C101309144
:100C3000C2012E5F3F4F3093C2012093C1010A973A
:100C400090932C0180932B01D0902A010091C10137
:100C50001091C20120912B0130912C01809128012B
:100C600090912901DD2009F42CC140912D014017FC
:100C700011060CF026C10A96909329018093280151
:100C8000295F3F4F30932C0120932B0100932D01BE
:100C900082E0B2DD019731F4015011091093C201D5
:100CA0000093C101E090C101F090C20100912B01BD
:100CB00010912C015EE2E516F1040CF415C1DD2063
:100CC00009F412C1C0902801D090290180E094DD80
:100CD000019709F009C1055B1F4F10932C01009388
:100CE0002B0184E6C80ED11CD0922901C0922801A4
:100CF0006EE571E06C197D0981E090E04FDD809137
:100D00002801909129018D3B924034F0ECEBF2E008
:100D1000F0932901E093280180912B0190912C01FF
:100D2000833C914034F022EC31E030932C0120934D
:100D30002B012091C1013091C2012D5F3F4F3093B3
:100D4000C2012093C10180912B0190912C011816B2
:100D500019064CF440912A01413029F044979093B0
:100D60002C0180932B0180912B0190912C0197FFF6
:100D700004C010922C0110922B01809128019091B7
:100D80002901181619062CF40797909329018093CE
:100D90002801809128019091290197FF04C01092A9
:100DA00029011092280180912801909129016EE675
:100DB00070E06DD48B010E5F1F4F109365000093A0
:100DC000640010922A01809152018850990B2817D3
:100DD00039073CF021E020932A019093C2018093CF
:100DE000C1018091C1019091C2011816190624F029
:100DF0001092C2011092C101C0902301D090240131
:100E0000E0902501F09026012BED3FE049EC50E405
:100E1000C701B6016AD687FD0FC02BED3FE049EC54
:100E200050E4C701B6015AD46093230170932401A2
:100E3000809325019093260160E04FE750E0401B2E
:100E4000510B98012F5B3E4F862F90E06F5F841708
:100E500095070CF064C0F901E80FF91F70818F5BF2
:100E60009E4FDC017C93F0CFC701B601ADD620E0E8
:100E700030E040EA51E43DD620E030E048E252E480
:100E80002ED46BD501D5E981FA816193FA83E98388
:100E90002DEC3CEC4CE45DE3C701B60120D46B01C2
:100EA0007C018CCE10922E018091340190913501FD
:100EB00001969093350180933401A8CE1E821D8245
:100EC000C3CE4D815E814F3151050CF4DFCE241B22
:100ED000350B30932C0120932B01841B950B9093A1
:100EE000290180932801D2CEB701FF0C880B990B02
:100EF000F9D46B017C01C80168E270E0C8D3072E09
:100F0000000C880B990BEED49B01AC01C701B60114
:100F1000E5D3B5D47093C2016093C101F0CE8FE7E1
:100F2000801B809322010091220107FDE7C06091A0
:100F3000230170912401809125019091260144D6CE
:100F40006B017C012DEC3CEC4CE45EEB2CD487FF78
:100F500015C0A70196016DEC7CEC8CE49EEBBED332
:100F600020E030E040E05FE3C4D59B01AC016DECD4
:100F70007CEC8CE49EEBB2D36B017C018090600032
:100F800090906100A0906200B0906300A501940170
:100F900060E070E088E792E4A1D369837A838B8371
:100FA0009C83A7019601C501B401A3D59B01AC01A7
:100FB00069817A818B819C8192D3CFD410E00F5BC1
:100FC0001E4F62D4F801608326E636E646E65FE30C
:100FD000C701B601E8D387FF66C0109227012CEE47
:100FE00031E548E75FE3C701B6017FD518160CF07D
:100FF00068C045D2A3019201FBD217E0160F612F02
:1010000070E090E080E06ED46B017C018090600025
:1010100090906100A0906200B090630020E030E00A
:1010200040EE50E4C501B40159D39B01AC01C701A6
:10103000B6015BD5181674F420E030E040EE50E4C1
:10104000C501B4014CD39B01AC01C701B601ABD3C0
:1010500087FDCFCF612F70E090E080E041D46093B6
:10106000600070936100809362009093630007D2E8
:1010700028E230E040E050E0BBD26D5D7F4F8F4F03
:101080009F4F30D420E030E04AE754E490D360939F
:101090006600709367008093680090936900F1E0A8
:1010A000F09327010EC02CEE31E548E75FE3C7015E
:1010B000B6011BD518162CF480912701882309F45A
:1010C00098CF209166003091670040916800509160
:1010D0006900609123017091240180912501909114
:1010E0002601FDD260932301709324018093250192
:1010F00090932601809122018F5F13CFA6D982E0C1
:101100005CD9409134015091350170E060E085E593
:1011100090E08EDB209134013091350180912F01D8
:1011200090913001263B43E0340759F420912E0181
:10113000211112C0845893409093300180932F0165
:101140000BC02A3A55E0350789F32E39A7E03A0754
:1011500069F32036394051F380912F01909130018D
:1011600097FF04C01092300110922F0160E088E2D6
:1011700007D91ED98FEFE1D8812C912C90E8A92EA8
:101180009FE3B92E00912F011091300160ED77E0BF
:10119000601B710B072E000C880B990BA3D32FE655
:1011A00032E143E85CE3A5D46B017C01A501940125
:1011B0009CD4181664F48DEBC0D820E030E040E8F1
:1011C0005FE3C501B4018BD24B015C01DBCF20E0B2
:1011D00030E040E052E4C701B601E5D287FF0CC021
:1011E00081E8ABD820E030E040E85FE3C701B6011A
:1011F00076D26B017C01EBCF8FEF9FD8B7D860E040
:1012000088E3BED8D5D88FEF98D8B0D8003D174026
:101210000CF4E5CC0091C1011091C2018091520102
:101220008850990B081719077CF482E0C6D80DD9AD
:101230000F5F1F4F1093C2010093C10162E370E082
:1012400080E090E003D8E6CF81E08093360168EE3D
:1012500073E080E090E0FAD7C2CC6CED75E080E0FE
:1012600090E0F4D790E080E094D1282F30E0522F26
:1012700044275A834983509332014093310181E0DE
:1012800090E087D1A981BA81A82BB0933201A093B5
:1012900031016091340170913501A617B7077CF4D4
:1012A000709332016093310181E090E07AD16091D6
:1012B000350190E080E075D181E0809333010FDA51
:1012C00043EE50E061E08BE0AFD944EF50E062E0E4
:1012D0008BE0AAD943EE50E063E08BE0A5D94AE069
:1012E00051E065E085E2A0D940913401509135018B
:1012F00065E070E08BE490E09BDAECEBF2E0FA83DF
:10130000E98369817A818EE190E048DA29813A8126
:10131000225331093A832983283C310591F7809182
:10132000330181110EC045E051E067E085E17CD9D1
:10133000409131015091320167E070E088E590E022
:1013400077DA60ED77E080E090E080D7809133013C
:10135000882389F1C4D943EE50E061E08AE064D982
:1013600041E151E063E08AE05FD943EE50E067E09D
:101370008AE05AD9409131015091320165E070E024
:1013800082E390E055DA4CEB52E05A83498369815D
:101390007A818EE190E002DA89819A81C2979A83FC
:1013A0008983883C910599F7109233016CE87AE0C3
:1013B00080E090E04BD793D98EEA86D9379885B7ED
:1013C000877E806185BF85B7806285BF85B7806273
:1013D00085BF889585B78F7D85BF85B78F7D85BF94
:1013E000379A8FEA71D9CECA8F929F92AF92BF92ED
:1013F000CF92DF92EF92FF92CF93DF93EC0168815F
:1014000079818A819B81611571058105910521F49E
:1014100064E279ED8BE597E02DE133EF41E050E0B8
:10142000E7D049015A0127EA31E440E050E0C7D053
:101430006B017C012CEE34EF4FEF5FEFC501B4017F
:10144000BED0C60ED71EE81EF91EF7FE06C081E00C
:10145000C81AD108E10880E8F80AC882D982EA826D
:10146000FB82C701B6019F77DF91CF91FF90EF908C
:10147000DF90CF90BF90AF909F908F9008958F9204
:101480009F92AF92BF92CF92DF92EF92FF926091C4
:101490006A0070916B0080916C0090916D006115F5
:1014A00071058105910521F464E279ED8BE597E002
:1014B0002DE133EF41E050E09BD049015A0127EA8A
:1014C00031E440E050E07BD06B017C012CEE34EF46
:1014D0004FEF5FEFC501B40172D0C60ED71EE81EF4
:1014E000F91EF7FE06C081E0C81AD108E10880E8BD
:1014F000F80AC0926A00D0926B00E0926C00F09201
:101500006D00C701B6019F77FF90EF90DF90CF90FD
:10151000BF90AF909F908F90089560936A007093F2
:101520006B0080936C0090936D000895BB274A3048
:1015300031F4992322F4BDE2909581959F4F01C02B
:10154000BB27FB015527AA27880F991FAA1FA4179D
:1015500010F0A41B83955051B9F7A05DAA3308F091
:10156000A95DA193009779F7B111B1931192CB01C5
:1015700000C0DC01FC01672F71917723E1F73297FE
:1015800004C07C916D9370836291AE17BF07C8F35E
:101590000895E199FECF9FBB8EBBE09A99278DB34A
:1015A0000895262FE199FECF1CBA9FBB8EBB2DBBA1
:1015B0000FB6F894E29AE19A0FBE01960895EE27CD
:1015C000FF27AA27BB2708C0A20FB31FE41FF51FE0
:1015D000220F331F441F551F969587957795679562
:1015E00098F37040A9F7009799F7BD01CF010895CE
:1015F000052E97FB16F400940FD057FD05D014D09C
:1016000007FC02D046F408C05095409530952195CE
:101610003F4F4F4F5F4F089590958095709561951E
:101620007F4F8F4F9F4F0895A1E21A2EAA1BBB1B1D
:10163000FD010DC0AA1FBB1FEE1FFF1FA217B3079E
:10164000E407F50720F0A21BB30BE40BF50B661FB4
:10165000771F881F991F1A9469F760957095809578
:1016600090959B01AC01BD01CF0108950024552741
:1016700004C0080E591F880F991F009729F076950E
:101680006795B8F37105B9F7802D952F089597FBED
:10169000072E16F4009406D077FD08D00BD007FC77
:1016A00005D03EF4909581959F4F08957095619572
:1016B0007F4F0895AA1BBB1B51E107C0AA1FBB1F88
:1016C000A617B70710F0A61BB70B881F991F5A95CE
:1016D000A9F780959095BC01CD0108955058BB277E
:1016E000AA270ED0B1C1A2D130F0A7D120F031F499
:1016F0009F3F11F41EF497C10EF4E095E7FB64C11F
:10170000E92FB3D180F3BA176207730784079507EF
:1017100018F071F49EF5E2C10EF4E0950B2EBA2F8D
:10172000A02D0B01B90190010C01CA01A0011124E7
:10173000FF27591B99F0593F50F4503E68F11A1693
:10174000F040A22F232F342F4427585FF3CF469524
:1017500037952795A795F0405395C9F77EF41F1646
:10176000BA0B620B730B840BBAF09150A1F0FF0F10
:10177000BB1F661F771F881FC2F70EC0BA0F621FFC
:10178000731F841F48F4879577956795B795F795EC
:101790009E3F08F0B3CF9395880F08F09927EE0F7E
:1017A000979587950895ECD008F481E008950CD0C2
:1017B0004BC143D140F03AD130F021F45F3F19F0F2
:1017C00003C151118CC12FC150D198F39923C9F392
:1017D0005523B1F3951B550BBB27AA276217730737
:1017E000840738F09F5F5F4F220F331F441FAA1FEB
:1017F000A9F333D00E2E3AF0E0E830D091505040AB
:10180000E695001CCAF729D0FE2F27D0660F771F58
:10181000881FBB1F261737074807AB07B0E809F03A
:10182000BB0B802DBF01FF2793585F4F2AF09E3FCF
:10183000510568F0C9C053C15F3FECF3983EDCF33B
:10184000869577956795B795F7959F5FC9F7880F48
:10185000911D9695879597F90895E1E0660F771F9A
:10186000881FBB1F621773078407BA0720F0621B2B
:10187000730B840BBA0BEE1F88F7E095089504D024
:101880006894B1112CC10895F8D088F09F5790F05A
:10189000B92F9927B751A0F0D1F0660F771F881F95
:1018A000991F1AF0BA95C9F712C0B13081F016D15C
:1018B000B1E0089513C1672F782F8827B85F39F0FA
:1018C000B93FCCF3869577956795B395D9F73EF4F4
:1018D00090958095709561957F4F8F4F9F4F08959C
:1018E000E89409C097FB3EF49095809570956195BA
:1018F0007F4F8F4F9F4F9923A9F0F92F96E9BB2770
:101900009395F695879577956795B795F111F8CFEB
:10191000FAF4BB0F11F460FF1BC06F5F7F4F8F4F56
:101920009F4F16C0882311F096E911C0772321F04C
:101930009EE8872F762F05C0662371F096E8862FE4
:1019400070E060E02AF09A95660F771F881FDAF73B
:10195000880F9695879597F90895A9D080F09F37BD
:1019600040F491110EF0BBC060E070E080E89FEBA6
:10197000089526F41B16611D711D811D2BC045C0E5
:10198000990F0008550FAA0BE0E8FEEF1616170690
:10199000E807F907C0F012161306E407F50798F0F8
:1019A000621B730B840B950B39F40A2661F0232B11
:1019B000242B252B21F408950A2609F4A140A6958D
:1019C0008FEF811D811D089597F99F6780E870E072
:1019D00060E00895882371F4772321F09850872BD5
:1019E000762F07C0662311F499270DC09051862BDE
:1019F00070E060E02AF09A95660F771F881FDAF78B
:101A0000880F9695879597F908959F3F31F09150EB
:101A100020F4879577956795B795880F911D9695D2
:101A2000879597F908959FEF80EC089500240A9414
:101A30001616170618060906089500240A941216A9
:101A40001306140605060895092E0394000C11F4DC
:101A5000882352F0BB0F40F4BF2B11F460FF04C089
:101A60006F5F7F4F8F4F9F4F089557FD9058440FE2
:101A7000551F59F05F3F71F04795880F97FB991FED
:101A800061F09F3F79F087950895121613061406AA
:101A9000551FF2CF4695F1DF08C016161706180637
:101AA000991FF1CF86957105610508940895E5DFCA
:101AB000A0F0BEE7B91788F4BB279F3860F416166C
:101AC000B11D672F782F8827985FF7CF8695779578
:101AD0006795B11D93959639C8F30895E894BB278F
:101AE00066277727CB0197F908954ADF08F48FEF2F
:101AF00008950AD0A9CF9ADF28F09FDF18F0952328
:101B000009F062CF90CFEBCFB0DFA8F39923D9F3E0
:101B10005523C9F3950F50E0551FAA27EE27FF273D
:101B2000BB2700240894679520F4E20FF31FB41F2D
:101B30000A1E220F331F441FAA1F6695A9F7779527
:101B400030F4F30FB41F0A1E121E08F46395330F0E
:101B5000441FAA1F221F769599F7879520F4B40F8A
:101B60000A1E121E631F440FAA1F221F331F8695D1
:101B7000A9F7862F712D602D11249F5750408AF0B0
:101B8000E1F088234AF0EE0FFF1FBB1F661F771F8F
:101B9000881F91505040A9F79E3F510570F014CF17
:101BA0009ECF5F3FECF3983EDCF386957795679583
:101BB000B795F795E7959F5FC1F7FE2B880F911DAD
:101BC0009695879597F908959F9305D00F9007FCF8
:101BD000EE5F28C028CF51DFE8F3E894E0E0BB27B0
:101BE0009F57F0F02AED3FE049EC06C0EE0FBB0F27
:101BF000661F771F881F28F0B23A620773078407B1
:101C000028F0B25A620B730B840BE3959A9572F726
:101C1000803830F49A95BB0F661F771F881FD2F764
:101C20009048F5CEEF93E0FF06C0A2EA2AED3FE030
:101C300049EC5FEB65DD08DF0F90039401FC9058E1
:101C4000EEE1F0E000C09F938F937F936F93FF933B
:101C5000EF939B01AC014DDFEF91FF9105D02F91E8
:101C60003F914F915F9145CFDF93CF931F930F9398
:101C7000FF92EF92DF927B018C01689405C0DA2E0F
:101C8000EF0142DFFE01E894A59125913591459140
:101C90005591AEF3EF0134DDFE019701A801DA940E
:101CA00079F7DF90EF90FF900F911F91CF91DF9127
:061CB0000895F894FFCF37
:101CB6000000C8410500CDCCCC3D0100000020202D
:101CC600202D2D2D2D2D2D2D2D2D2D2D2D2D2D0078
:101CD600202020205720522045204E202020202042
:101CE600200020202020524F4C4C4552434F415358
:101CF6005445520020202020616E6468206A61638A
:101D06006B736F6E20002D484947482053434F524E
:101D1600452052455345542D002D2D204D555445F3
:101D2600202D2D002D2D20534F554E44204F4E2053
:101D36002D2D002D2D2D2D2D2D2D2D2D2D2D2D2DFA
:101D46002D2D2D00472041204D204520204F205687
:101D56002045205200484947482053434F52453AB0
:101D660000204E455720484947482053434F524587
:021D760020004B
:00000001FF
